{
  "contractName": "GXC",
  "abi": [
    {
      "inputs": [
        {
          "internalType": "string",
          "name": "name",
          "type": "string"
        },
        {
          "internalType": "string",
          "name": "symbol",
          "type": "string"
        }
      ],
      "stateMutability": "nonpayable",
      "type": "constructor"
    },
    {
      "anonymous": false,
      "inputs": [
        {
          "indexed": true,
          "internalType": "address",
          "name": "owner",
          "type": "address"
        },
        {
          "indexed": true,
          "internalType": "address",
          "name": "spender",
          "type": "address"
        },
        {
          "indexed": false,
          "internalType": "uint256",
          "name": "value",
          "type": "uint256"
        }
      ],
      "name": "Approval",
      "type": "event"
    },
    {
      "anonymous": false,
      "inputs": [
        {
          "indexed": true,
          "internalType": "address",
          "name": "from",
          "type": "address"
        },
        {
          "indexed": false,
          "internalType": "uint256",
          "name": "amount",
          "type": "uint256"
        },
        {
          "indexed": false,
          "internalType": "string",
          "name": "to",
          "type": "string"
        }
      ],
      "name": "Burn",
      "type": "event"
    },
    {
      "anonymous": false,
      "inputs": [
        {
          "indexed": true,
          "internalType": "address",
          "name": "to",
          "type": "address"
        },
        {
          "indexed": false,
          "internalType": "uint256",
          "name": "amount",
          "type": "uint256"
        },
        {
          "indexed": false,
          "internalType": "string",
          "name": "from",
          "type": "string"
        },
        {
          "indexed": false,
          "internalType": "string",
          "name": "txid",
          "type": "string"
        }
      ],
      "name": "DELIVER",
      "type": "event"
    },
    {
      "anonymous": false,
      "inputs": [
        {
          "indexed": false,
          "internalType": "address",
          "name": "account",
          "type": "address"
        }
      ],
      "name": "Paused",
      "type": "event"
    },
    {
      "anonymous": false,
      "inputs": [
        {
          "indexed": true,
          "internalType": "bytes32",
          "name": "role",
          "type": "bytes32"
        },
        {
          "indexed": true,
          "internalType": "bytes32",
          "name": "previousAdminRole",
          "type": "bytes32"
        },
        {
          "indexed": true,
          "internalType": "bytes32",
          "name": "newAdminRole",
          "type": "bytes32"
        }
      ],
      "name": "RoleAdminChanged",
      "type": "event"
    },
    {
      "anonymous": false,
      "inputs": [
        {
          "indexed": true,
          "internalType": "bytes32",
          "name": "role",
          "type": "bytes32"
        },
        {
          "indexed": true,
          "internalType": "address",
          "name": "account",
          "type": "address"
        },
        {
          "indexed": true,
          "internalType": "address",
          "name": "sender",
          "type": "address"
        }
      ],
      "name": "RoleGranted",
      "type": "event"
    },
    {
      "anonymous": false,
      "inputs": [
        {
          "indexed": true,
          "internalType": "bytes32",
          "name": "role",
          "type": "bytes32"
        },
        {
          "indexed": true,
          "internalType": "address",
          "name": "account",
          "type": "address"
        },
        {
          "indexed": true,
          "internalType": "address",
          "name": "sender",
          "type": "address"
        }
      ],
      "name": "RoleRevoked",
      "type": "event"
    },
    {
      "anonymous": false,
      "inputs": [
        {
          "indexed": true,
          "internalType": "address",
          "name": "from",
          "type": "address"
        },
        {
          "indexed": true,
          "internalType": "address",
          "name": "to",
          "type": "address"
        },
        {
          "indexed": false,
          "internalType": "uint256",
          "name": "value",
          "type": "uint256"
        }
      ],
      "name": "Transfer",
      "type": "event"
    },
    {
      "anonymous": false,
      "inputs": [
        {
          "indexed": false,
          "internalType": "address",
          "name": "account",
          "type": "address"
        }
      ],
      "name": "Unpaused",
      "type": "event"
    },
    {
      "inputs": [],
      "name": "ADJUST_ROLE",
      "outputs": [
        {
          "internalType": "bytes32",
          "name": "",
          "type": "bytes32"
        }
      ],
      "stateMutability": "view",
      "type": "function",
      "constant": true
    },
    {
      "inputs": [],
      "name": "DEFAULT_ADMIN_ROLE",
      "outputs": [
        {
          "internalType": "bytes32",
          "name": "",
          "type": "bytes32"
        }
      ],
      "stateMutability": "view",
      "type": "function",
      "constant": true
    },
    {
      "inputs": [],
      "name": "DELIVER_ROLE",
      "outputs": [
        {
          "internalType": "bytes32",
          "name": "",
          "type": "bytes32"
        }
      ],
      "stateMutability": "view",
      "type": "function",
      "constant": true
    },
    {
      "inputs": [],
      "name": "MINTER_ROLE",
      "outputs": [
        {
          "internalType": "bytes32",
          "name": "",
          "type": "bytes32"
        }
      ],
      "stateMutability": "view",
      "type": "function",
      "constant": true
    },
    {
      "inputs": [],
      "name": "PAUSER_ROLE",
      "outputs": [
        {
          "internalType": "bytes32",
          "name": "",
          "type": "bytes32"
        }
      ],
      "stateMutability": "view",
      "type": "function",
      "constant": true
    },
    {
      "inputs": [
        {
          "internalType": "address",
          "name": "owner",
          "type": "address"
        },
        {
          "internalType": "address",
          "name": "spender",
          "type": "address"
        }
      ],
      "name": "allowance",
      "outputs": [
        {
          "internalType": "uint256",
          "name": "",
          "type": "uint256"
        }
      ],
      "stateMutability": "view",
      "type": "function",
      "constant": true
    },
    {
      "inputs": [
        {
          "internalType": "address",
          "name": "spender",
          "type": "address"
        },
        {
          "internalType": "uint256",
          "name": "amount",
          "type": "uint256"
        }
      ],
      "name": "approve",
      "outputs": [
        {
          "internalType": "bool",
          "name": "",
          "type": "bool"
        }
      ],
      "stateMutability": "nonpayable",
      "type": "function"
    },
    {
      "inputs": [
        {
          "internalType": "address",
          "name": "account",
          "type": "address"
        }
      ],
      "name": "balanceOf",
      "outputs": [
        {
          "internalType": "uint256",
          "name": "",
          "type": "uint256"
        }
      ],
      "stateMutability": "view",
      "type": "function",
      "constant": true
    },
    {
      "inputs": [
        {
          "internalType": "address",
          "name": "account",
          "type": "address"
        },
        {
          "internalType": "uint256",
          "name": "amount",
          "type": "uint256"
        }
      ],
      "name": "burnFrom",
      "outputs": [],
      "stateMutability": "nonpayable",
      "type": "function"
    },
    {
      "inputs": [],
      "name": "decimals",
      "outputs": [
        {
          "internalType": "uint8",
          "name": "",
          "type": "uint8"
        }
      ],
      "stateMutability": "view",
      "type": "function",
      "constant": true
    },
    {
      "inputs": [
        {
          "internalType": "address",
          "name": "spender",
          "type": "address"
        },
        {
          "internalType": "uint256",
          "name": "subtractedValue",
          "type": "uint256"
        }
      ],
      "name": "decreaseAllowance",
      "outputs": [
        {
          "internalType": "bool",
          "name": "",
          "type": "bool"
        }
      ],
      "stateMutability": "nonpayable",
      "type": "function"
    },
    {
      "inputs": [
        {
          "internalType": "bytes32",
          "name": "role",
          "type": "bytes32"
        }
      ],
      "name": "getRoleAdmin",
      "outputs": [
        {
          "internalType": "bytes32",
          "name": "",
          "type": "bytes32"
        }
      ],
      "stateMutability": "view",
      "type": "function",
      "constant": true
    },
    {
      "inputs": [
        {
          "internalType": "bytes32",
          "name": "role",
          "type": "bytes32"
        },
        {
          "internalType": "uint256",
          "name": "index",
          "type": "uint256"
        }
      ],
      "name": "getRoleMember",
      "outputs": [
        {
          "internalType": "address",
          "name": "",
          "type": "address"
        }
      ],
      "stateMutability": "view",
      "type": "function",
      "constant": true
    },
    {
      "inputs": [
        {
          "internalType": "bytes32",
          "name": "role",
          "type": "bytes32"
        }
      ],
      "name": "getRoleMemberCount",
      "outputs": [
        {
          "internalType": "uint256",
          "name": "",
          "type": "uint256"
        }
      ],
      "stateMutability": "view",
      "type": "function",
      "constant": true
    },
    {
      "inputs": [
        {
          "internalType": "bytes32",
          "name": "role",
          "type": "bytes32"
        },
        {
          "internalType": "address",
          "name": "account",
          "type": "address"
        }
      ],
      "name": "grantRole",
      "outputs": [],
      "stateMutability": "nonpayable",
      "type": "function"
    },
    {
      "inputs": [
        {
          "internalType": "bytes32",
          "name": "role",
          "type": "bytes32"
        },
        {
          "internalType": "address",
          "name": "account",
          "type": "address"
        }
      ],
      "name": "hasRole",
      "outputs": [
        {
          "internalType": "bool",
          "name": "",
          "type": "bool"
        }
      ],
      "stateMutability": "view",
      "type": "function",
      "constant": true
    },
    {
      "inputs": [
        {
          "internalType": "address",
          "name": "spender",
          "type": "address"
        },
        {
          "internalType": "uint256",
          "name": "addedValue",
          "type": "uint256"
        }
      ],
      "name": "increaseAllowance",
      "outputs": [
        {
          "internalType": "bool",
          "name": "",
          "type": "bool"
        }
      ],
      "stateMutability": "nonpayable",
      "type": "function"
    },
    {
      "inputs": [
        {
          "internalType": "address",
          "name": "to",
          "type": "address"
        },
        {
          "internalType": "uint256",
          "name": "amount",
          "type": "uint256"
        }
      ],
      "name": "mint",
      "outputs": [],
      "stateMutability": "nonpayable",
      "type": "function"
    },
    {
      "inputs": [],
      "name": "name",
      "outputs": [
        {
          "internalType": "string",
          "name": "",
          "type": "string"
        }
      ],
      "stateMutability": "view",
      "type": "function",
      "constant": true
    },
    {
      "inputs": [],
      "name": "pause",
      "outputs": [],
      "stateMutability": "nonpayable",
      "type": "function"
    },
    {
      "inputs": [],
      "name": "paused",
      "outputs": [
        {
          "internalType": "bool",
          "name": "",
          "type": "bool"
        }
      ],
      "stateMutability": "view",
      "type": "function",
      "constant": true
    },
    {
      "inputs": [
        {
          "internalType": "bytes32",
          "name": "role",
          "type": "bytes32"
        },
        {
          "internalType": "address",
          "name": "account",
          "type": "address"
        }
      ],
      "name": "renounceRole",
      "outputs": [],
      "stateMutability": "nonpayable",
      "type": "function"
    },
    {
      "inputs": [
        {
          "internalType": "bytes32",
          "name": "role",
          "type": "bytes32"
        },
        {
          "internalType": "address",
          "name": "account",
          "type": "address"
        }
      ],
      "name": "revokeRole",
      "outputs": [],
      "stateMutability": "nonpayable",
      "type": "function"
    },
    {
      "inputs": [],
      "name": "symbol",
      "outputs": [
        {
          "internalType": "string",
          "name": "",
          "type": "string"
        }
      ],
      "stateMutability": "view",
      "type": "function",
      "constant": true
    },
    {
      "inputs": [],
      "name": "totalSupply",
      "outputs": [
        {
          "internalType": "uint256",
          "name": "",
          "type": "uint256"
        }
      ],
      "stateMutability": "view",
      "type": "function",
      "constant": true
    },
    {
      "inputs": [
        {
          "internalType": "address",
          "name": "recipient",
          "type": "address"
        },
        {
          "internalType": "uint256",
          "name": "amount",
          "type": "uint256"
        }
      ],
      "name": "transfer",
      "outputs": [
        {
          "internalType": "bool",
          "name": "",
          "type": "bool"
        }
      ],
      "stateMutability": "nonpayable",
      "type": "function"
    },
    {
      "inputs": [
        {
          "internalType": "address",
          "name": "sender",
          "type": "address"
        },
        {
          "internalType": "address",
          "name": "recipient",
          "type": "address"
        },
        {
          "internalType": "uint256",
          "name": "amount",
          "type": "uint256"
        }
      ],
      "name": "transferFrom",
      "outputs": [
        {
          "internalType": "bool",
          "name": "",
          "type": "bool"
        }
      ],
      "stateMutability": "nonpayable",
      "type": "function"
    },
    {
      "inputs": [],
      "name": "unpause",
      "outputs": [],
      "stateMutability": "nonpayable",
      "type": "function"
    },
    {
      "inputs": [
        {
          "internalType": "address",
          "name": "to",
          "type": "address"
        },
        {
          "internalType": "uint256",
          "name": "amount",
          "type": "uint256"
        },
        {
          "internalType": "string",
          "name": "from",
          "type": "string"
        },
        {
          "internalType": "string",
          "name": "txid",
          "type": "string"
        }
      ],
      "name": "deliver",
      "outputs": [],
      "stateMutability": "nonpayable",
      "type": "function"
    },
    {
      "inputs": [
        {
          "internalType": "uint256",
          "name": "amount",
          "type": "uint256"
        }
      ],
      "name": "burn",
      "outputs": [],
      "stateMutability": "nonpayable",
      "type": "function"
    },
    {
      "inputs": [
        {
          "internalType": "uint256",
          "name": "amount",
          "type": "uint256"
        },
        {
          "internalType": "string",
          "name": "to",
          "type": "string"
        }
      ],
      "name": "burn",
      "outputs": [],
      "stateMutability": "nonpayable",
      "type": "function"
    },
    {
      "inputs": [
        {
          "internalType": "uint256",
          "name": "_burnMin",
          "type": "uint256"
        },
        {
          "internalType": "uint256",
          "name": "_mintMin",
          "type": "uint256"
        }
      ],
      "name": "adjustMinNumber",
      "outputs": [],
      "stateMutability": "nonpayable",
      "type": "function"
    },
    {
      "inputs": [],
      "name": "getTxidArray",
      "outputs": [
        {
          "internalType": "string[10]",
          "name": "",
          "type": "string[10]"
        }
      ],
      "stateMutability": "nonpayable",
      "type": "function"
    }
  ],
  "bytecode": "0x6080604052600a60115561c35060135561c3506014556005601560006101000a81548160ff021916908360ff1602179055503480156200003e57600080fd5b5060405162003f6338038062003f63833981810160405262000064919081019062000487565b818181818160049080519060200190620000809291906200037c565b508060059080519060200190620000999291906200037c565b506012600660006101000a81548160ff021916908360ff16021790555050506000600660016101000a81548160ff021916908315150217905550620000f76000801b620000eb620001c860201b60201c565b620001d060201b60201c565b6200012d6040516200010990620005d7565b604051809103902062000121620001c860201b60201c565b620001d060201b60201c565b620001636040516200013f90620005c0565b604051809103902062000157620001c860201b60201c565b620001d060201b60201c565b50506200018a601560009054906101000a900460ff16620001e660201b620037a51760201c565b620001c06040516200019c90620005ee565b6040518091039020620001b4620001c860201b60201c565b620001d060201b60201c565b5050620006a1565b600033905090565b620001e282826200020460201b60201c565b5050565b80600660006101000a81548160ff021916908360ff16021790555050565b6200023281600080858152602001908152602001600020600001620002a760201b62001ecc1790919060201c565b15620002a35762000248620001c860201b60201c565b73ffffffffffffffffffffffffffffffffffffffff168173ffffffffffffffffffffffffffffffffffffffff16837f2f8788117e7eff1d82e926ec794901d17c78024a50270940304540a733656f0d60405160405180910390a45b5050565b6000620002d7836000018373ffffffffffffffffffffffffffffffffffffffff1660001b620002df60201b60201c565b905092915050565b6000620002f383836200035960201b60201c565b6200034e57826000018290806001815401808255809150506001900390600052602060002001600090919091909150558260000180549050836001016000848152602001908152602001600020819055506001905062000353565b600090505b92915050565b600080836001016000848152602001908152602001600020541415905092915050565b828054600181600116156101000203166002900490600052602060002090601f016020900481019282601f10620003bf57805160ff1916838001178555620003f0565b82800160010185558215620003f0579182015b82811115620003ef578251825591602001919060010190620003d2565b5b509050620003ff919062000403565b5090565b6200042891905b80821115620004245760008160009055506001016200040a565b5090565b90565b600082601f8301126200043d57600080fd5b8151620004546200044e8262000633565b62000605565b915080825260208301602083018583830111156200047157600080fd5b6200047e8382846200066b565b50505092915050565b600080604083850312156200049b57600080fd5b600083015167ffffffffffffffff811115620004b657600080fd5b620004c4858286016200042b565b925050602083015167ffffffffffffffff811115620004e257600080fd5b620004f0858286016200042b565b9150509250929050565b600062000509600b8362000660565b91507f5041555345525f524f4c450000000000000000000000000000000000000000006000830152600b82019050919050565b60006200054b600b8362000660565b91507f4d494e5445525f524f4c450000000000000000000000000000000000000000006000830152600b82019050919050565b60006200058d600b8362000660565b91507f41444a5553545f524f4c450000000000000000000000000000000000000000006000830152600b82019050919050565b6000620005cd82620004fa565b9150819050919050565b6000620005e4826200053c565b9150819050919050565b6000620005fb826200057e565b9150819050919050565b6000604051905081810181811067ffffffffffffffff821117156200062957600080fd5b8060405250919050565b600067ffffffffffffffff8211156200064b57600080fd5b601f19601f8301169050602081019050919050565b600081905092915050565b60005b838110156200068b5780820151818401526020810190506200066e565b838111156200069b576000848401525b50505050565b6138b280620006b16000396000f3fe608060405234801561001057600080fd5b50600436106101fb5760003560e01c80637641e6f31161011a578063a457c2d7116100ad578063ca15c8731161007c578063ca15c873146105b2578063d5391393146105e2578063d547741f14610600578063dd62ed3e1461061c578063e63ab1e91461064c576101fb565b8063a457c2d714610516578063a9059cbb14610546578063b0ab396814610576578063b10fe70414610594576101fb565b806391d14854116100e957806391d148541461048e57806395d89b41146104be5780639b308f9e146104dc578063a217fddf146104f8576101fb565b80637641e6f31461041c57806379cc6790146104385780638456cb59146104545780639010d07c1461045e576101fb565b806336568abe1161019257806342966c681161016157806342966c68146103945780635c975abb146103b05780636210ee85146103ce57806370a08231146103ec576101fb565b806336568abe14610322578063395093511461033e5780633f4ba83a1461036e57806340c10f1914610378576101fb565b8063248a9ca3116101ce578063248a9ca31461029c5780632f2ff15d146102cc578063313ce567146102e857806334d4d1ac14610306576101fb565b806306fdde0314610200578063095ea7b31461021e57806318160ddd1461024e57806323b872dd1461026c575b600080fd5b61020861066a565b604051610215919061320d565b60405180910390f35b610238600480360361023391908101906123e0565b61070c565b60405161024591906131d7565b60405180910390f35b61025661072a565b60405161026391906134ef565b60405180910390f35b61028660048036036102819190810190612391565b610734565b60405161029391906131d7565b60405180910390f35b6102b660048036036102b191908101906124af565b61080d565b6040516102c391906131f2565b60405180910390f35b6102e660048036036102e191908101906124d8565b61082c565b005b6102f061089f565b6040516102fd919061357f565b60405180910390f35b610320600480360361031b919081019061241c565b6108b6565b005b61033c600480360361033791908101906124d8565b610ac3565b005b610358600480360361035391908101906123e0565b610b46565b60405161036591906131d7565b60405180910390f35b610376610bf9565b005b610392600480360361038d91908101906123e0565b610c66565b005b6103ae60048036036103a99190810190612550565b610cd7565b005b6103b8610ceb565b6040516103c591906131d7565b60405180910390f35b6103d6610d02565b6040516103e391906131b5565b60405180910390f35b6104066004803603610401919081019061232c565b610ddf565b60405161041391906134ef565b60405180910390f35b61043660048036036104319190810190612579565b610e28565b005b610452600480360361044d91908101906123e0565b610eca565b005b61045c610f2c565b005b61047860048036036104739190810190612514565b610f99565b604051610485919061317f565b60405180910390f35b6104a860048036036104a391908101906124d8565b610fca565b6040516104b591906131d7565b60405180910390f35b6104c6610ffb565b6040516104d3919061320d565b60405180910390f35b6104f660048036036104f191908101906125cd565b61109d565b005b610500611112565b60405161050d91906131f2565b60405180910390f35b610530600480360361052b91908101906123e0565b611119565b60405161053d91906131d7565b60405180910390f35b610560600480360361055b91908101906123e0565b6111e6565b60405161056d91906131d7565b60405180910390f35b61057e611204565b60405161058b91906131f2565b60405180910390f35b61059c61121b565b6040516105a991906131f2565b60405180910390f35b6105cc60048036036105c791908101906124af565b611232565b6040516105d991906134ef565b60405180910390f35b6105ea611258565b6040516105f791906131f2565b60405180910390f35b61061a600480360361061591908101906124d8565b61126f565b005b61063660048036036106319190810190612355565b6112e2565b60405161064391906134ef565b60405180910390f35b610654611369565b60405161066191906131f2565b60405180910390f35b606060048054600181600116156101000203166002900480601f0160208091040260200160405190810160405280929190818152602001828054600181600116156101000203166002900480156107025780601f106106d757610100808354040283529160200191610702565b820191906000526020600020905b8154815290600101906020018083116106e557829003601f168201915b5050505050905090565b6000610720610719611380565b8484611388565b6001905092915050565b6000600354905090565b6000610741848484611553565b6108028461074d611380565b6107fd8560405180606001604052806028815260200161380c60289139600260008b73ffffffffffffffffffffffffffffffffffffffff1673ffffffffffffffffffffffffffffffffffffffff16815260200190815260200160002060006107b3611380565b73ffffffffffffffffffffffffffffffffffffffff1673ffffffffffffffffffffffffffffffffffffffff168152602001908152602001600020546117ec9092919063ffffffff16565b611388565b600190509392505050565b6000806000838152602001908152602001600020600201549050919050565b6108526000808481526020019081526020016000206002015461084d611380565b610fca565b610891576040517f08c379a00000000000000000000000000000000000000000000000000000000081526004016108889061328f565b60405180910390fd5b61089b8282611847565b5050565b6000600660009054906101000a900460ff16905090565b6013548310156108fb576040517f08c379a00000000000000000000000000000000000000000000000000000000081526004016108f29061342f565b60405180910390fd5b61091f60405161090a9061316a565b604051809103902061091a611380565b610fca565b61095e576040517f08c379a00000000000000000000000000000000000000000000000000000000081526004016109559061322f565b60405180910390fd5b60008090505b601154811015610a17578160405160200161097f91906130fd565b60405160208183030381529060405280519060200120600782600a81106109a257fe5b016040516020016109b39190613114565b604051602081830303815290604052805190602001201415610a0a576040517f08c379a0000000000000000000000000000000000000000000000000000000008152600401610a01906132ef565b60405180910390fd5b8080600101915050610964565b50600060115460125481610a2757fe5b06905081600782600a8110610a3857fe5b019080519060200190610a4c9291906121cc565b50601260008154809291906001019190505550610a6985856111e6565b508473ffffffffffffffffffffffffffffffffffffffff167fdb647366180c7f298da5d34c14b9bb2822ef90bcc27e74c130a6de9072aaa872858585604051610ab49392919061353a565b60405180910390a25050505050565b610acb611380565b73ffffffffffffffffffffffffffffffffffffffff168173ffffffffffffffffffffffffffffffffffffffff1614610b38576040517f08c379a0000000000000000000000000000000000000000000000000000000008152600401610b2f9061348f565b60405180910390fd5b610b4282826118da565b5050565b6000610bef610b53611380565b84610bea8560026000610b64611380565b73ffffffffffffffffffffffffffffffffffffffff1673ffffffffffffffffffffffffffffffffffffffff16815260200190815260200160002060008973ffffffffffffffffffffffffffffffffffffffff1673ffffffffffffffffffffffffffffffffffffffff1681526020019081526020016000205461196d90919063ffffffff16565b611388565b6001905092915050565b610c1d604051610c089061312b565b6040518091039020610c18611380565b610fca565b610c5c576040517f08c379a0000000000000000000000000000000000000000000000000000000008152600401610c53906132cf565b60405180910390fd5b610c646119c2565b565b610c8a604051610c7590613140565b6040518091039020610c85611380565b610fca565b610cc9576040517f08c379a0000000000000000000000000000000000000000000000000000000008152600401610cc0906133cf565b60405180910390fd5b610cd38282611a6c565b5050565b610ce8610ce2611380565b82611c02565b50565b6000600660019054906101000a900460ff16905090565b610d0a61224c565b6007600a80602002604051908101604052809291906000905b82821015610dd6578382018054600181600116156101000203166002900480601f016020809104026020016040519081016040528092919081815260200182805460018160011615610100020316600290048015610dc25780601f10610d9757610100808354040283529160200191610dc2565b820191906000526020600020905b815481529060010190602001808311610da557829003601f168201915b505050505081526020019060010190610d23565b50505050905090565b6000600160008373ffffffffffffffffffffffffffffffffffffffff1673ffffffffffffffffffffffffffffffffffffffff168152602001908152602001600020549050919050565b601454821015610e6d576040517f08c379a0000000000000000000000000000000000000000000000000000000008152600401610e649061336f565b60405180910390fd5b610e7682610cd7565b3373ffffffffffffffffffffffffffffffffffffffff167f47e772fda56eb54ab211642ce5421882c49fc2b7033455982af14588ae4207ff8383604051610ebe92919061350a565b60405180910390a25050565b6000610f098260405180606001604052806024815260200161383460249139610efa86610ef5611380565b6112e2565b6117ec9092919063ffffffff16565b9050610f1d83610f17611380565b83611388565b610f278383611c02565b505050565b610f50604051610f3b9061312b565b6040518091039020610f4b611380565b610fca565b610f8f576040517f08c379a0000000000000000000000000000000000000000000000000000000008152600401610f869061346f565b60405180910390fd5b610f97611db2565b565b6000610fc282600080868152602001908152602001600020600001611e5d90919063ffffffff16565b905092915050565b6000610ff382600080868152602001908152602001600020600001611e7790919063ffffffff16565b905092915050565b606060058054600181600116156101000203166002900480601f0160208091040260200160405190810160405280929190818152602001828054600181600116156101000203166002900480156110935780601f1061106857610100808354040283529160200191611093565b820191906000526020600020905b81548152906001019060200180831161107657829003601f168201915b5050505050905090565b6110c16040516110ac90613155565b60405180910390206110bc611380565b610fca565b611100576040517f08c379a00000000000000000000000000000000000000000000000000000000081526004016110f79061334f565b60405180910390fd5b80601381905550816014819055505050565b6000801b81565b60006111dc611126611380565b846111d7856040518060600160405280602581526020016138586025913960026000611150611380565b73ffffffffffffffffffffffffffffffffffffffff1673ffffffffffffffffffffffffffffffffffffffff16815260200190815260200160002060008a73ffffffffffffffffffffffffffffffffffffffff1673ffffffffffffffffffffffffffffffffffffffff168152602001908152602001600020546117ec9092919063ffffffff16565b611388565b6001905092915050565b60006111fa6111f3611380565b8484611553565b6001905092915050565b60405161121090613155565b604051809103902081565b6040516112279061316a565b604051809103902081565b6000611251600080848152602001908152602001600020600001611ea7565b9050919050565b60405161126490613140565b604051809103902081565b61129560008084815260200190815260200160002060020154611290611380565b610fca565b6112d4576040517f08c379a00000000000000000000000000000000000000000000000000000000081526004016112cb9061338f565b60405180910390fd5b6112de82826118da565b5050565b6000600260008473ffffffffffffffffffffffffffffffffffffffff1673ffffffffffffffffffffffffffffffffffffffff16815260200190815260200160002060008373ffffffffffffffffffffffffffffffffffffffff1673ffffffffffffffffffffffffffffffffffffffff16815260200190815260200160002054905092915050565b6040516113759061312b565b604051809103902081565b600033905090565b600073ffffffffffffffffffffffffffffffffffffffff168373ffffffffffffffffffffffffffffffffffffffff1614156113f8576040517f08c379a00000000000000000000000000000000000000000000000000000000081526004016113ef9061344f565b60405180910390fd5b600073ffffffffffffffffffffffffffffffffffffffff168273ffffffffffffffffffffffffffffffffffffffff161415611468576040517f08c379a000000000000000000000000000000000000000000000000000000000815260040161145f9061330f565b60405180910390fd5b80600260008573ffffffffffffffffffffffffffffffffffffffff1673ffffffffffffffffffffffffffffffffffffffff16815260200190815260200160002060008473ffffffffffffffffffffffffffffffffffffffff1673ffffffffffffffffffffffffffffffffffffffff168152602001908152602001600020819055508173ffffffffffffffffffffffffffffffffffffffff168373ffffffffffffffffffffffffffffffffffffffff167f8c5be1e5ebec7d5bd14f71427d1e84f3dd0314c0f7b2291e5b200ac8c7c3b9258360405161154691906134ef565b60405180910390a3505050565b600073ffffffffffffffffffffffffffffffffffffffff168373ffffffffffffffffffffffffffffffffffffffff1614156115c3576040517f08c379a00000000000000000000000000000000000000000000000000000000081526004016115ba9061340f565b60405180910390fd5b600073ffffffffffffffffffffffffffffffffffffffff168273ffffffffffffffffffffffffffffffffffffffff161415611633576040517f08c379a000000000000000000000000000000000000000000000000000000000815260040161162a9061326f565b60405180910390fd5b61163e838383611ebc565b6116aa816040518060600160405280602681526020016137e660269139600160008773ffffffffffffffffffffffffffffffffffffffff1673ffffffffffffffffffffffffffffffffffffffff168152602001908152602001600020546117ec9092919063ffffffff16565b600160008573ffffffffffffffffffffffffffffffffffffffff1673ffffffffffffffffffffffffffffffffffffffff1681526020019081526020016000208190555061173f81600160008573ffffffffffffffffffffffffffffffffffffffff1673ffffffffffffffffffffffffffffffffffffffff1681526020019081526020016000205461196d90919063ffffffff16565b600160008473ffffffffffffffffffffffffffffffffffffffff1673ffffffffffffffffffffffffffffffffffffffff168152602001908152602001600020819055508173ffffffffffffffffffffffffffffffffffffffff168373ffffffffffffffffffffffffffffffffffffffff167fddf252ad1be2c89b69c2b068fc378daa952ba7f163c4a11628f55a4df523b3ef836040516117df91906134ef565b60405180910390a3505050565b6000838311158290611834576040517f08c379a000000000000000000000000000000000000000000000000000000000815260040161182b919061320d565b60405180910390fd5b5060008385039050809150509392505050565b61186e81600080858152602001908152602001600020600001611ecc90919063ffffffff16565b156118d65761187b611380565b73ffffffffffffffffffffffffffffffffffffffff168173ffffffffffffffffffffffffffffffffffffffff16837f2f8788117e7eff1d82e926ec794901d17c78024a50270940304540a733656f0d60405160405180910390a45b5050565b61190181600080858152602001908152602001600020600001611efc90919063ffffffff16565b156119695761190e611380565b73ffffffffffffffffffffffffffffffffffffffff168173ffffffffffffffffffffffffffffffffffffffff16837ff6391f5c32d9c69d2a47ea670b442974b53935d1edc7fd64eb21e047a839171b60405160405180910390a45b5050565b6000808284019050838110156119b8576040517f08c379a00000000000000000000000000000000000000000000000000000000081526004016119af9061332f565b60405180910390fd5b8091505092915050565b600660019054906101000a900460ff16611a11576040517f08c379a0000000000000000000000000000000000000000000000000000000008152600401611a08906132af565b60405180910390fd5b6000600660016101000a81548160ff0219169083151502179055507f5db9ee0a495bf2e6ff9c91a7834c1ba4fdd244a5e8aa4e537bd38aeae4b073aa611a55611380565b604051611a62919061319a565b60405180910390a1565b600073ffffffffffffffffffffffffffffffffffffffff168273ffffffffffffffffffffffffffffffffffffffff161415611adc576040517f08c379a0000000000000000000000000000000000000000000000000000000008152600401611ad3906134af565b60405180910390fd5b611ae860008383611ebc565b611afd8160035461196d90919063ffffffff16565b600381905550611b5581600160008573ffffffffffffffffffffffffffffffffffffffff1673ffffffffffffffffffffffffffffffffffffffff1681526020019081526020016000205461196d90919063ffffffff16565b600160008473ffffffffffffffffffffffffffffffffffffffff1673ffffffffffffffffffffffffffffffffffffffff168152602001908152602001600020819055508173ffffffffffffffffffffffffffffffffffffffff16600073ffffffffffffffffffffffffffffffffffffffff167fddf252ad1be2c89b69c2b068fc378daa952ba7f163c4a11628f55a4df523b3ef83604051611bf691906134ef565b60405180910390a35050565b600073ffffffffffffffffffffffffffffffffffffffff168273ffffffffffffffffffffffffffffffffffffffff161415611c72576040517f08c379a0000000000000000000000000000000000000000000000000000000008152600401611c69906133ef565b60405180910390fd5b611c7e82600083611ebc565b611cea816040518060600160405280602281526020016137c460229139600160008673ffffffffffffffffffffffffffffffffffffffff1673ffffffffffffffffffffffffffffffffffffffff168152602001908152602001600020546117ec9092919063ffffffff16565b600160008473ffffffffffffffffffffffffffffffffffffffff1673ffffffffffffffffffffffffffffffffffffffff16815260200190815260200160002081905550611d4281600354611f2c90919063ffffffff16565b600381905550600073ffffffffffffffffffffffffffffffffffffffff168273ffffffffffffffffffffffffffffffffffffffff167fddf252ad1be2c89b69c2b068fc378daa952ba7f163c4a11628f55a4df523b3ef83604051611da691906134ef565b60405180910390a35050565b600660019054906101000a900460ff1615611e02576040517f08c379a0000000000000000000000000000000000000000000000000000000008152600401611df9906133af565b60405180910390fd5b6001600660016101000a81548160ff0219169083151502179055507f62e78cea01bee320cd4e420270b5ea74000d11b0c9f74754ebdbfc544b05a258611e46611380565b604051611e53919061319a565b60405180910390a1565b6000611e6c8360000183611f76565b60001c905092915050565b6000611e9f836000018373ffffffffffffffffffffffffffffffffffffffff1660001b611fe3565b905092915050565b6000611eb582600001612006565b9050919050565b611ec7838383612017565b505050565b6000611ef4836000018373ffffffffffffffffffffffffffffffffffffffff1660001b61206f565b905092915050565b6000611f24836000018373ffffffffffffffffffffffffffffffffffffffff1660001b6120df565b905092915050565b6000611f6e83836040518060400160405280601e81526020017f536166654d6174683a207375627472616374696f6e206f766572666c6f7700008152506117ec565b905092915050565b600081836000018054905011611fc1576040517f08c379a0000000000000000000000000000000000000000000000000000000008152600401611fb89061324f565b60405180910390fd5b826000018281548110611fd057fe5b9060005260206000200154905092915050565b600080836001016000848152602001908152602001600020541415905092915050565b600081600001805490509050919050565b6120228383836121c7565b61202a610ceb565b1561206a576040517f08c379a0000000000000000000000000000000000000000000000000000000008152600401612061906134cf565b60405180910390fd5b505050565b600061207b8383611fe3565b6120d45782600001829080600181540180825580915050600190039060005260206000200160009091909190915055826000018054905083600101600084815260200190815260200160002081905550600190506120d9565b600090505b92915050565b600080836001016000848152602001908152602001600020549050600081146121bb576000600182039050600060018660000180549050039050600086600001828154811061212a57fe5b906000526020600020015490508087600001848154811061214757fe5b906000526020600020018190555060018301876001016000838152602001908152602001600020819055508660000180548061217f57fe5b600190038181906000526020600020016000905590558660010160008781526020019081526020016000206000905560019450505050506121c1565b60009150505b92915050565b505050565b828054600181600116156101000203166002900490600052602060002090601f016020900481019282601f1061220d57805160ff191683800117855561223b565b8280016001018555821561223b579182015b8281111561223a57825182559160200191906001019061221f565b5b5090506122489190612274565b5090565b604051806101400160405280600a905b606081526020019060019003908161225c5790505090565b61229691905b8082111561229257600081600090555060010161227a565b5090565b90565b6000813590506122a881613760565b92915050565b6000813590506122bd81613777565b92915050565b600082601f8301126122d457600080fd5b81356122e76122e2826135c7565b61359a565b9150808252602083016020830185838301111561230357600080fd5b61230e83828461370d565b50505092915050565b6000813590506123268161378e565b92915050565b60006020828403121561233e57600080fd5b600061234c84828501612299565b91505092915050565b6000806040838503121561236857600080fd5b600061237685828601612299565b925050602061238785828601612299565b9150509250929050565b6000806000606084860312156123a657600080fd5b60006123b486828701612299565b93505060206123c586828701612299565b92505060406123d686828701612317565b9150509250925092565b600080604083850312156123f357600080fd5b600061240185828601612299565b925050602061241285828601612317565b9150509250929050565b6000806000806080858703121561243257600080fd5b600061244087828801612299565b945050602061245187828801612317565b935050604085013567ffffffffffffffff81111561246e57600080fd5b61247a878288016122c3565b925050606085013567ffffffffffffffff81111561249757600080fd5b6124a3878288016122c3565b91505092959194509250565b6000602082840312156124c157600080fd5b60006124cf848285016122ae565b91505092915050565b600080604083850312156124eb57600080fd5b60006124f9858286016122ae565b925050602061250a85828601612299565b9150509250929050565b6000806040838503121561252757600080fd5b6000612535858286016122ae565b925050602061254685828601612317565b9150509250929050565b60006020828403121561256257600080fd5b600061257084828501612317565b91505092915050565b6000806040838503121561258c57600080fd5b600061259a85828601612317565b925050602083013567ffffffffffffffff8111156125b757600080fd5b6125c3858286016122c3565b9150509250929050565b600080604083850312156125e057600080fd5b60006125ee85828601612317565b92505060206125ff85828601612317565b9150509250929050565b60006126158383612738565b905092915050565b612626816136d7565b82525050565b61263581613678565b82525050565b600061264682613612565b6126508185613640565b935083602082028501612662856135f3565b8060005b8581101561269e578484038952815161267f8582612609565b945061268a83613633565b925060208a01995050600181019050612666565b50829750879550505050505092915050565b6126b98161368a565b82525050565b6126c881613696565b82525050565b60006126d982613628565b6126e3818561365c565b93506126f381856020860161371c565b6126fc8161374f565b840191505092915050565b600061271282613628565b61271c818561366d565b935061272c81856020860161371c565b80840191505092915050565b60006127438261361d565b61274d818561364b565b935061275d81856020860161371c565b6127668161374f565b840191505092915050565b60008154600181166000811461278e57600181146127b3576127f7565b607f600283041661279f818761366d565b955060ff19831686528086019350506127f7565b600282046127c1818761366d565b95506127cc856135fd565b60005b828110156127ee578154818901526001820191506020810190506127cf565b82880195505050505b505092915050565b600061280c60218361365c565b91507f4d75737420686176652064656c6976657220726f6c6520746f2064656c69766560008301527f72000000000000000000000000000000000000000000000000000000000000006020830152604082019050919050565b600061287260228361365c565b91507f456e756d657261626c655365743a20696e646578206f7574206f6620626f756e60008301527f64730000000000000000000000000000000000000000000000000000000000006020830152604082019050919050565b60006128d860238361365c565b91507f45524332303a207472616e7366657220746f20746865207a65726f206164647260008301527f65737300000000000000000000000000000000000000000000000000000000006020830152604082019050919050565b600061293e602f8361365c565b91507f416363657373436f6e74726f6c3a2073656e646572206d75737420626520616e60008301527f2061646d696e20746f206772616e7400000000000000000000000000000000006020830152604082019050919050565b60006129a460148361365c565b91507f5061757361626c653a206e6f74207061757365640000000000000000000000006000830152602082019050919050565b60006129e460398361365c565b91507f45524332305072657365744d696e7465725061757365723a206d75737420686160008301527f76652070617573657220726f6c6520746f20756e7061757365000000000000006020830152604082019050919050565b6000612a4a60148361365c565b91507f54686520747869642068617320657869737465640000000000000000000000006000830152602082019050919050565b6000612a8a60228361365c565b91507f45524332303a20617070726f766520746f20746865207a65726f20616464726560008301527f73730000000000000000000000000000000000000000000000000000000000006020830152604082019050919050565b6000612af0601b8361365c565b91507f536166654d6174683a206164646974696f6e206f766572666c6f7700000000006000830152602082019050919050565b6000612b3060148361365c565b91507f41646a75737420726f6c652072657175697265640000000000000000000000006000830152602082019050919050565b6000612b70602e8361365c565b91507f546865206d696e696d756d2076616c7565206d7573742062652067726561746560008301527f72207468616e206d696e4275726e0000000000000000000000000000000000006020830152604082019050919050565b6000612bd660308361365c565b91507f416363657373436f6e74726f6c3a2073656e646572206d75737420626520616e60008301527f2061646d696e20746f207265766f6b65000000000000000000000000000000006020830152604082019050919050565b6000612c3c600b8361366d565b91507f5041555345525f524f4c450000000000000000000000000000000000000000006000830152600b82019050919050565b6000612c7c60108361365c565b91507f5061757361626c653a20706175736564000000000000000000000000000000006000830152602082019050919050565b6000612cbc60368361365c565b91507f45524332305072657365744d696e7465725061757365723a206d75737420686160008301527f7665206d696e74657220726f6c6520746f206d696e74000000000000000000006020830152604082019050919050565b6000612d22600b8361366d565b91507f4d494e5445525f524f4c450000000000000000000000000000000000000000006000830152600b82019050919050565b6000612d6260218361365c565b91507f45524332303a206275726e2066726f6d20746865207a65726f2061646472657360008301527f73000000000000000000000000000000000000000000000000000000000000006020830152604082019050919050565b6000612dc860258361365c565b91507f45524332303a207472616e736665722066726f6d20746865207a65726f20616460008301527f64726573730000000000000000000000000000000000000000000000000000006020830152604082019050919050565b6000612e2e602e8361365c565b91507f546865206d696e696d756d2076616c7565206d7573742062652067726561746560008301527f72207468616e206d696e4d696e740000000000000000000000000000000000006020830152604082019050919050565b6000612e9460248361365c565b91507f45524332303a20617070726f76652066726f6d20746865207a65726f2061646460008301527f72657373000000000000000000000000000000000000000000000000000000006020830152604082019050919050565b6000612efa60378361365c565b91507f45524332305072657365744d696e7465725061757365723a206d75737420686160008301527f76652070617573657220726f6c6520746f2070617573650000000000000000006020830152604082019050919050565b6000612f60600b8361366d565b91507f41444a5553545f524f4c450000000000000000000000000000000000000000006000830152600b82019050919050565b6000612fa0600c8361366d565b91507f44454c495645525f524f4c4500000000000000000000000000000000000000006000830152600c82019050919050565b6000612fe0602f8361365c565b91507f416363657373436f6e74726f6c3a2063616e206f6e6c792072656e6f756e636560008301527f20726f6c657320666f722073656c6600000000000000000000000000000000006020830152604082019050919050565b6000613046601f8361365c565b91507f45524332303a206d696e7420746f20746865207a65726f2061646472657373006000830152602082019050919050565b6000613086602a8361365c565b91507f45524332305061757361626c653a20746f6b656e207472616e7366657220776860008301527f696c6520706175736564000000000000000000000000000000000000000000006020830152604082019050919050565b6130e8816136c0565b82525050565b6130f7816136ca565b82525050565b60006131098284612707565b915081905092915050565b60006131208284612771565b915081905092915050565b600061313682612c2f565b9150819050919050565b600061314b82612d15565b9150819050919050565b600061316082612f53565b9150819050919050565b600061317582612f93565b9150819050919050565b6000602082019050613194600083018461262c565b92915050565b60006020820190506131af600083018461261d565b92915050565b600060208201905081810360008301526131cf818461263b565b905092915050565b60006020820190506131ec60008301846126b0565b92915050565b600060208201905061320760008301846126bf565b92915050565b6000602082019050818103600083015261322781846126ce565b905092915050565b60006020820190508181036000830152613248816127ff565b9050919050565b6000602082019050818103600083015261326881612865565b9050919050565b60006020820190508181036000830152613288816128cb565b9050919050565b600060208201905081810360008301526132a881612931565b9050919050565b600060208201905081810360008301526132c881612997565b9050919050565b600060208201905081810360008301526132e8816129d7565b9050919050565b6000602082019050818103600083015261330881612a3d565b9050919050565b6000602082019050818103600083015261332881612a7d565b9050919050565b6000602082019050818103600083015261334881612ae3565b9050919050565b6000602082019050818103600083015261336881612b23565b9050919050565b6000602082019050818103600083015261338881612b63565b9050919050565b600060208201905081810360008301526133a881612bc9565b9050919050565b600060208201905081810360008301526133c881612c6f565b9050919050565b600060208201905081810360008301526133e881612caf565b9050919050565b6000602082019050818103600083015261340881612d55565b9050919050565b6000602082019050818103600083015261342881612dbb565b9050919050565b6000602082019050818103600083015261344881612e21565b9050919050565b6000602082019050818103600083015261346881612e87565b9050919050565b6000602082019050818103600083015261348881612eed565b9050919050565b600060208201905081810360008301526134a881612fd3565b9050919050565b600060208201905081810360008301526134c881613039565b9050919050565b600060208201905081810360008301526134e881613079565b9050919050565b600060208201905061350460008301846130df565b92915050565b600060408201905061351f60008301856130df565b818103602083015261353181846126ce565b90509392505050565b600060608201905061354f60008301866130df565b818103602083015261356181856126ce565b9050818103604083015261357581846126ce565b9050949350505050565b600060208201905061359460008301846130ee565b92915050565b6000604051905081810181811067ffffffffffffffff821117156135bd57600080fd5b8060405250919050565b600067ffffffffffffffff8211156135de57600080fd5b601f19601f8301169050602081019050919050565b6000819050919050565b60008190508160005260206000209050919050565b6000600a9050919050565b600081519050919050565b600081519050919050565b6000602082019050919050565b600081905092915050565b600082825260208201905092915050565b600082825260208201905092915050565b600081905092915050565b6000613683826136a0565b9050919050565b60008115159050919050565b6000819050919050565b600073ffffffffffffffffffffffffffffffffffffffff82169050919050565b6000819050919050565b600060ff82169050919050565b60006136e2826136e9565b9050919050565b60006136f4826136fb565b9050919050565b6000613706826136a0565b9050919050565b82818337600083830152505050565b60005b8381101561373a57808201518184015260208101905061371f565b83811115613749576000848401525b50505050565b6000601f19601f8301169050919050565b61376981613678565b811461377457600080fd5b50565b61378081613696565b811461378b57600080fd5b50565b613797816136c0565b81146137a257600080fd5b50565b80600660006101000a81548160ff021916908360ff1602179055505056fe45524332303a206275726e20616d6f756e7420657863656564732062616c616e636545524332303a207472616e7366657220616d6f756e7420657863656564732062616c616e636545524332303a207472616e7366657220616d6f756e74206578636565647320616c6c6f77616e636545524332303a206275726e20616d6f756e74206578636565647320616c6c6f77616e636545524332303a2064656372656173656420616c6c6f77616e63652062656c6f77207a65726fa2646970667358221220b8fcec8f85b77ad2f9e3c4bad573a8afc9c92d70cab6551da9a4e843d9a70ffa64736f6c63430006020033",
  "source": "// SPDX-License-Identifier: MIT\n\npragma solidity >=0.4.21 <0.8.0;\npragma experimental ABIEncoderV2;\n\nimport \"@openzeppelin/contracts/presets/ERC20PresetMinterPauser.sol\";\n\ncontract GXC is ERC20PresetMinterPauser {\n    bytes32 public constant ADJUST_ROLE = keccak256(\"ADJUST_ROLE\");\n    bytes32 public constant DELIVER_ROLE = keccak256(\"DELIVER_ROLE\");\n\n    string[10] private txidArray;\n    uint256 arrayLength = 10;\n    uint256 private id;\n\n    uint256 minMint = 50000;\n    uint256 minBurn = 50000;\n\n    uint8 decimals_ = 5;\n\n    event DELIVER(address indexed to, uint256 amount, string from, string txid);\n\n    event Burn(address indexed from, uint256 amount, string to);\n\n    constructor(string memory name, string memory symbol)\n        public\n        ERC20PresetMinterPauser(name, symbol)\n    {\n        super._setupDecimals(decimals_);\n        _setupRole(ADJUST_ROLE, _msgSender());\n    }\n\n\n    function deliver(\n        address to,\n        uint256 amount,\n        string memory from,\n        string memory txid\n    ) public {\n        require(\n            amount >= minMint,\n            \"The minimum value must be greater than minMint\"\n        );\n        require(hasRole(DELIVER_ROLE, _msgSender()), \"Must have deliver role to deliver\");\n        for (uint256 i = 0; i < arrayLength; i++) {\n            require(\n                keccak256(abi.encodePacked(txidArray[i])) !=\n                    keccak256(abi.encodePacked(txid)),\n                \"The txid has existed\"\n            );\n        }\n        uint256 id_number = id % arrayLength;\n        txidArray[id_number] = txid;\n        id++;\n        transfer(to, amount);\n        emit DELIVER(to, amount, from, txid);\n    }\n\n    function burn(uint256 amount, string memory to) public {\n        require(\n            amount >= minBurn,\n            \"The minimum value must be greater than minBurn\"\n        );\n        super.burn(amount);\n        emit Burn(msg.sender, amount, to);\n    }\n\n    function adjustMinNumber(uint256 _burnMin, uint256 _mintMin)\n        public\n        virtual\n    {\n        require(hasRole(ADJUST_ROLE, _msgSender()), \"Adjust role required\");\n        minMint = _mintMin;\n        minBurn = _burnMin;\n    }\n\n    function getTxidArray() public returns (string[10] memory) {\n        return txidArray;\n    }\n}\n",
  "sourcePath": "/Users/bijianing/gxc-solidity/contracts/GXC.sol",
  "compiler": {
    "name": "solc",
    "version": "0.6.2+commit.bacdbe57.Emscripten.clang"
  },
  "schemaVersion": "3.2.3",
  "updatedAt": "2020-08-24T11:37:02.606Z",
  "networkType": "ethereum",
  "devdoc": {
    "methods": {
      "allowance(address,address)": {
        "details": "See {IERC20-allowance}."
      },
      "approve(address,uint256)": {
        "details": "See {IERC20-approve}.     * Requirements:     * - `spender` cannot be the zero address."
      },
      "balanceOf(address)": {
        "details": "See {IERC20-balanceOf}."
      },
      "burn(uint256)": {
        "details": "Destroys `amount` tokens from the caller.     * See {ERC20-_burn}."
      },
      "burnFrom(address,uint256)": {
        "details": "Destroys `amount` tokens from `account`, deducting from the caller's allowance.     * See {ERC20-_burn} and {ERC20-allowance}.     * Requirements:     * - the caller must have allowance for ``accounts``'s tokens of at least `amount`."
      },
      "decimals()": {
        "details": "Returns the number of decimals used to get its user representation. For example, if `decimals` equals `2`, a balance of `505` tokens should be displayed to a user as `5,05` (`505 / 10 ** 2`).     * Tokens usually opt for a value of 18, imitating the relationship between Ether and Wei. This is the value {ERC20} uses, unless {_setupDecimals} is called.     * NOTE: This information is only used for _display_ purposes: it in no way affects any of the arithmetic of the contract, including {IERC20-balanceOf} and {IERC20-transfer}."
      },
      "decreaseAllowance(address,uint256)": {
        "details": "Atomically decreases the allowance granted to `spender` by the caller.     * This is an alternative to {approve} that can be used as a mitigation for problems described in {IERC20-approve}.     * Emits an {Approval} event indicating the updated allowance.     * Requirements:     * - `spender` cannot be the zero address. - `spender` must have allowance for the caller of at least `subtractedValue`."
      },
      "getRoleAdmin(bytes32)": {
        "details": "Returns the admin role that controls `role`. See {grantRole} and {revokeRole}.     * To change a role's admin, use {_setRoleAdmin}."
      },
      "getRoleMember(bytes32,uint256)": {
        "details": "Returns one of the accounts that have `role`. `index` must be a value between 0 and {getRoleMemberCount}, non-inclusive.     * Role bearers are not sorted in any particular way, and their ordering may change at any point.     * WARNING: When using {getRoleMember} and {getRoleMemberCount}, make sure you perform all queries on the same block. See the following https://forum.openzeppelin.com/t/iterating-over-elements-on-enumerableset-in-openzeppelin-contracts/2296[forum post] for more information."
      },
      "getRoleMemberCount(bytes32)": {
        "details": "Returns the number of accounts that have `role`. Can be used together with {getRoleMember} to enumerate all bearers of a role."
      },
      "grantRole(bytes32,address)": {
        "details": "Grants `role` to `account`.     * If `account` had not been already granted `role`, emits a {RoleGranted} event.     * Requirements:     * - the caller must have ``role``'s admin role."
      },
      "hasRole(bytes32,address)": {
        "details": "Returns `true` if `account` has been granted `role`."
      },
      "increaseAllowance(address,uint256)": {
        "details": "Atomically increases the allowance granted to `spender` by the caller.     * This is an alternative to {approve} that can be used as a mitigation for problems described in {IERC20-approve}.     * Emits an {Approval} event indicating the updated allowance.     * Requirements:     * - `spender` cannot be the zero address."
      },
      "mint(address,uint256)": {
        "details": "Creates `amount` new tokens for `to`.     * See {ERC20-_mint}.     * Requirements:     * - the caller must have the `MINTER_ROLE`."
      },
      "name()": {
        "details": "Returns the name of the token."
      },
      "pause()": {
        "details": "Pauses all token transfers.     * See {ERC20Pausable} and {Pausable-_pause}.     * Requirements:     * - the caller must have the `PAUSER_ROLE`."
      },
      "paused()": {
        "details": "Returns true if the contract is paused, and false otherwise."
      },
      "renounceRole(bytes32,address)": {
        "details": "Revokes `role` from the calling account.     * Roles are often managed via {grantRole} and {revokeRole}: this function's purpose is to provide a mechanism for accounts to lose their privileges if they are compromised (such as when a trusted device is misplaced).     * If the calling account had been granted `role`, emits a {RoleRevoked} event.     * Requirements:     * - the caller must be `account`."
      },
      "revokeRole(bytes32,address)": {
        "details": "Revokes `role` from `account`.     * If `account` had been granted `role`, emits a {RoleRevoked} event.     * Requirements:     * - the caller must have ``role``'s admin role."
      },
      "symbol()": {
        "details": "Returns the symbol of the token, usually a shorter version of the name."
      },
      "totalSupply()": {
        "details": "See {IERC20-totalSupply}."
      },
      "transfer(address,uint256)": {
        "details": "See {IERC20-transfer}.     * Requirements:     * - `recipient` cannot be the zero address. - the caller must have a balance of at least `amount`."
      },
      "transferFrom(address,address,uint256)": {
        "details": "See {IERC20-transferFrom}.     * Emits an {Approval} event indicating the updated allowance. This is not required by the EIP. See the note at the beginning of {ERC20};     * Requirements: - `sender` and `recipient` cannot be the zero address. - `sender` must have a balance of at least `amount`. - the caller must have allowance for ``sender``'s tokens of at least `amount`."
      },
      "unpause()": {
        "details": "Unpauses all token transfers.     * See {ERC20Pausable} and {Pausable-_unpause}.     * Requirements:     * - the caller must have the `PAUSER_ROLE`."
      }
    }
  },
  "userdoc": {
    "methods": {}
  }
}