{
  "contractName": "GXC",
  "abi": [
    {
      "inputs": [
        {
          "internalType": "string",
          "name": "name",
          "type": "string"
        },
        {
          "internalType": "string",
          "name": "symbol",
          "type": "string"
        }
      ],
      "stateMutability": "nonpayable",
      "type": "constructor"
    },
    {
      "anonymous": false,
      "inputs": [
        {
          "indexed": true,
          "internalType": "address",
          "name": "owner",
          "type": "address"
        },
        {
          "indexed": true,
          "internalType": "address",
          "name": "spender",
          "type": "address"
        },
        {
          "indexed": false,
          "internalType": "uint256",
          "name": "value",
          "type": "uint256"
        }
      ],
      "name": "Approval",
      "type": "event"
    },
    {
      "anonymous": false,
      "inputs": [
        {
          "indexed": true,
          "internalType": "address",
          "name": "from",
          "type": "address"
        },
        {
          "indexed": false,
          "internalType": "uint256",
          "name": "amount",
          "type": "uint256"
        },
        {
          "indexed": false,
          "internalType": "string",
          "name": "to",
          "type": "string"
        }
      ],
      "name": "Burn",
      "type": "event"
    },
    {
      "anonymous": false,
      "inputs": [
        {
          "indexed": true,
          "internalType": "address",
          "name": "to",
          "type": "address"
        },
        {
          "indexed": false,
          "internalType": "uint256",
          "name": "amount",
          "type": "uint256"
        },
        {
          "indexed": false,
          "internalType": "string",
          "name": "from",
          "type": "string"
        },
        {
          "indexed": false,
          "internalType": "string",
          "name": "txid",
          "type": "string"
        }
      ],
      "name": "Deliver",
      "type": "event"
    },
    {
      "anonymous": false,
      "inputs": [
        {
          "indexed": false,
          "internalType": "address",
          "name": "account",
          "type": "address"
        }
      ],
      "name": "Paused",
      "type": "event"
    },
    {
      "anonymous": false,
      "inputs": [
        {
          "indexed": true,
          "internalType": "bytes32",
          "name": "role",
          "type": "bytes32"
        },
        {
          "indexed": true,
          "internalType": "bytes32",
          "name": "previousAdminRole",
          "type": "bytes32"
        },
        {
          "indexed": true,
          "internalType": "bytes32",
          "name": "newAdminRole",
          "type": "bytes32"
        }
      ],
      "name": "RoleAdminChanged",
      "type": "event"
    },
    {
      "anonymous": false,
      "inputs": [
        {
          "indexed": true,
          "internalType": "bytes32",
          "name": "role",
          "type": "bytes32"
        },
        {
          "indexed": true,
          "internalType": "address",
          "name": "account",
          "type": "address"
        },
        {
          "indexed": true,
          "internalType": "address",
          "name": "sender",
          "type": "address"
        }
      ],
      "name": "RoleGranted",
      "type": "event"
    },
    {
      "anonymous": false,
      "inputs": [
        {
          "indexed": true,
          "internalType": "bytes32",
          "name": "role",
          "type": "bytes32"
        },
        {
          "indexed": true,
          "internalType": "address",
          "name": "account",
          "type": "address"
        },
        {
          "indexed": true,
          "internalType": "address",
          "name": "sender",
          "type": "address"
        }
      ],
      "name": "RoleRevoked",
      "type": "event"
    },
    {
      "anonymous": false,
      "inputs": [
        {
          "indexed": true,
          "internalType": "address",
          "name": "from",
          "type": "address"
        },
        {
          "indexed": true,
          "internalType": "address",
          "name": "to",
          "type": "address"
        },
        {
          "indexed": false,
          "internalType": "uint256",
          "name": "value",
          "type": "uint256"
        }
      ],
      "name": "Transfer",
      "type": "event"
    },
    {
      "anonymous": false,
      "inputs": [
        {
          "indexed": false,
          "internalType": "address",
          "name": "account",
          "type": "address"
        }
      ],
      "name": "Unpaused",
      "type": "event"
    },
    {
      "inputs": [],
      "name": "ADJUST_ROLE",
      "outputs": [
        {
          "internalType": "bytes32",
          "name": "",
          "type": "bytes32"
        }
      ],
      "stateMutability": "view",
      "type": "function",
      "constant": true
    },
    {
      "inputs": [],
      "name": "DEFAULT_ADMIN_ROLE",
      "outputs": [
        {
          "internalType": "bytes32",
          "name": "",
          "type": "bytes32"
        }
      ],
      "stateMutability": "view",
      "type": "function",
      "constant": true
    },
    {
      "inputs": [],
      "name": "DELIVER_ROLE",
      "outputs": [
        {
          "internalType": "bytes32",
          "name": "",
          "type": "bytes32"
        }
      ],
      "stateMutability": "view",
      "type": "function",
      "constant": true
    },
    {
      "inputs": [],
      "name": "MINTER_ROLE",
      "outputs": [
        {
          "internalType": "bytes32",
          "name": "",
          "type": "bytes32"
        }
      ],
      "stateMutability": "view",
      "type": "function",
      "constant": true
    },
    {
      "inputs": [],
      "name": "PAUSER_ROLE",
      "outputs": [
        {
          "internalType": "bytes32",
          "name": "",
          "type": "bytes32"
        }
      ],
      "stateMutability": "view",
      "type": "function",
      "constant": true
    },
    {
      "inputs": [
        {
          "internalType": "address",
          "name": "owner",
          "type": "address"
        },
        {
          "internalType": "address",
          "name": "spender",
          "type": "address"
        }
      ],
      "name": "allowance",
      "outputs": [
        {
          "internalType": "uint256",
          "name": "",
          "type": "uint256"
        }
      ],
      "stateMutability": "view",
      "type": "function",
      "constant": true
    },
    {
      "inputs": [
        {
          "internalType": "address",
          "name": "spender",
          "type": "address"
        },
        {
          "internalType": "uint256",
          "name": "amount",
          "type": "uint256"
        }
      ],
      "name": "approve",
      "outputs": [
        {
          "internalType": "bool",
          "name": "",
          "type": "bool"
        }
      ],
      "stateMutability": "nonpayable",
      "type": "function"
    },
    {
      "inputs": [
        {
          "internalType": "address",
          "name": "account",
          "type": "address"
        }
      ],
      "name": "balanceOf",
      "outputs": [
        {
          "internalType": "uint256",
          "name": "",
          "type": "uint256"
        }
      ],
      "stateMutability": "view",
      "type": "function",
      "constant": true
    },
    {
      "inputs": [
        {
          "internalType": "address",
          "name": "account",
          "type": "address"
        },
        {
          "internalType": "uint256",
          "name": "amount",
          "type": "uint256"
        }
      ],
      "name": "burnFrom",
      "outputs": [],
      "stateMutability": "nonpayable",
      "type": "function"
    },
    {
      "inputs": [],
      "name": "decimals",
      "outputs": [
        {
          "internalType": "uint8",
          "name": "",
          "type": "uint8"
        }
      ],
      "stateMutability": "view",
      "type": "function",
      "constant": true
    },
    {
      "inputs": [
        {
          "internalType": "address",
          "name": "spender",
          "type": "address"
        },
        {
          "internalType": "uint256",
          "name": "subtractedValue",
          "type": "uint256"
        }
      ],
      "name": "decreaseAllowance",
      "outputs": [
        {
          "internalType": "bool",
          "name": "",
          "type": "bool"
        }
      ],
      "stateMutability": "nonpayable",
      "type": "function"
    },
    {
      "inputs": [
        {
          "internalType": "bytes32",
          "name": "role",
          "type": "bytes32"
        }
      ],
      "name": "getRoleAdmin",
      "outputs": [
        {
          "internalType": "bytes32",
          "name": "",
          "type": "bytes32"
        }
      ],
      "stateMutability": "view",
      "type": "function",
      "constant": true
    },
    {
      "inputs": [
        {
          "internalType": "bytes32",
          "name": "role",
          "type": "bytes32"
        },
        {
          "internalType": "uint256",
          "name": "index",
          "type": "uint256"
        }
      ],
      "name": "getRoleMember",
      "outputs": [
        {
          "internalType": "address",
          "name": "",
          "type": "address"
        }
      ],
      "stateMutability": "view",
      "type": "function",
      "constant": true
    },
    {
      "inputs": [
        {
          "internalType": "bytes32",
          "name": "role",
          "type": "bytes32"
        }
      ],
      "name": "getRoleMemberCount",
      "outputs": [
        {
          "internalType": "uint256",
          "name": "",
          "type": "uint256"
        }
      ],
      "stateMutability": "view",
      "type": "function",
      "constant": true
    },
    {
      "inputs": [
        {
          "internalType": "bytes32",
          "name": "role",
          "type": "bytes32"
        },
        {
          "internalType": "address",
          "name": "account",
          "type": "address"
        }
      ],
      "name": "grantRole",
      "outputs": [],
      "stateMutability": "nonpayable",
      "type": "function"
    },
    {
      "inputs": [
        {
          "internalType": "bytes32",
          "name": "role",
          "type": "bytes32"
        },
        {
          "internalType": "address",
          "name": "account",
          "type": "address"
        }
      ],
      "name": "hasRole",
      "outputs": [
        {
          "internalType": "bool",
          "name": "",
          "type": "bool"
        }
      ],
      "stateMutability": "view",
      "type": "function",
      "constant": true
    },
    {
      "inputs": [
        {
          "internalType": "address",
          "name": "spender",
          "type": "address"
        },
        {
          "internalType": "uint256",
          "name": "addedValue",
          "type": "uint256"
        }
      ],
      "name": "increaseAllowance",
      "outputs": [
        {
          "internalType": "bool",
          "name": "",
          "type": "bool"
        }
      ],
      "stateMutability": "nonpayable",
      "type": "function"
    },
    {
      "inputs": [
        {
          "internalType": "address",
          "name": "to",
          "type": "address"
        },
        {
          "internalType": "uint256",
          "name": "amount",
          "type": "uint256"
        }
      ],
      "name": "mint",
      "outputs": [],
      "stateMutability": "nonpayable",
      "type": "function"
    },
    {
      "inputs": [],
      "name": "name",
      "outputs": [
        {
          "internalType": "string",
          "name": "",
          "type": "string"
        }
      ],
      "stateMutability": "view",
      "type": "function",
      "constant": true
    },
    {
      "inputs": [],
      "name": "pause",
      "outputs": [],
      "stateMutability": "nonpayable",
      "type": "function"
    },
    {
      "inputs": [],
      "name": "paused",
      "outputs": [
        {
          "internalType": "bool",
          "name": "",
          "type": "bool"
        }
      ],
      "stateMutability": "view",
      "type": "function",
      "constant": true
    },
    {
      "inputs": [
        {
          "internalType": "bytes32",
          "name": "role",
          "type": "bytes32"
        },
        {
          "internalType": "address",
          "name": "account",
          "type": "address"
        }
      ],
      "name": "renounceRole",
      "outputs": [],
      "stateMutability": "nonpayable",
      "type": "function"
    },
    {
      "inputs": [
        {
          "internalType": "bytes32",
          "name": "role",
          "type": "bytes32"
        },
        {
          "internalType": "address",
          "name": "account",
          "type": "address"
        }
      ],
      "name": "revokeRole",
      "outputs": [],
      "stateMutability": "nonpayable",
      "type": "function"
    },
    {
      "inputs": [],
      "name": "symbol",
      "outputs": [
        {
          "internalType": "string",
          "name": "",
          "type": "string"
        }
      ],
      "stateMutability": "view",
      "type": "function",
      "constant": true
    },
    {
      "inputs": [],
      "name": "totalSupply",
      "outputs": [
        {
          "internalType": "uint256",
          "name": "",
          "type": "uint256"
        }
      ],
      "stateMutability": "view",
      "type": "function",
      "constant": true
    },
    {
      "inputs": [
        {
          "internalType": "address",
          "name": "recipient",
          "type": "address"
        },
        {
          "internalType": "uint256",
          "name": "amount",
          "type": "uint256"
        }
      ],
      "name": "transfer",
      "outputs": [
        {
          "internalType": "bool",
          "name": "",
          "type": "bool"
        }
      ],
      "stateMutability": "nonpayable",
      "type": "function"
    },
    {
      "inputs": [
        {
          "internalType": "address",
          "name": "sender",
          "type": "address"
        },
        {
          "internalType": "address",
          "name": "recipient",
          "type": "address"
        },
        {
          "internalType": "uint256",
          "name": "amount",
          "type": "uint256"
        }
      ],
      "name": "transferFrom",
      "outputs": [
        {
          "internalType": "bool",
          "name": "",
          "type": "bool"
        }
      ],
      "stateMutability": "nonpayable",
      "type": "function"
    },
    {
      "inputs": [],
      "name": "unpause",
      "outputs": [],
      "stateMutability": "nonpayable",
      "type": "function"
    },
    {
      "inputs": [
        {
          "internalType": "address",
          "name": "to",
          "type": "address"
        },
        {
          "internalType": "uint256",
          "name": "amount",
          "type": "uint256"
        },
        {
          "internalType": "string",
          "name": "from",
          "type": "string"
        },
        {
          "internalType": "string",
          "name": "txid",
          "type": "string"
        }
      ],
      "name": "deliver",
      "outputs": [],
      "stateMutability": "nonpayable",
      "type": "function"
    },
    {
      "inputs": [
        {
          "internalType": "uint256",
          "name": "amount",
          "type": "uint256"
        }
      ],
      "name": "burn",
      "outputs": [],
      "stateMutability": "nonpayable",
      "type": "function"
    },
    {
      "inputs": [
        {
          "internalType": "uint256",
          "name": "amount",
          "type": "uint256"
        },
        {
          "internalType": "string",
          "name": "to",
          "type": "string"
        }
      ],
      "name": "burn",
      "outputs": [],
      "stateMutability": "nonpayable",
      "type": "function"
    },
    {
      "inputs": [
        {
          "internalType": "uint256",
          "name": "minDeliver",
          "type": "uint256"
        },
        {
          "internalType": "uint256",
          "name": "minBurn",
          "type": "uint256"
        }
      ],
      "name": "adjustParams",
      "outputs": [],
      "stateMutability": "nonpayable",
      "type": "function"
    },
    {
      "inputs": [],
      "name": "getParams",
      "outputs": [
        {
          "internalType": "uint256",
          "name": "",
          "type": "uint256"
        },
        {
          "internalType": "uint256",
          "name": "",
          "type": "uint256"
        }
      ],
      "stateMutability": "view",
      "type": "function",
      "constant": true
    },
    {
      "inputs": [],
      "name": "getTxids",
      "outputs": [
        {
          "internalType": "string[100]",
          "name": "",
          "type": "string[100]"
        }
      ],
      "stateMutability": "view",
      "type": "function",
      "constant": true
    }
  ],
  "bytecode": "0x60806040526064606b5561c350606d5561c350606e556005606f60006101000a81548160ff021916908360ff1602179055503480156200003e57600080fd5b5060405162003fc738038062003fc7833981810160405262000064919081019062000487565b818181818160049080519060200190620000809291906200037c565b508060059080519060200190620000999291906200037c565b506012600660006101000a81548160ff021916908360ff16021790555050506000600660016101000a81548160ff021916908315150217905550620000f76000801b620000eb620001c860201b60201c565b620001d060201b60201c565b6200012d6040516200010990620005d7565b604051809103902062000121620001c860201b60201c565b620001d060201b60201c565b620001636040516200013f90620005c0565b604051809103902062000157620001c860201b60201c565b620001d060201b60201c565b50506200018a606f60009054906101000a900460ff16620001e660201b620038091760201c565b620001c06040516200019c90620005ee565b6040518091039020620001b4620001c860201b60201c565b620001d060201b60201c565b5050620006a1565b600033905090565b620001e282826200020460201b60201c565b5050565b80600660006101000a81548160ff021916908360ff16021790555050565b6200023281600080858152602001908152602001600020600001620002a760201b62001f071790919060201c565b15620002a35762000248620001c860201b60201c565b73ffffffffffffffffffffffffffffffffffffffff168173ffffffffffffffffffffffffffffffffffffffff16837f2f8788117e7eff1d82e926ec794901d17c78024a50270940304540a733656f0d60405160405180910390a45b5050565b6000620002d7836000018373ffffffffffffffffffffffffffffffffffffffff1660001b620002df60201b60201c565b905092915050565b6000620002f383836200035960201b60201c565b6200034e57826000018290806001815401808255809150506001900390600052602060002001600090919091909150558260000180549050836001016000848152602001908152602001600020819055506001905062000353565b600090505b92915050565b600080836001016000848152602001908152602001600020541415905092915050565b828054600181600116156101000203166002900490600052602060002090601f016020900481019282601f10620003bf57805160ff1916838001178555620003f0565b82800160010185558215620003f0579182015b82811115620003ef578251825591602001919060010190620003d2565b5b509050620003ff919062000403565b5090565b6200042891905b80821115620004245760008160009055506001016200040a565b5090565b90565b600082601f8301126200043d57600080fd5b8151620004546200044e8262000633565b62000605565b915080825260208301602083018583830111156200047157600080fd5b6200047e8382846200066b565b50505092915050565b600080604083850312156200049b57600080fd5b600083015167ffffffffffffffff811115620004b657600080fd5b620004c4858286016200042b565b925050602083015167ffffffffffffffff811115620004e257600080fd5b620004f0858286016200042b565b9150509250929050565b600062000509600b8362000660565b91507f5041555345525f524f4c450000000000000000000000000000000000000000006000830152600b82019050919050565b60006200054b600b8362000660565b91507f4d494e5445525f524f4c450000000000000000000000000000000000000000006000830152600b82019050919050565b60006200058d600b8362000660565b91507f41444a5553545f524f4c450000000000000000000000000000000000000000006000830152600b82019050919050565b6000620005cd82620004fa565b9150819050919050565b6000620005e4826200053c565b9150819050919050565b6000620005fb826200057e565b9150819050919050565b6000604051905081810181811067ffffffffffffffff821117156200062957600080fd5b8060405250919050565b600067ffffffffffffffff8211156200064b57600080fd5b601f19601f8301169050602081019050919050565b600081905092915050565b60005b838110156200068b5780820151818401526020810190506200066e565b838111156200069b576000848401525b50505050565b61391680620006b16000396000f3fe608060405234801561001057600080fd5b50600436106102065760003560e01c80637641e6f31161011a578063a9059cbb116100ad578063d336abab1161007c578063d336abab146105ee578063d53913931461060c578063d547741f1461062a578063dd62ed3e14610646578063e63ab1e91461067657610206565b8063a9059cbb14610552578063b0ab396814610582578063b10fe704146105a0578063ca15c873146105be57610206565b806391d14854116100e957806391d14854146104b657806395d89b41146104e6578063a217fddf14610504578063a457c2d71461052257610206565b80637641e6f31461044457806379cc6790146104605780638456cb591461047c5780639010d07c1461048657610206565b806336568abe1161019d57806342966c681161016c57806342966c681461039f5780635c975abb146103bb5780635e615a6b146103d95780637013cc56146103f857806370a082311461041457610206565b806336568abe1461032d57806339509351146103495780633f4ba83a1461037957806340c10f191461038357610206565b8063248a9ca3116101d9578063248a9ca3146102a75780632f2ff15d146102d7578063313ce567146102f357806334d4d1ac1461031157610206565b806306fdde031461020b578063095ea7b31461022957806318160ddd1461025957806323b872dd14610277575b600080fd5b610213610694565b6040516102209190613248565b60405180910390f35b610243600480360361023e919081019061241b565b610736565b6040516102509190613212565b60405180910390f35b610261610754565b60405161026e919061352a565b60405180910390f35b610291600480360361028c91908101906123cc565b61075e565b60405161029e9190613212565b60405180910390f35b6102c160048036036102bc91908101906124ea565b610837565b6040516102ce919061322d565b60405180910390f35b6102f160048036036102ec9190810190612513565b610856565b005b6102fb6108c9565b60405161030891906135e3565b60405180910390f35b61032b60048036036103269190810190612457565b6108e0565b005b61034760048036036103429190810190612513565b610aed565b005b610363600480360361035e919081019061241b565b610b70565b6040516103709190613212565b60405180910390f35b610381610c23565b005b61039d6004803603610398919081019061241b565b610c90565b005b6103b960048036036103b4919081019061258b565b610d01565b005b6103c3610d15565b6040516103d09190613212565b60405180910390f35b6103e1610d2c565b6040516103ef9291906135ba565b60405180910390f35b610412600480360361040d9190810190612608565b610d3d565b005b61042e60048036036104299190810190612367565b610db2565b60405161043b919061352a565b60405180910390f35b61045e600480360361045991908101906125b4565b610dfb565b005b61047a6004803603610475919081019061241b565b610e9d565b005b610484610eff565b005b6104a0600480360361049b919081019061254f565b610f6c565b6040516104ad91906131ba565b60405180910390f35b6104d060048036036104cb9190810190612513565b610f9d565b6040516104dd9190613212565b60405180910390f35b6104ee610fce565b6040516104fb9190613248565b60405180910390f35b61050c611070565b604051610519919061322d565b60405180910390f35b61053c6004803603610537919081019061241b565b611077565b6040516105499190613212565b60405180910390f35b61056c6004803603610567919081019061241b565b611144565b6040516105799190613212565b60405180910390f35b61058a611162565b604051610597919061322d565b60405180910390f35b6105a8611179565b6040516105b5919061322d565b60405180910390f35b6105d860048036036105d391908101906124ea565b611190565b6040516105e5919061352a565b60405180910390f35b6105f66111b6565b60405161060391906131f0565b60405180910390f35b610614611293565b604051610621919061322d565b60405180910390f35b610644600480360361063f9190810190612513565b6112aa565b005b610660600480360361065b9190810190612390565b61131d565b60405161066d919061352a565b60405180910390f35b61067e6113a4565b60405161068b919061322d565b60405180910390f35b606060048054600181600116156101000203166002900480601f01602080910402602001604051908101604052809291908181526020018280546001816001161561010002031660029004801561072c5780601f106107015761010080835404028352916020019161072c565b820191906000526020600020905b81548152906001019060200180831161070f57829003601f168201915b5050505050905090565b600061074a6107436113bb565b84846113c3565b6001905092915050565b6000600354905090565b600061076b84848461158e565b61082c846107776113bb565b6108278560405180606001604052806028815260200161387060289139600260008b73ffffffffffffffffffffffffffffffffffffffff1673ffffffffffffffffffffffffffffffffffffffff16815260200190815260200160002060006107dd6113bb565b73ffffffffffffffffffffffffffffffffffffffff1673ffffffffffffffffffffffffffffffffffffffff168152602001908152602001600020546118279092919063ffffffff16565b6113c3565b600190509392505050565b6000806000838152602001908152602001600020600201549050919050565b61087c600080848152602001908152602001600020600201546108776113bb565b610f9d565b6108bb576040517f08c379a00000000000000000000000000000000000000000000000000000000081526004016108b2906132ea565b60405180910390fd5b6108c58282611882565b5050565b6000600660009054906101000a900460ff16905090565b606d54831015610925576040517f08c379a000000000000000000000000000000000000000000000000000000000815260040161091c906132ca565b60405180910390fd5b610949604051610934906131a5565b60405180910390206109446113bb565b610f9d565b610988576040517f08c379a000000000000000000000000000000000000000000000000000000000815260040161097f9061326a565b60405180910390fd5b60008090505b606b54811015610a4157816040516020016109a99190613138565b60405160208183030381529060405280519060200120600782606481106109cc57fe5b016040516020016109dd919061314f565b604051602081830303815290604052805190602001201415610a34576040517f08c379a0000000000000000000000000000000000000000000000000000000008152600401610a2b9061334a565b60405180910390fd5b808060010191505061098e565b506000606b54606c5481610a5157fe5b0690508160078260648110610a6257fe5b019080519060200190610a76929190612207565b50606c60008154809291906001019190505550610a938585611144565b508473ffffffffffffffffffffffffffffffffffffffff167f2eaa57a9d56759e13e05e8f969287ff64974682a9553833ff7de893eb5d490e7858585604051610ade93929190613575565b60405180910390a25050505050565b610af56113bb565b73ffffffffffffffffffffffffffffffffffffffff168173ffffffffffffffffffffffffffffffffffffffff1614610b62576040517f08c379a0000000000000000000000000000000000000000000000000000000008152600401610b59906134ca565b60405180910390fd5b610b6c8282611915565b5050565b6000610c19610b7d6113bb565b84610c148560026000610b8e6113bb565b73ffffffffffffffffffffffffffffffffffffffff1673ffffffffffffffffffffffffffffffffffffffff16815260200190815260200160002060008973ffffffffffffffffffffffffffffffffffffffff1673ffffffffffffffffffffffffffffffffffffffff168152602001908152602001600020546119a890919063ffffffff16565b6113c3565b6001905092915050565b610c47604051610c3290613166565b6040518091039020610c426113bb565b610f9d565b610c86576040517f08c379a0000000000000000000000000000000000000000000000000000000008152600401610c7d9061332a565b60405180910390fd5b610c8e6119fd565b565b610cb4604051610c9f9061317b565b6040518091039020610caf6113bb565b610f9d565b610cf3576040517f08c379a0000000000000000000000000000000000000000000000000000000008152600401610cea9061342a565b60405180910390fd5b610cfd8282611aa7565b5050565b610d12610d0c6113bb565b82611c3d565b50565b6000600660019054906101000a900460ff16905090565b600080606d54606e54915091509091565b610d61604051610d4c90613190565b6040518091039020610d5c6113bb565b610f9d565b610da0576040517f08c379a0000000000000000000000000000000000000000000000000000000008152600401610d97906133aa565b60405180910390fd5b81606d8190555080606e819055505050565b6000600160008373ffffffffffffffffffffffffffffffffffffffff1673ffffffffffffffffffffffffffffffffffffffff168152602001908152602001600020549050919050565b606e54821015610e40576040517f08c379a0000000000000000000000000000000000000000000000000000000008152600401610e37906133ca565b60405180910390fd5b610e4982610d01565b3373ffffffffffffffffffffffffffffffffffffffff167f47e772fda56eb54ab211642ce5421882c49fc2b7033455982af14588ae4207ff8383604051610e91929190613545565b60405180910390a25050565b6000610edc8260405180606001604052806024815260200161389860249139610ecd86610ec86113bb565b61131d565b6118279092919063ffffffff16565b9050610ef083610eea6113bb565b836113c3565b610efa8383611c3d565b505050565b610f23604051610f0e90613166565b6040518091039020610f1e6113bb565b610f9d565b610f62576040517f08c379a0000000000000000000000000000000000000000000000000000000008152600401610f59906134aa565b60405180910390fd5b610f6a611ded565b565b6000610f9582600080868152602001908152602001600020600001611e9890919063ffffffff16565b905092915050565b6000610fc682600080868152602001908152602001600020600001611eb290919063ffffffff16565b905092915050565b606060058054600181600116156101000203166002900480601f0160208091040260200160405190810160405280929190818152602001828054600181600116156101000203166002900480156110665780601f1061103b57610100808354040283529160200191611066565b820191906000526020600020905b81548152906001019060200180831161104957829003601f168201915b5050505050905090565b6000801b81565b600061113a6110846113bb565b84611135856040518060600160405280602581526020016138bc60259139600260006110ae6113bb565b73ffffffffffffffffffffffffffffffffffffffff1673ffffffffffffffffffffffffffffffffffffffff16815260200190815260200160002060008a73ffffffffffffffffffffffffffffffffffffffff1673ffffffffffffffffffffffffffffffffffffffff168152602001908152602001600020546118279092919063ffffffff16565b6113c3565b6001905092915050565b60006111586111516113bb565b848461158e565b6001905092915050565b60405161116e90613190565b604051809103902081565b604051611185906131a5565b604051809103902081565b60006111af600080848152602001908152602001600020600001611ee2565b9050919050565b6111be612287565b6007606480602002604051908101604052809291906000905b8282101561128a578382018054600181600116156101000203166002900480601f0160208091040260200160405190810160405280929190818152602001828054600181600116156101000203166002900480156112765780601f1061124b57610100808354040283529160200191611276565b820191906000526020600020905b81548152906001019060200180831161125957829003601f168201915b5050505050815260200190600101906111d7565b50505050905090565b60405161129f9061317b565b604051809103902081565b6112d0600080848152602001908152602001600020600201546112cb6113bb565b610f9d565b61130f576040517f08c379a0000000000000000000000000000000000000000000000000000000008152600401611306906133ea565b60405180910390fd5b6113198282611915565b5050565b6000600260008473ffffffffffffffffffffffffffffffffffffffff1673ffffffffffffffffffffffffffffffffffffffff16815260200190815260200160002060008373ffffffffffffffffffffffffffffffffffffffff1673ffffffffffffffffffffffffffffffffffffffff16815260200190815260200160002054905092915050565b6040516113b090613166565b604051809103902081565b600033905090565b600073ffffffffffffffffffffffffffffffffffffffff168373ffffffffffffffffffffffffffffffffffffffff161415611433576040517f08c379a000000000000000000000000000000000000000000000000000000000815260040161142a9061348a565b60405180910390fd5b600073ffffffffffffffffffffffffffffffffffffffff168273ffffffffffffffffffffffffffffffffffffffff1614156114a3576040517f08c379a000000000000000000000000000000000000000000000000000000000815260040161149a9061336a565b60405180910390fd5b80600260008573ffffffffffffffffffffffffffffffffffffffff1673ffffffffffffffffffffffffffffffffffffffff16815260200190815260200160002060008473ffffffffffffffffffffffffffffffffffffffff1673ffffffffffffffffffffffffffffffffffffffff168152602001908152602001600020819055508173ffffffffffffffffffffffffffffffffffffffff168373ffffffffffffffffffffffffffffffffffffffff167f8c5be1e5ebec7d5bd14f71427d1e84f3dd0314c0f7b2291e5b200ac8c7c3b92583604051611581919061352a565b60405180910390a3505050565b600073ffffffffffffffffffffffffffffffffffffffff168373ffffffffffffffffffffffffffffffffffffffff1614156115fe576040517f08c379a00000000000000000000000000000000000000000000000000000000081526004016115f59061346a565b60405180910390fd5b600073ffffffffffffffffffffffffffffffffffffffff168273ffffffffffffffffffffffffffffffffffffffff16141561166e576040517f08c379a0000000000000000000000000000000000000000000000000000000008152600401611665906132aa565b60405180910390fd5b611679838383611ef7565b6116e58160405180606001604052806026815260200161384a60269139600160008773ffffffffffffffffffffffffffffffffffffffff1673ffffffffffffffffffffffffffffffffffffffff168152602001908152602001600020546118279092919063ffffffff16565b600160008573ffffffffffffffffffffffffffffffffffffffff1673ffffffffffffffffffffffffffffffffffffffff1681526020019081526020016000208190555061177a81600160008573ffffffffffffffffffffffffffffffffffffffff1673ffffffffffffffffffffffffffffffffffffffff168152602001908152602001600020546119a890919063ffffffff16565b600160008473ffffffffffffffffffffffffffffffffffffffff1673ffffffffffffffffffffffffffffffffffffffff168152602001908152602001600020819055508173ffffffffffffffffffffffffffffffffffffffff168373ffffffffffffffffffffffffffffffffffffffff167fddf252ad1be2c89b69c2b068fc378daa952ba7f163c4a11628f55a4df523b3ef8360405161181a919061352a565b60405180910390a3505050565b600083831115829061186f576040517f08c379a00000000000000000000000000000000000000000000000000000000081526004016118669190613248565b60405180910390fd5b5060008385039050809150509392505050565b6118a981600080858152602001908152602001600020600001611f0790919063ffffffff16565b15611911576118b66113bb565b73ffffffffffffffffffffffffffffffffffffffff168173ffffffffffffffffffffffffffffffffffffffff16837f2f8788117e7eff1d82e926ec794901d17c78024a50270940304540a733656f0d60405160405180910390a45b5050565b61193c81600080858152602001908152602001600020600001611f3790919063ffffffff16565b156119a4576119496113bb565b73ffffffffffffffffffffffffffffffffffffffff168173ffffffffffffffffffffffffffffffffffffffff16837ff6391f5c32d9c69d2a47ea670b442974b53935d1edc7fd64eb21e047a839171b60405160405180910390a45b5050565b6000808284019050838110156119f3576040517f08c379a00000000000000000000000000000000000000000000000000000000081526004016119ea9061338a565b60405180910390fd5b8091505092915050565b600660019054906101000a900460ff16611a4c576040517f08c379a0000000000000000000000000000000000000000000000000000000008152600401611a439061330a565b60405180910390fd5b6000600660016101000a81548160ff0219169083151502179055507f5db9ee0a495bf2e6ff9c91a7834c1ba4fdd244a5e8aa4e537bd38aeae4b073aa611a906113bb565b604051611a9d91906131d5565b60405180910390a1565b600073ffffffffffffffffffffffffffffffffffffffff168273ffffffffffffffffffffffffffffffffffffffff161415611b17576040517f08c379a0000000000000000000000000000000000000000000000000000000008152600401611b0e906134ea565b60405180910390fd5b611b2360008383611ef7565b611b38816003546119a890919063ffffffff16565b600381905550611b9081600160008573ffffffffffffffffffffffffffffffffffffffff1673ffffffffffffffffffffffffffffffffffffffff168152602001908152602001600020546119a890919063ffffffff16565b600160008473ffffffffffffffffffffffffffffffffffffffff1673ffffffffffffffffffffffffffffffffffffffff168152602001908152602001600020819055508173ffffffffffffffffffffffffffffffffffffffff16600073ffffffffffffffffffffffffffffffffffffffff167fddf252ad1be2c89b69c2b068fc378daa952ba7f163c4a11628f55a4df523b3ef83604051611c31919061352a565b60405180910390a35050565b600073ffffffffffffffffffffffffffffffffffffffff168273ffffffffffffffffffffffffffffffffffffffff161415611cad576040517f08c379a0000000000000000000000000000000000000000000000000000000008152600401611ca49061344a565b60405180910390fd5b611cb982600083611ef7565b611d258160405180606001604052806022815260200161382860229139600160008673ffffffffffffffffffffffffffffffffffffffff1673ffffffffffffffffffffffffffffffffffffffff168152602001908152602001600020546118279092919063ffffffff16565b600160008473ffffffffffffffffffffffffffffffffffffffff1673ffffffffffffffffffffffffffffffffffffffff16815260200190815260200160002081905550611d7d81600354611f6790919063ffffffff16565b600381905550600073ffffffffffffffffffffffffffffffffffffffff168273ffffffffffffffffffffffffffffffffffffffff167fddf252ad1be2c89b69c2b068fc378daa952ba7f163c4a11628f55a4df523b3ef83604051611de1919061352a565b60405180910390a35050565b600660019054906101000a900460ff1615611e3d576040517f08c379a0000000000000000000000000000000000000000000000000000000008152600401611e349061340a565b60405180910390fd5b6001600660016101000a81548160ff0219169083151502179055507f62e78cea01bee320cd4e420270b5ea74000d11b0c9f74754ebdbfc544b05a258611e816113bb565b604051611e8e91906131d5565b60405180910390a1565b6000611ea78360000183611fb1565b60001c905092915050565b6000611eda836000018373ffffffffffffffffffffffffffffffffffffffff1660001b61201e565b905092915050565b6000611ef082600001612041565b9050919050565b611f02838383612052565b505050565b6000611f2f836000018373ffffffffffffffffffffffffffffffffffffffff1660001b6120aa565b905092915050565b6000611f5f836000018373ffffffffffffffffffffffffffffffffffffffff1660001b61211a565b905092915050565b6000611fa983836040518060400160405280601e81526020017f536166654d6174683a207375627472616374696f6e206f766572666c6f770000815250611827565b905092915050565b600081836000018054905011611ffc576040517f08c379a0000000000000000000000000000000000000000000000000000000008152600401611ff39061328a565b60405180910390fd5b82600001828154811061200b57fe5b9060005260206000200154905092915050565b600080836001016000848152602001908152602001600020541415905092915050565b600081600001805490509050919050565b61205d838383612202565b612065610d15565b156120a5576040517f08c379a000000000000000000000000000000000000000000000000000000000815260040161209c9061350a565b60405180910390fd5b505050565b60006120b6838361201e565b61210f578260000182908060018154018082558091505060019003906000526020600020016000909190919091505582600001805490508360010160008481526020019081526020016000208190555060019050612114565b600090505b92915050565b600080836001016000848152602001908152602001600020549050600081146121f6576000600182039050600060018660000180549050039050600086600001828154811061216557fe5b906000526020600020015490508087600001848154811061218257fe5b90600052602060002001819055506001830187600101600083815260200190815260200160002081905550866000018054806121ba57fe5b600190038181906000526020600020016000905590558660010160008781526020019081526020016000206000905560019450505050506121fc565b60009150505b92915050565b505050565b828054600181600116156101000203166002900490600052602060002090601f016020900481019282601f1061224857805160ff1916838001178555612276565b82800160010185558215612276579182015b8281111561227557825182559160200191906001019061225a565b5b50905061228391906122af565b5090565b60405180610c8001604052806064905b60608152602001906001900390816122975790505090565b6122d191905b808211156122cd5760008160009055506001016122b5565b5090565b90565b6000813590506122e3816137c4565b92915050565b6000813590506122f8816137db565b92915050565b600082601f83011261230f57600080fd5b813561232261231d8261362b565b6135fe565b9150808252602083016020830185838301111561233e57600080fd5b612349838284613771565b50505092915050565b600081359050612361816137f2565b92915050565b60006020828403121561237957600080fd5b6000612387848285016122d4565b91505092915050565b600080604083850312156123a357600080fd5b60006123b1858286016122d4565b92505060206123c2858286016122d4565b9150509250929050565b6000806000606084860312156123e157600080fd5b60006123ef868287016122d4565b9350506020612400868287016122d4565b925050604061241186828701612352565b9150509250925092565b6000806040838503121561242e57600080fd5b600061243c858286016122d4565b925050602061244d85828601612352565b9150509250929050565b6000806000806080858703121561246d57600080fd5b600061247b878288016122d4565b945050602061248c87828801612352565b935050604085013567ffffffffffffffff8111156124a957600080fd5b6124b5878288016122fe565b925050606085013567ffffffffffffffff8111156124d257600080fd5b6124de878288016122fe565b91505092959194509250565b6000602082840312156124fc57600080fd5b600061250a848285016122e9565b91505092915050565b6000806040838503121561252657600080fd5b6000612534858286016122e9565b9250506020612545858286016122d4565b9150509250929050565b6000806040838503121561256257600080fd5b6000612570858286016122e9565b925050602061258185828601612352565b9150509250929050565b60006020828403121561259d57600080fd5b60006125ab84828501612352565b91505092915050565b600080604083850312156125c757600080fd5b60006125d585828601612352565b925050602083013567ffffffffffffffff8111156125f257600080fd5b6125fe858286016122fe565b9150509250929050565b6000806040838503121561261b57600080fd5b600061262985828601612352565b925050602061263a85828601612352565b9150509250929050565b60006126508383612773565b905092915050565b6126618161373b565b82525050565b612670816136dc565b82525050565b600061268182613676565b61268b81856136a4565b93508360208202850161269d85613657565b8060005b858110156126d957848403895281516126ba8582612644565b94506126c583613697565b925060208a019950506001810190506126a1565b50829750879550505050505092915050565b6126f4816136ee565b82525050565b612703816136fa565b82525050565b60006127148261368c565b61271e81856136c0565b935061272e818560208601613780565b612737816137b3565b840191505092915050565b600061274d8261368c565b61275781856136d1565b9350612767818560208601613780565b80840191505092915050565b600061277e82613681565b61278881856136af565b9350612798818560208601613780565b6127a1816137b3565b840191505092915050565b6000815460018116600081146127c957600181146127ee57612832565b607f60028304166127da81876136d1565b955060ff1983168652808601935050612832565b600282046127fc81876136d1565b955061280785613661565b60005b828110156128295781548189015260018201915060208101905061280a565b82880195505050505b505092915050565b60006128476021836136c0565b91507f4d75737420686176652064656c6976657220726f6c6520746f2064656c69766560008301527f72000000000000000000000000000000000000000000000000000000000000006020830152604082019050919050565b60006128ad6022836136c0565b91507f456e756d657261626c655365743a20696e646578206f7574206f6620626f756e60008301527f64730000000000000000000000000000000000000000000000000000000000006020830152604082019050919050565b60006129136023836136c0565b91507f45524332303a207472616e7366657220746f20746865207a65726f206164647260008301527f65737300000000000000000000000000000000000000000000000000000000006020830152604082019050919050565b60006129796031836136c0565b91507f546865206d696e696d756d2076616c7565206d7573742062652067726561746560008301527f72207468616e206d696e44656c697665720000000000000000000000000000006020830152604082019050919050565b60006129df602f836136c0565b91507f416363657373436f6e74726f6c3a2073656e646572206d75737420626520616e60008301527f2061646d696e20746f206772616e7400000000000000000000000000000000006020830152604082019050919050565b6000612a456014836136c0565b91507f5061757361626c653a206e6f74207061757365640000000000000000000000006000830152602082019050919050565b6000612a856039836136c0565b91507f45524332305072657365744d696e7465725061757365723a206d75737420686160008301527f76652070617573657220726f6c6520746f20756e7061757365000000000000006020830152604082019050919050565b6000612aeb6014836136c0565b91507f54686520747869642068617320657869737465640000000000000000000000006000830152602082019050919050565b6000612b2b6022836136c0565b91507f45524332303a20617070726f766520746f20746865207a65726f20616464726560008301527f73730000000000000000000000000000000000000000000000000000000000006020830152604082019050919050565b6000612b91601b836136c0565b91507f536166654d6174683a206164646974696f6e206f766572666c6f7700000000006000830152602082019050919050565b6000612bd16014836136c0565b91507f41646a75737420726f6c652072657175697265640000000000000000000000006000830152602082019050919050565b6000612c11602e836136c0565b91507f546865206d696e696d756d2076616c7565206d7573742062652067726561746560008301527f72207468616e206d696e4275726e0000000000000000000000000000000000006020830152604082019050919050565b6000612c776030836136c0565b91507f416363657373436f6e74726f6c3a2073656e646572206d75737420626520616e60008301527f2061646d696e20746f207265766f6b65000000000000000000000000000000006020830152604082019050919050565b6000612cdd600b836136d1565b91507f5041555345525f524f4c450000000000000000000000000000000000000000006000830152600b82019050919050565b6000612d1d6010836136c0565b91507f5061757361626c653a20706175736564000000000000000000000000000000006000830152602082019050919050565b6000612d5d6036836136c0565b91507f45524332305072657365744d696e7465725061757365723a206d75737420686160008301527f7665206d696e74657220726f6c6520746f206d696e74000000000000000000006020830152604082019050919050565b6000612dc3600b836136d1565b91507f4d494e5445525f524f4c450000000000000000000000000000000000000000006000830152600b82019050919050565b6000612e036021836136c0565b91507f45524332303a206275726e2066726f6d20746865207a65726f2061646472657360008301527f73000000000000000000000000000000000000000000000000000000000000006020830152604082019050919050565b6000612e696025836136c0565b91507f45524332303a207472616e736665722066726f6d20746865207a65726f20616460008301527f64726573730000000000000000000000000000000000000000000000000000006020830152604082019050919050565b6000612ecf6024836136c0565b91507f45524332303a20617070726f76652066726f6d20746865207a65726f2061646460008301527f72657373000000000000000000000000000000000000000000000000000000006020830152604082019050919050565b6000612f356037836136c0565b91507f45524332305072657365744d696e7465725061757365723a206d75737420686160008301527f76652070617573657220726f6c6520746f2070617573650000000000000000006020830152604082019050919050565b6000612f9b600b836136d1565b91507f41444a5553545f524f4c450000000000000000000000000000000000000000006000830152600b82019050919050565b6000612fdb600c836136d1565b91507f44454c495645525f524f4c4500000000000000000000000000000000000000006000830152600c82019050919050565b600061301b602f836136c0565b91507f416363657373436f6e74726f6c3a2063616e206f6e6c792072656e6f756e636560008301527f20726f6c657320666f722073656c6600000000000000000000000000000000006020830152604082019050919050565b6000613081601f836136c0565b91507f45524332303a206d696e7420746f20746865207a65726f2061646472657373006000830152602082019050919050565b60006130c1602a836136c0565b91507f45524332305061757361626c653a20746f6b656e207472616e7366657220776860008301527f696c6520706175736564000000000000000000000000000000000000000000006020830152604082019050919050565b61312381613724565b82525050565b6131328161372e565b82525050565b60006131448284612742565b915081905092915050565b600061315b82846127ac565b915081905092915050565b600061317182612cd0565b9150819050919050565b600061318682612db6565b9150819050919050565b600061319b82612f8e565b9150819050919050565b60006131b082612fce565b9150819050919050565b60006020820190506131cf6000830184612667565b92915050565b60006020820190506131ea6000830184612658565b92915050565b6000602082019050818103600083015261320a8184612676565b905092915050565b600060208201905061322760008301846126eb565b92915050565b600060208201905061324260008301846126fa565b92915050565b600060208201905081810360008301526132628184612709565b905092915050565b600060208201905081810360008301526132838161283a565b9050919050565b600060208201905081810360008301526132a3816128a0565b9050919050565b600060208201905081810360008301526132c381612906565b9050919050565b600060208201905081810360008301526132e38161296c565b9050919050565b60006020820190508181036000830152613303816129d2565b9050919050565b6000602082019050818103600083015261332381612a38565b9050919050565b6000602082019050818103600083015261334381612a78565b9050919050565b6000602082019050818103600083015261336381612ade565b9050919050565b6000602082019050818103600083015261338381612b1e565b9050919050565b600060208201905081810360008301526133a381612b84565b9050919050565b600060208201905081810360008301526133c381612bc4565b9050919050565b600060208201905081810360008301526133e381612c04565b9050919050565b6000602082019050818103600083015261340381612c6a565b9050919050565b6000602082019050818103600083015261342381612d10565b9050919050565b6000602082019050818103600083015261344381612d50565b9050919050565b6000602082019050818103600083015261346381612df6565b9050919050565b6000602082019050818103600083015261348381612e5c565b9050919050565b600060208201905081810360008301526134a381612ec2565b9050919050565b600060208201905081810360008301526134c381612f28565b9050919050565b600060208201905081810360008301526134e38161300e565b9050919050565b6000602082019050818103600083015261350381613074565b9050919050565b60006020820190508181036000830152613523816130b4565b9050919050565b600060208201905061353f600083018461311a565b92915050565b600060408201905061355a600083018561311a565b818103602083015261356c8184612709565b90509392505050565b600060608201905061358a600083018661311a565b818103602083015261359c8185612709565b905081810360408301526135b08184612709565b9050949350505050565b60006040820190506135cf600083018561311a565b6135dc602083018461311a565b9392505050565b60006020820190506135f86000830184613129565b92915050565b6000604051905081810181811067ffffffffffffffff8211171561362157600080fd5b8060405250919050565b600067ffffffffffffffff82111561364257600080fd5b601f19601f8301169050602081019050919050565b6000819050919050565b60008190508160005260206000209050919050565b600060649050919050565b600081519050919050565b600081519050919050565b6000602082019050919050565b600081905092915050565b600082825260208201905092915050565b600082825260208201905092915050565b600081905092915050565b60006136e782613704565b9050919050565b60008115159050919050565b6000819050919050565b600073ffffffffffffffffffffffffffffffffffffffff82169050919050565b6000819050919050565b600060ff82169050919050565b60006137468261374d565b9050919050565b60006137588261375f565b9050919050565b600061376a82613704565b9050919050565b82818337600083830152505050565b60005b8381101561379e578082015181840152602081019050613783565b838111156137ad576000848401525b50505050565b6000601f19601f8301169050919050565b6137cd816136dc565b81146137d857600080fd5b50565b6137e4816136fa565b81146137ef57600080fd5b50565b6137fb81613724565b811461380657600080fd5b50565b80600660006101000a81548160ff021916908360ff1602179055505056fe45524332303a206275726e20616d6f756e7420657863656564732062616c616e636545524332303a207472616e7366657220616d6f756e7420657863656564732062616c616e636545524332303a207472616e7366657220616d6f756e74206578636565647320616c6c6f77616e636545524332303a206275726e20616d6f756e74206578636565647320616c6c6f77616e636545524332303a2064656372656173656420616c6c6f77616e63652062656c6f77207a65726fa2646970667358221220ef26a1bfcedc035a96aa6b3ece216a4d135d58e54ae164e2023e6d2815b1014064736f6c63430006020033",
  "source": "// SPDX-License-Identifier: MIT\n\npragma solidity 0.6.2;\npragma experimental ABIEncoderV2;\n\nimport \"@openzeppelin/contracts/presets/ERC20PresetMinterPauser.sol\";\n\ncontract GXC is ERC20PresetMinterPauser {\n    bytes32 public constant ADJUST_ROLE = keccak256(\"ADJUST_ROLE\");\n    bytes32 public constant DELIVER_ROLE = keccak256(\"DELIVER_ROLE\");\n\n    string[100] private txidArray;\n    uint256 arrayLength = 100;\n    uint256 private id;\n\n    uint256 private _minDeliver = 50000;\n    uint256 private _minBurn = 50000;\n\n    uint8 private decimals_ = 5;\n\n    event Deliver(address indexed to, uint256 amount, string from, string txid);\n\n    event Burn(address indexed from, uint256 amount, string to);\n\n    constructor(string memory name, string memory symbol)\n        public\n        ERC20PresetMinterPauser(name, symbol)\n    {\n        super._setupDecimals(decimals_);\n        _setupRole(ADJUST_ROLE, _msgSender());\n    }\n\n\n    function deliver(\n        address to,\n        uint256 amount,\n        string memory from,\n        string memory txid\n    ) public {\n        require(\n            amount >= _minDeliver,\n            \"The minimum value must be greater than minDeliver\"\n        );\n        require(hasRole(DELIVER_ROLE, _msgSender()), \"Must have deliver role to deliver\");\n        for (uint256 i = 0; i < arrayLength; i++) {\n            require(\n                keccak256(abi.encodePacked(txidArray[i])) !=\n                    keccak256(abi.encodePacked(txid)),\n                \"The txid has existed\"\n            );\n        }\n        uint256 id_number = id % arrayLength;\n        txidArray[id_number] = txid;\n        id++;\n        transfer(to, amount);\n        emit Deliver(to, amount, from, txid);\n    }\n\n    function burn(uint256 amount, string memory to) public {\n        require(\n            amount >= _minBurn,\n            \"The minimum value must be greater than minBurn\"\n        );\n        super.burn(amount);\n        emit Burn(msg.sender, amount, to);\n    }\n\n    function adjustParams(uint256 minDeliver , uint256 minBurn)\n        public\n    {\n        require(hasRole(ADJUST_ROLE, _msgSender()), \"Adjust role required\");\n        _minDeliver = minDeliver;\n        _minBurn = minBurn;\n    }\n\n    function getParams() public view returns (uint256 ,uint256){\n        return (_minDeliver, _minBurn);\n    }\n\n    function getTxids() public view returns (string[100] memory) {\n        return txidArray;\n    }\n}\n",
  "sourcePath": "/Users/bijianing/gxc-solidity/contracts/GXC.sol",
  "compiler": {
    "name": "solc",
    "version": "0.6.2+commit.bacdbe57.Emscripten.clang"
  },
  "schemaVersion": "3.2.3",
  "updatedAt": "2020-09-01T12:47:38.508Z",
  "networkType": "ethereum",
  "devdoc": {
    "methods": {
      "allowance(address,address)": {
        "details": "See {IERC20-allowance}."
      },
      "approve(address,uint256)": {
        "details": "See {IERC20-approve}.     * Requirements:     * - `spender` cannot be the zero address."
      },
      "balanceOf(address)": {
        "details": "See {IERC20-balanceOf}."
      },
      "burn(uint256)": {
        "details": "Destroys `amount` tokens from the caller.     * See {ERC20-_burn}."
      },
      "burnFrom(address,uint256)": {
        "details": "Destroys `amount` tokens from `account`, deducting from the caller's allowance.     * See {ERC20-_burn} and {ERC20-allowance}.     * Requirements:     * - the caller must have allowance for ``accounts``'s tokens of at least `amount`."
      },
      "decimals()": {
        "details": "Returns the number of decimals used to get its user representation. For example, if `decimals` equals `2`, a balance of `505` tokens should be displayed to a user as `5,05` (`505 / 10 ** 2`).     * Tokens usually opt for a value of 18, imitating the relationship between Ether and Wei. This is the value {ERC20} uses, unless {_setupDecimals} is called.     * NOTE: This information is only used for _display_ purposes: it in no way affects any of the arithmetic of the contract, including {IERC20-balanceOf} and {IERC20-transfer}."
      },
      "decreaseAllowance(address,uint256)": {
        "details": "Atomically decreases the allowance granted to `spender` by the caller.     * This is an alternative to {approve} that can be used as a mitigation for problems described in {IERC20-approve}.     * Emits an {Approval} event indicating the updated allowance.     * Requirements:     * - `spender` cannot be the zero address. - `spender` must have allowance for the caller of at least `subtractedValue`."
      },
      "getRoleAdmin(bytes32)": {
        "details": "Returns the admin role that controls `role`. See {grantRole} and {revokeRole}.     * To change a role's admin, use {_setRoleAdmin}."
      },
      "getRoleMember(bytes32,uint256)": {
        "details": "Returns one of the accounts that have `role`. `index` must be a value between 0 and {getRoleMemberCount}, non-inclusive.     * Role bearers are not sorted in any particular way, and their ordering may change at any point.     * WARNING: When using {getRoleMember} and {getRoleMemberCount}, make sure you perform all queries on the same block. See the following https://forum.openzeppelin.com/t/iterating-over-elements-on-enumerableset-in-openzeppelin-contracts/2296[forum post] for more information."
      },
      "getRoleMemberCount(bytes32)": {
        "details": "Returns the number of accounts that have `role`. Can be used together with {getRoleMember} to enumerate all bearers of a role."
      },
      "grantRole(bytes32,address)": {
        "details": "Grants `role` to `account`.     * If `account` had not been already granted `role`, emits a {RoleGranted} event.     * Requirements:     * - the caller must have ``role``'s admin role."
      },
      "hasRole(bytes32,address)": {
        "details": "Returns `true` if `account` has been granted `role`."
      },
      "increaseAllowance(address,uint256)": {
        "details": "Atomically increases the allowance granted to `spender` by the caller.     * This is an alternative to {approve} that can be used as a mitigation for problems described in {IERC20-approve}.     * Emits an {Approval} event indicating the updated allowance.     * Requirements:     * - `spender` cannot be the zero address."
      },
      "mint(address,uint256)": {
        "details": "Creates `amount` new tokens for `to`.     * See {ERC20-_mint}.     * Requirements:     * - the caller must have the `MINTER_ROLE`."
      },
      "name()": {
        "details": "Returns the name of the token."
      },
      "pause()": {
        "details": "Pauses all token transfers.     * See {ERC20Pausable} and {Pausable-_pause}.     * Requirements:     * - the caller must have the `PAUSER_ROLE`."
      },
      "paused()": {
        "details": "Returns true if the contract is paused, and false otherwise."
      },
      "renounceRole(bytes32,address)": {
        "details": "Revokes `role` from the calling account.     * Roles are often managed via {grantRole} and {revokeRole}: this function's purpose is to provide a mechanism for accounts to lose their privileges if they are compromised (such as when a trusted device is misplaced).     * If the calling account had been granted `role`, emits a {RoleRevoked} event.     * Requirements:     * - the caller must be `account`."
      },
      "revokeRole(bytes32,address)": {
        "details": "Revokes `role` from `account`.     * If `account` had been granted `role`, emits a {RoleRevoked} event.     * Requirements:     * - the caller must have ``role``'s admin role."
      },
      "symbol()": {
        "details": "Returns the symbol of the token, usually a shorter version of the name."
      },
      "totalSupply()": {
        "details": "See {IERC20-totalSupply}."
      },
      "transfer(address,uint256)": {
        "details": "See {IERC20-transfer}.     * Requirements:     * - `recipient` cannot be the zero address. - the caller must have a balance of at least `amount`."
      },
      "transferFrom(address,address,uint256)": {
        "details": "See {IERC20-transferFrom}.     * Emits an {Approval} event indicating the updated allowance. This is not required by the EIP. See the note at the beginning of {ERC20};     * Requirements: - `sender` and `recipient` cannot be the zero address. - `sender` must have a balance of at least `amount`. - the caller must have allowance for ``sender``'s tokens of at least `amount`."
      },
      "unpause()": {
        "details": "Unpauses all token transfers.     * See {ERC20Pausable} and {Pausable-_unpause}.     * Requirements:     * - the caller must have the `PAUSER_ROLE`."
      }
    }
  },
  "userdoc": {
    "methods": {}
  }
}