{
  "contractName": "GXC",
  "abi": [
    {
      "inputs": [
        {
          "internalType": "string",
          "name": "name",
          "type": "string"
        },
        {
          "internalType": "string",
          "name": "symbol",
          "type": "string"
        }
      ],
      "stateMutability": "nonpayable",
      "type": "constructor"
    },
    {
      "anonymous": false,
      "inputs": [
        {
          "indexed": true,
          "internalType": "address",
          "name": "owner",
          "type": "address"
        },
        {
          "indexed": true,
          "internalType": "address",
          "name": "spender",
          "type": "address"
        },
        {
          "indexed": false,
          "internalType": "uint256",
          "name": "value",
          "type": "uint256"
        }
      ],
      "name": "Approval",
      "type": "event"
    },
    {
      "anonymous": false,
      "inputs": [
        {
          "indexed": true,
          "internalType": "address",
          "name": "from",
          "type": "address"
        },
        {
          "indexed": false,
          "internalType": "uint256",
          "name": "amount",
          "type": "uint256"
        },
        {
          "indexed": false,
          "internalType": "string",
          "name": "to",
          "type": "string"
        }
      ],
      "name": "Burn",
      "type": "event"
    },
    {
      "anonymous": false,
      "inputs": [
        {
          "indexed": true,
          "internalType": "address",
          "name": "to",
          "type": "address"
        },
        {
          "indexed": false,
          "internalType": "uint256",
          "name": "amount",
          "type": "uint256"
        },
        {
          "indexed": false,
          "internalType": "string",
          "name": "from",
          "type": "string"
        },
        {
          "indexed": false,
          "internalType": "string",
          "name": "txid",
          "type": "string"
        }
      ],
      "name": "Mint",
      "type": "event"
    },
    {
      "anonymous": false,
      "inputs": [
        {
          "indexed": false,
          "internalType": "address",
          "name": "account",
          "type": "address"
        }
      ],
      "name": "Paused",
      "type": "event"
    },
    {
      "anonymous": false,
      "inputs": [
        {
          "indexed": true,
          "internalType": "bytes32",
          "name": "role",
          "type": "bytes32"
        },
        {
          "indexed": true,
          "internalType": "bytes32",
          "name": "previousAdminRole",
          "type": "bytes32"
        },
        {
          "indexed": true,
          "internalType": "bytes32",
          "name": "newAdminRole",
          "type": "bytes32"
        }
      ],
      "name": "RoleAdminChanged",
      "type": "event"
    },
    {
      "anonymous": false,
      "inputs": [
        {
          "indexed": true,
          "internalType": "bytes32",
          "name": "role",
          "type": "bytes32"
        },
        {
          "indexed": true,
          "internalType": "address",
          "name": "account",
          "type": "address"
        },
        {
          "indexed": true,
          "internalType": "address",
          "name": "sender",
          "type": "address"
        }
      ],
      "name": "RoleGranted",
      "type": "event"
    },
    {
      "anonymous": false,
      "inputs": [
        {
          "indexed": true,
          "internalType": "bytes32",
          "name": "role",
          "type": "bytes32"
        },
        {
          "indexed": true,
          "internalType": "address",
          "name": "account",
          "type": "address"
        },
        {
          "indexed": true,
          "internalType": "address",
          "name": "sender",
          "type": "address"
        }
      ],
      "name": "RoleRevoked",
      "type": "event"
    },
    {
      "anonymous": false,
      "inputs": [
        {
          "indexed": true,
          "internalType": "address",
          "name": "from",
          "type": "address"
        },
        {
          "indexed": true,
          "internalType": "address",
          "name": "to",
          "type": "address"
        },
        {
          "indexed": false,
          "internalType": "uint256",
          "name": "value",
          "type": "uint256"
        }
      ],
      "name": "Transfer",
      "type": "event"
    },
    {
      "anonymous": false,
      "inputs": [
        {
          "indexed": false,
          "internalType": "address",
          "name": "account",
          "type": "address"
        }
      ],
      "name": "Unpaused",
      "type": "event"
    },
    {
      "inputs": [],
      "name": "ADJUST_ROLE",
      "outputs": [
        {
          "internalType": "bytes32",
          "name": "",
          "type": "bytes32"
        }
      ],
      "stateMutability": "view",
      "type": "function",
      "constant": true
    },
    {
      "inputs": [],
      "name": "DEFAULT_ADMIN_ROLE",
      "outputs": [
        {
          "internalType": "bytes32",
          "name": "",
          "type": "bytes32"
        }
      ],
      "stateMutability": "view",
      "type": "function",
      "constant": true
    },
    {
      "inputs": [],
      "name": "MINTER_ROLE",
      "outputs": [
        {
          "internalType": "bytes32",
          "name": "",
          "type": "bytes32"
        }
      ],
      "stateMutability": "view",
      "type": "function",
      "constant": true
    },
    {
      "inputs": [],
      "name": "PAUSER_ROLE",
      "outputs": [
        {
          "internalType": "bytes32",
          "name": "",
          "type": "bytes32"
        }
      ],
      "stateMutability": "view",
      "type": "function",
      "constant": true
    },
    {
      "inputs": [
        {
          "internalType": "address",
          "name": "owner",
          "type": "address"
        },
        {
          "internalType": "address",
          "name": "spender",
          "type": "address"
        }
      ],
      "name": "allowance",
      "outputs": [
        {
          "internalType": "uint256",
          "name": "",
          "type": "uint256"
        }
      ],
      "stateMutability": "view",
      "type": "function",
      "constant": true
    },
    {
      "inputs": [
        {
          "internalType": "address",
          "name": "spender",
          "type": "address"
        },
        {
          "internalType": "uint256",
          "name": "amount",
          "type": "uint256"
        }
      ],
      "name": "approve",
      "outputs": [
        {
          "internalType": "bool",
          "name": "",
          "type": "bool"
        }
      ],
      "stateMutability": "nonpayable",
      "type": "function"
    },
    {
      "inputs": [
        {
          "internalType": "address",
          "name": "account",
          "type": "address"
        }
      ],
      "name": "balanceOf",
      "outputs": [
        {
          "internalType": "uint256",
          "name": "",
          "type": "uint256"
        }
      ],
      "stateMutability": "view",
      "type": "function",
      "constant": true
    },
    {
      "inputs": [
        {
          "internalType": "address",
          "name": "account",
          "type": "address"
        },
        {
          "internalType": "uint256",
          "name": "amount",
          "type": "uint256"
        }
      ],
      "name": "burnFrom",
      "outputs": [],
      "stateMutability": "nonpayable",
      "type": "function"
    },
    {
      "inputs": [],
      "name": "decimals",
      "outputs": [
        {
          "internalType": "uint8",
          "name": "",
          "type": "uint8"
        }
      ],
      "stateMutability": "view",
      "type": "function",
      "constant": true
    },
    {
      "inputs": [
        {
          "internalType": "address",
          "name": "spender",
          "type": "address"
        },
        {
          "internalType": "uint256",
          "name": "subtractedValue",
          "type": "uint256"
        }
      ],
      "name": "decreaseAllowance",
      "outputs": [
        {
          "internalType": "bool",
          "name": "",
          "type": "bool"
        }
      ],
      "stateMutability": "nonpayable",
      "type": "function"
    },
    {
      "inputs": [
        {
          "internalType": "bytes32",
          "name": "role",
          "type": "bytes32"
        }
      ],
      "name": "getRoleAdmin",
      "outputs": [
        {
          "internalType": "bytes32",
          "name": "",
          "type": "bytes32"
        }
      ],
      "stateMutability": "view",
      "type": "function",
      "constant": true
    },
    {
      "inputs": [
        {
          "internalType": "bytes32",
          "name": "role",
          "type": "bytes32"
        },
        {
          "internalType": "uint256",
          "name": "index",
          "type": "uint256"
        }
      ],
      "name": "getRoleMember",
      "outputs": [
        {
          "internalType": "address",
          "name": "",
          "type": "address"
        }
      ],
      "stateMutability": "view",
      "type": "function",
      "constant": true
    },
    {
      "inputs": [
        {
          "internalType": "bytes32",
          "name": "role",
          "type": "bytes32"
        }
      ],
      "name": "getRoleMemberCount",
      "outputs": [
        {
          "internalType": "uint256",
          "name": "",
          "type": "uint256"
        }
      ],
      "stateMutability": "view",
      "type": "function",
      "constant": true
    },
    {
      "inputs": [
        {
          "internalType": "bytes32",
          "name": "role",
          "type": "bytes32"
        },
        {
          "internalType": "address",
          "name": "account",
          "type": "address"
        }
      ],
      "name": "grantRole",
      "outputs": [],
      "stateMutability": "nonpayable",
      "type": "function"
    },
    {
      "inputs": [
        {
          "internalType": "bytes32",
          "name": "role",
          "type": "bytes32"
        },
        {
          "internalType": "address",
          "name": "account",
          "type": "address"
        }
      ],
      "name": "hasRole",
      "outputs": [
        {
          "internalType": "bool",
          "name": "",
          "type": "bool"
        }
      ],
      "stateMutability": "view",
      "type": "function",
      "constant": true
    },
    {
      "inputs": [
        {
          "internalType": "address",
          "name": "spender",
          "type": "address"
        },
        {
          "internalType": "uint256",
          "name": "addedValue",
          "type": "uint256"
        }
      ],
      "name": "increaseAllowance",
      "outputs": [
        {
          "internalType": "bool",
          "name": "",
          "type": "bool"
        }
      ],
      "stateMutability": "nonpayable",
      "type": "function"
    },
    {
      "inputs": [],
      "name": "name",
      "outputs": [
        {
          "internalType": "string",
          "name": "",
          "type": "string"
        }
      ],
      "stateMutability": "view",
      "type": "function",
      "constant": true
    },
    {
      "inputs": [],
      "name": "pause",
      "outputs": [],
      "stateMutability": "nonpayable",
      "type": "function"
    },
    {
      "inputs": [],
      "name": "paused",
      "outputs": [
        {
          "internalType": "bool",
          "name": "",
          "type": "bool"
        }
      ],
      "stateMutability": "view",
      "type": "function",
      "constant": true
    },
    {
      "inputs": [
        {
          "internalType": "bytes32",
          "name": "role",
          "type": "bytes32"
        },
        {
          "internalType": "address",
          "name": "account",
          "type": "address"
        }
      ],
      "name": "renounceRole",
      "outputs": [],
      "stateMutability": "nonpayable",
      "type": "function"
    },
    {
      "inputs": [
        {
          "internalType": "bytes32",
          "name": "role",
          "type": "bytes32"
        },
        {
          "internalType": "address",
          "name": "account",
          "type": "address"
        }
      ],
      "name": "revokeRole",
      "outputs": [],
      "stateMutability": "nonpayable",
      "type": "function"
    },
    {
      "inputs": [],
      "name": "symbol",
      "outputs": [
        {
          "internalType": "string",
          "name": "",
          "type": "string"
        }
      ],
      "stateMutability": "view",
      "type": "function",
      "constant": true
    },
    {
      "inputs": [],
      "name": "totalSupply",
      "outputs": [
        {
          "internalType": "uint256",
          "name": "",
          "type": "uint256"
        }
      ],
      "stateMutability": "view",
      "type": "function",
      "constant": true
    },
    {
      "inputs": [
        {
          "internalType": "address",
          "name": "recipient",
          "type": "address"
        },
        {
          "internalType": "uint256",
          "name": "amount",
          "type": "uint256"
        }
      ],
      "name": "transfer",
      "outputs": [
        {
          "internalType": "bool",
          "name": "",
          "type": "bool"
        }
      ],
      "stateMutability": "nonpayable",
      "type": "function"
    },
    {
      "inputs": [
        {
          "internalType": "address",
          "name": "sender",
          "type": "address"
        },
        {
          "internalType": "address",
          "name": "recipient",
          "type": "address"
        },
        {
          "internalType": "uint256",
          "name": "amount",
          "type": "uint256"
        }
      ],
      "name": "transferFrom",
      "outputs": [
        {
          "internalType": "bool",
          "name": "",
          "type": "bool"
        }
      ],
      "stateMutability": "nonpayable",
      "type": "function"
    },
    {
      "inputs": [],
      "name": "unpause",
      "outputs": [],
      "stateMutability": "nonpayable",
      "type": "function"
    },
    {
      "inputs": [
        {
          "internalType": "address",
          "name": "to",
          "type": "address"
        },
        {
          "internalType": "uint256",
          "name": "amount",
          "type": "uint256"
        },
        {
          "internalType": "string",
          "name": "from",
          "type": "string"
        },
        {
          "internalType": "string",
          "name": "txid",
          "type": "string"
        }
      ],
      "name": "mint",
      "outputs": [],
      "stateMutability": "nonpayable",
      "type": "function"
    },
    {
      "inputs": [
        {
          "internalType": "address",
          "name": "to",
          "type": "address"
        },
        {
          "internalType": "uint256",
          "name": "amount",
          "type": "uint256"
        }
      ],
      "name": "mint",
      "outputs": [],
      "stateMutability": "nonpayable",
      "type": "function"
    },
    {
      "inputs": [
        {
          "internalType": "uint256",
          "name": "amount",
          "type": "uint256"
        }
      ],
      "name": "burn",
      "outputs": [],
      "stateMutability": "nonpayable",
      "type": "function"
    },
    {
      "inputs": [
        {
          "internalType": "uint256",
          "name": "amount",
          "type": "uint256"
        },
        {
          "internalType": "string",
          "name": "to",
          "type": "string"
        }
      ],
      "name": "burn",
      "outputs": [],
      "stateMutability": "nonpayable",
      "type": "function"
    },
    {
      "inputs": [
        {
          "internalType": "uint256",
          "name": "_burnMin",
          "type": "uint256"
        },
        {
          "internalType": "uint256",
          "name": "_mintMin",
          "type": "uint256"
        }
      ],
      "name": "adjustMinNumber",
      "outputs": [],
      "stateMutability": "nonpayable",
      "type": "function"
    },
    {
      "inputs": [],
      "name": "getTxidArray",
      "outputs": [
        {
          "internalType": "string[10]",
          "name": "",
          "type": "string[10]"
        }
      ],
      "stateMutability": "nonpayable",
      "type": "function"
    }
  ],
  "bytecode": "0x6080604052600a60115561c35060135561c3506014556005601560006101000a81548160ff021916908360ff1602179055503480156200003e57600080fd5b5060405162003de438038062003de4833981810160405262000064919081019062000487565b818181818160049080519060200190620000809291906200037c565b508060059080519060200190620000999291906200037c565b506012600660006101000a81548160ff021916908360ff16021790555050506000600660016101000a81548160ff021916908315150217905550620000f76000801b620000eb620001c860201b60201c565b620001d060201b60201c565b6200012d6040516200010990620005d7565b604051809103902062000121620001c860201b60201c565b620001d060201b60201c565b620001636040516200013f90620005c0565b604051809103902062000157620001c860201b60201c565b620001d060201b60201c565b50506200018a601560009054906101000a900460ff16620001e660201b620036261760201c565b620001c06040516200019c90620005ee565b6040518091039020620001b4620001c860201b60201c565b620001d060201b60201c565b5050620006a1565b600033905090565b620001e282826200020460201b60201c565b5050565b80600660006101000a81548160ff021916908360ff16021790555050565b6200023281600080858152602001908152602001600020600001620002a760201b62001e281790919060201c565b15620002a35762000248620001c860201b60201c565b73ffffffffffffffffffffffffffffffffffffffff168173ffffffffffffffffffffffffffffffffffffffff16837f2f8788117e7eff1d82e926ec794901d17c78024a50270940304540a733656f0d60405160405180910390a45b5050565b6000620002d7836000018373ffffffffffffffffffffffffffffffffffffffff1660001b620002df60201b60201c565b905092915050565b6000620002f383836200035960201b60201c565b6200034e57826000018290806001815401808255809150506001900390600052602060002001600090919091909150558260000180549050836001016000848152602001908152602001600020819055506001905062000353565b600090505b92915050565b600080836001016000848152602001908152602001600020541415905092915050565b828054600181600116156101000203166002900490600052602060002090601f016020900481019282601f10620003bf57805160ff1916838001178555620003f0565b82800160010185558215620003f0579182015b82811115620003ef578251825591602001919060010190620003d2565b5b509050620003ff919062000403565b5090565b6200042891905b80821115620004245760008160009055506001016200040a565b5090565b90565b600082601f8301126200043d57600080fd5b8151620004546200044e8262000633565b62000605565b915080825260208301602083018583830111156200047157600080fd5b6200047e8382846200066b565b50505092915050565b600080604083850312156200049b57600080fd5b600083015167ffffffffffffffff811115620004b657600080fd5b620004c4858286016200042b565b925050602083015167ffffffffffffffff811115620004e257600080fd5b620004f0858286016200042b565b9150509250929050565b600062000509600b8362000660565b91507f5041555345525f524f4c450000000000000000000000000000000000000000006000830152600b82019050919050565b60006200054b600b8362000660565b91507f4d494e5445525f524f4c450000000000000000000000000000000000000000006000830152600b82019050919050565b60006200058d600b8362000660565b91507f41444a5553545f524f4c450000000000000000000000000000000000000000006000830152600b82019050919050565b6000620005cd82620004fa565b9150819050919050565b6000620005e4826200053c565b9150819050919050565b6000620005fb826200057e565b9150819050919050565b6000604051905081810181811067ffffffffffffffff821117156200062957600080fd5b8060405250919050565b600067ffffffffffffffff8211156200064b57600080fd5b601f19601f8301169050602081019050919050565b600081905092915050565b60005b838110156200068b5780820151818401526020810190506200066e565b838111156200069b576000848401525b50505050565b61373380620006b16000396000f3fe608060405234801561001057600080fd5b50600436106101f05760003560e01c80637641e6f31161010f578063a457c2d7116100a2578063d539139311610071578063d5391393146105b9578063d547741f146105d7578063dd62ed3e146105f3578063e63ab1e914610623576101f0565b8063a457c2d71461050b578063a9059cbb1461053b578063b0ab39681461056b578063ca15c87314610589576101f0565b806391d14854116100de57806391d148541461048357806395d89b41146104b35780639b308f9e146104d1578063a217fddf146104ed576101f0565b80637641e6f31461041157806379cc67901461042d5780638456cb59146104495780639010d07c14610453576101f0565b806336568abe1161018757806342966c681161015657806342966c68146103895780635c975abb146103a55780636210ee85146103c357806370a08231146103e1576101f0565b806336568abe1461031757806339509351146103335780633f4ba83a1461036357806340c10f191461036d576101f0565b8063248a9ca3116101c3578063248a9ca3146102915780632f2ff15d146102c15780632fb102cf146102dd578063313ce567146102f9576101f0565b806306fdde03146101f5578063095ea7b31461021357806318160ddd1461024357806323b872dd14610261575b600080fd5b6101fd610641565b60405161020a91906130ae565b60405180910390f35b61022d6004803603610228919081019061233c565b6106e3565b60405161023a9190613078565b60405180910390f35b61024b610701565b6040516102589190613370565b60405180910390f35b61027b600480360361027691908101906122ed565b61070b565b6040516102889190613078565b60405180910390f35b6102ab60048036036102a6919081019061240b565b6107e4565b6040516102b89190613093565b60405180910390f35b6102db60048036036102d69190810190612434565b610803565b005b6102f760048036036102f29190810190612378565b610876565b005b610301610a1f565b60405161030e9190613400565b60405180910390f35b610331600480360361032c9190810190612434565b610a36565b005b61034d6004803603610348919081019061233c565b610ab9565b60405161035a9190613078565b60405180910390f35b61036b610b6c565b005b6103876004803603610382919081019061233c565b610bd9565b005b6103a3600480360361039e91908101906124ac565b610c4a565b005b6103ad610c5e565b6040516103ba9190613078565b60405180910390f35b6103cb610c75565b6040516103d89190613056565b60405180910390f35b6103fb60048036036103f69190810190612288565b610d52565b6040516104089190613370565b60405180910390f35b61042b600480360361042691908101906124d5565b610d9b565b005b6104476004803603610442919081019061233c565b610e3d565b005b610451610e9f565b005b61046d60048036036104689190810190612470565b610f0c565b60405161047a9190613020565b60405180910390f35b61049d60048036036104989190810190612434565b610f3d565b6040516104aa9190613078565b60405180910390f35b6104bb610f6e565b6040516104c891906130ae565b60405180910390f35b6104eb60048036036104e69190810190612529565b611010565b005b6104f5611085565b6040516105029190613093565b60405180910390f35b6105256004803603610520919081019061233c565b61108c565b6040516105329190613078565b60405180910390f35b6105556004803603610550919081019061233c565b611159565b6040516105629190613078565b60405180910390f35b610573611177565b6040516105809190613093565b60405180910390f35b6105a3600480360361059e919081019061240b565b61118e565b6040516105b09190613370565b60405180910390f35b6105c16111b4565b6040516105ce9190613093565b60405180910390f35b6105f160048036036105ec9190810190612434565b6111cb565b005b61060d600480360361060891908101906122b1565b61123e565b60405161061a9190613370565b60405180910390f35b61062b6112c5565b6040516106389190613093565b60405180910390f35b606060048054600181600116156101000203166002900480601f0160208091040260200160405190810160405280929190818152602001828054600181600116156101000203166002900480156106d95780601f106106ae576101008083540402835291602001916106d9565b820191906000526020600020905b8154815290600101906020018083116106bc57829003601f168201915b5050505050905090565b60006106f76106f06112dc565b84846112e4565b6001905092915050565b6000600354905090565b60006107188484846114af565b6107d9846107246112dc565b6107d48560405180606001604052806028815260200161368d60289139600260008b73ffffffffffffffffffffffffffffffffffffffff1673ffffffffffffffffffffffffffffffffffffffff168152602001908152602001600020600061078a6112dc565b73ffffffffffffffffffffffffffffffffffffffff1673ffffffffffffffffffffffffffffffffffffffff168152602001908152602001600020546117489092919063ffffffff16565b6112e4565b600190509392505050565b6000806000838152602001908152602001600020600201549050919050565b610829600080848152602001908152602001600020600201546108246112dc565b610f3d565b610868576040517f08c379a000000000000000000000000000000000000000000000000000000000815260040161085f90613110565b60405180910390fd5b61087282826117a3565b5050565b6013548310156108bb576040517f08c379a00000000000000000000000000000000000000000000000000000000081526004016108b2906132b0565b60405180910390fd5b60008090505b60115481101561097457816040516020016108dc9190612fb3565b60405160208183030381529060405280519060200120600782600a81106108ff57fe5b016040516020016109109190612fca565b604051602081830303815290604052805190602001201415610967576040517f08c379a000000000000000000000000000000000000000000000000000000000815260040161095e90613170565b60405180910390fd5b80806001019150506108c1565b5060006011546012548161098457fe5b06905081600782600a811061099557fe5b0190805190602001906109a9929190612128565b506012600081548092919060010191905055506109c68585610bd9565b8473ffffffffffffffffffffffffffffffffffffffff167ff2cbb0418e3132958dca4cc2e9ab525cf64488dfc7c0eaa45cdeb6c42b30490a858585604051610a10939291906133bb565b60405180910390a25050505050565b6000600660009054906101000a900460ff16905090565b610a3e6112dc565b73ffffffffffffffffffffffffffffffffffffffff168173ffffffffffffffffffffffffffffffffffffffff1614610aab576040517f08c379a0000000000000000000000000000000000000000000000000000000008152600401610aa290613310565b60405180910390fd5b610ab58282611836565b5050565b6000610b62610ac66112dc565b84610b5d8560026000610ad76112dc565b73ffffffffffffffffffffffffffffffffffffffff1673ffffffffffffffffffffffffffffffffffffffff16815260200190815260200160002060008973ffffffffffffffffffffffffffffffffffffffff1673ffffffffffffffffffffffffffffffffffffffff168152602001908152602001600020546118c990919063ffffffff16565b6112e4565b6001905092915050565b610b90604051610b7b90612fe1565b6040518091039020610b8b6112dc565b610f3d565b610bcf576040517f08c379a0000000000000000000000000000000000000000000000000000000008152600401610bc690613150565b60405180910390fd5b610bd761191e565b565b610bfd604051610be890612ff6565b6040518091039020610bf86112dc565b610f3d565b610c3c576040517f08c379a0000000000000000000000000000000000000000000000000000000008152600401610c3390613250565b60405180910390fd5b610c4682826119c8565b5050565b610c5b610c556112dc565b82611b5e565b50565b6000600660019054906101000a900460ff16905090565b610c7d6121a8565b6007600a80602002604051908101604052809291906000905b82821015610d49578382018054600181600116156101000203166002900480601f016020809104026020016040519081016040528092919081815260200182805460018160011615610100020316600290048015610d355780601f10610d0a57610100808354040283529160200191610d35565b820191906000526020600020905b815481529060010190602001808311610d1857829003601f168201915b505050505081526020019060010190610c96565b50505050905090565b6000600160008373ffffffffffffffffffffffffffffffffffffffff1673ffffffffffffffffffffffffffffffffffffffff168152602001908152602001600020549050919050565b601454821015610de0576040517f08c379a0000000000000000000000000000000000000000000000000000000008152600401610dd7906131f0565b60405180910390fd5b610de982610c4a565b3373ffffffffffffffffffffffffffffffffffffffff167f47e772fda56eb54ab211642ce5421882c49fc2b7033455982af14588ae4207ff8383604051610e3192919061338b565b60405180910390a25050565b6000610e7c826040518060600160405280602481526020016136b560249139610e6d86610e686112dc565b61123e565b6117489092919063ffffffff16565b9050610e9083610e8a6112dc565b836112e4565b610e9a8383611b5e565b505050565b610ec3604051610eae90612fe1565b6040518091039020610ebe6112dc565b610f3d565b610f02576040517f08c379a0000000000000000000000000000000000000000000000000000000008152600401610ef9906132f0565b60405180910390fd5b610f0a611d0e565b565b6000610f3582600080868152602001908152602001600020600001611db990919063ffffffff16565b905092915050565b6000610f6682600080868152602001908152602001600020600001611dd390919063ffffffff16565b905092915050565b606060058054600181600116156101000203166002900480601f0160208091040260200160405190810160405280929190818152602001828054600181600116156101000203166002900480156110065780601f10610fdb57610100808354040283529160200191611006565b820191906000526020600020905b815481529060010190602001808311610fe957829003601f168201915b5050505050905090565b61103460405161101f9061300b565b604051809103902061102f6112dc565b610f3d565b611073576040517f08c379a000000000000000000000000000000000000000000000000000000000815260040161106a906131d0565b60405180910390fd5b80601381905550816014819055505050565b6000801b81565b600061114f6110996112dc565b8461114a856040518060600160405280602581526020016136d960259139600260006110c36112dc565b73ffffffffffffffffffffffffffffffffffffffff1673ffffffffffffffffffffffffffffffffffffffff16815260200190815260200160002060008a73ffffffffffffffffffffffffffffffffffffffff1673ffffffffffffffffffffffffffffffffffffffff168152602001908152602001600020546117489092919063ffffffff16565b6112e4565b6001905092915050565b600061116d6111666112dc565b84846114af565b6001905092915050565b6040516111839061300b565b604051809103902081565b60006111ad600080848152602001908152602001600020600001611e03565b9050919050565b6040516111c090612ff6565b604051809103902081565b6111f1600080848152602001908152602001600020600201546111ec6112dc565b610f3d565b611230576040517f08c379a000000000000000000000000000000000000000000000000000000000815260040161122790613210565b60405180910390fd5b61123a8282611836565b5050565b6000600260008473ffffffffffffffffffffffffffffffffffffffff1673ffffffffffffffffffffffffffffffffffffffff16815260200190815260200160002060008373ffffffffffffffffffffffffffffffffffffffff1673ffffffffffffffffffffffffffffffffffffffff16815260200190815260200160002054905092915050565b6040516112d190612fe1565b604051809103902081565b600033905090565b600073ffffffffffffffffffffffffffffffffffffffff168373ffffffffffffffffffffffffffffffffffffffff161415611354576040517f08c379a000000000000000000000000000000000000000000000000000000000815260040161134b906132d0565b60405180910390fd5b600073ffffffffffffffffffffffffffffffffffffffff168273ffffffffffffffffffffffffffffffffffffffff1614156113c4576040517f08c379a00000000000000000000000000000000000000000000000000000000081526004016113bb90613190565b60405180910390fd5b80600260008573ffffffffffffffffffffffffffffffffffffffff1673ffffffffffffffffffffffffffffffffffffffff16815260200190815260200160002060008473ffffffffffffffffffffffffffffffffffffffff1673ffffffffffffffffffffffffffffffffffffffff168152602001908152602001600020819055508173ffffffffffffffffffffffffffffffffffffffff168373ffffffffffffffffffffffffffffffffffffffff167f8c5be1e5ebec7d5bd14f71427d1e84f3dd0314c0f7b2291e5b200ac8c7c3b925836040516114a29190613370565b60405180910390a3505050565b600073ffffffffffffffffffffffffffffffffffffffff168373ffffffffffffffffffffffffffffffffffffffff16141561151f576040517f08c379a000000000000000000000000000000000000000000000000000000000815260040161151690613290565b60405180910390fd5b600073ffffffffffffffffffffffffffffffffffffffff168273ffffffffffffffffffffffffffffffffffffffff16141561158f576040517f08c379a0000000000000000000000000000000000000000000000000000000008152600401611586906130f0565b60405180910390fd5b61159a838383611e18565b6116068160405180606001604052806026815260200161366760269139600160008773ffffffffffffffffffffffffffffffffffffffff1673ffffffffffffffffffffffffffffffffffffffff168152602001908152602001600020546117489092919063ffffffff16565b600160008573ffffffffffffffffffffffffffffffffffffffff1673ffffffffffffffffffffffffffffffffffffffff1681526020019081526020016000208190555061169b81600160008573ffffffffffffffffffffffffffffffffffffffff1673ffffffffffffffffffffffffffffffffffffffff168152602001908152602001600020546118c990919063ffffffff16565b600160008473ffffffffffffffffffffffffffffffffffffffff1673ffffffffffffffffffffffffffffffffffffffff168152602001908152602001600020819055508173ffffffffffffffffffffffffffffffffffffffff168373ffffffffffffffffffffffffffffffffffffffff167fddf252ad1be2c89b69c2b068fc378daa952ba7f163c4a11628f55a4df523b3ef8360405161173b9190613370565b60405180910390a3505050565b6000838311158290611790576040517f08c379a000000000000000000000000000000000000000000000000000000000815260040161178791906130ae565b60405180910390fd5b5060008385039050809150509392505050565b6117ca81600080858152602001908152602001600020600001611e2890919063ffffffff16565b15611832576117d76112dc565b73ffffffffffffffffffffffffffffffffffffffff168173ffffffffffffffffffffffffffffffffffffffff16837f2f8788117e7eff1d82e926ec794901d17c78024a50270940304540a733656f0d60405160405180910390a45b5050565b61185d81600080858152602001908152602001600020600001611e5890919063ffffffff16565b156118c55761186a6112dc565b73ffffffffffffffffffffffffffffffffffffffff168173ffffffffffffffffffffffffffffffffffffffff16837ff6391f5c32d9c69d2a47ea670b442974b53935d1edc7fd64eb21e047a839171b60405160405180910390a45b5050565b600080828401905083811015611914576040517f08c379a000000000000000000000000000000000000000000000000000000000815260040161190b906131b0565b60405180910390fd5b8091505092915050565b600660019054906101000a900460ff1661196d576040517f08c379a000000000000000000000000000000000000000000000000000000000815260040161196490613130565b60405180910390fd5b6000600660016101000a81548160ff0219169083151502179055507f5db9ee0a495bf2e6ff9c91a7834c1ba4fdd244a5e8aa4e537bd38aeae4b073aa6119b16112dc565b6040516119be919061303b565b60405180910390a1565b600073ffffffffffffffffffffffffffffffffffffffff168273ffffffffffffffffffffffffffffffffffffffff161415611a38576040517f08c379a0000000000000000000000000000000000000000000000000000000008152600401611a2f90613330565b60405180910390fd5b611a4460008383611e18565b611a59816003546118c990919063ffffffff16565b600381905550611ab181600160008573ffffffffffffffffffffffffffffffffffffffff1673ffffffffffffffffffffffffffffffffffffffff168152602001908152602001600020546118c990919063ffffffff16565b600160008473ffffffffffffffffffffffffffffffffffffffff1673ffffffffffffffffffffffffffffffffffffffff168152602001908152602001600020819055508173ffffffffffffffffffffffffffffffffffffffff16600073ffffffffffffffffffffffffffffffffffffffff167fddf252ad1be2c89b69c2b068fc378daa952ba7f163c4a11628f55a4df523b3ef83604051611b529190613370565b60405180910390a35050565b600073ffffffffffffffffffffffffffffffffffffffff168273ffffffffffffffffffffffffffffffffffffffff161415611bce576040517f08c379a0000000000000000000000000000000000000000000000000000000008152600401611bc590613270565b60405180910390fd5b611bda82600083611e18565b611c468160405180606001604052806022815260200161364560229139600160008673ffffffffffffffffffffffffffffffffffffffff1673ffffffffffffffffffffffffffffffffffffffff168152602001908152602001600020546117489092919063ffffffff16565b600160008473ffffffffffffffffffffffffffffffffffffffff1673ffffffffffffffffffffffffffffffffffffffff16815260200190815260200160002081905550611c9e81600354611e8890919063ffffffff16565b600381905550600073ffffffffffffffffffffffffffffffffffffffff168273ffffffffffffffffffffffffffffffffffffffff167fddf252ad1be2c89b69c2b068fc378daa952ba7f163c4a11628f55a4df523b3ef83604051611d029190613370565b60405180910390a35050565b600660019054906101000a900460ff1615611d5e576040517f08c379a0000000000000000000000000000000000000000000000000000000008152600401611d5590613230565b60405180910390fd5b6001600660016101000a81548160ff0219169083151502179055507f62e78cea01bee320cd4e420270b5ea74000d11b0c9f74754ebdbfc544b05a258611da26112dc565b604051611daf919061303b565b60405180910390a1565b6000611dc88360000183611ed2565b60001c905092915050565b6000611dfb836000018373ffffffffffffffffffffffffffffffffffffffff1660001b611f3f565b905092915050565b6000611e1182600001611f62565b9050919050565b611e23838383611f73565b505050565b6000611e50836000018373ffffffffffffffffffffffffffffffffffffffff1660001b611fcb565b905092915050565b6000611e80836000018373ffffffffffffffffffffffffffffffffffffffff1660001b61203b565b905092915050565b6000611eca83836040518060400160405280601e81526020017f536166654d6174683a207375627472616374696f6e206f766572666c6f770000815250611748565b905092915050565b600081836000018054905011611f1d576040517f08c379a0000000000000000000000000000000000000000000000000000000008152600401611f14906130d0565b60405180910390fd5b826000018281548110611f2c57fe5b9060005260206000200154905092915050565b600080836001016000848152602001908152602001600020541415905092915050565b600081600001805490509050919050565b611f7e838383612123565b611f86610c5e565b15611fc6576040517f08c379a0000000000000000000000000000000000000000000000000000000008152600401611fbd90613350565b60405180910390fd5b505050565b6000611fd78383611f3f565b612030578260000182908060018154018082558091505060019003906000526020600020016000909190919091505582600001805490508360010160008481526020019081526020016000208190555060019050612035565b600090505b92915050565b60008083600101600084815260200190815260200160002054905060008114612117576000600182039050600060018660000180549050039050600086600001828154811061208657fe5b90600052602060002001549050808760000184815481106120a357fe5b90600052602060002001819055506001830187600101600083815260200190815260200160002081905550866000018054806120db57fe5b6001900381819060005260206000200160009055905586600101600087815260200190815260200160002060009055600194505050505061211d565b60009150505b92915050565b505050565b828054600181600116156101000203166002900490600052602060002090601f016020900481019282601f1061216957805160ff1916838001178555612197565b82800160010185558215612197579182015b8281111561219657825182559160200191906001019061217b565b5b5090506121a491906121d0565b5090565b604051806101400160405280600a905b60608152602001906001900390816121b85790505090565b6121f291905b808211156121ee5760008160009055506001016121d6565b5090565b90565b600081359050612204816135e1565b92915050565b600081359050612219816135f8565b92915050565b600082601f83011261223057600080fd5b813561224361223e82613448565b61341b565b9150808252602083016020830185838301111561225f57600080fd5b61226a83828461358e565b50505092915050565b6000813590506122828161360f565b92915050565b60006020828403121561229a57600080fd5b60006122a8848285016121f5565b91505092915050565b600080604083850312156122c457600080fd5b60006122d2858286016121f5565b92505060206122e3858286016121f5565b9150509250929050565b60008060006060848603121561230257600080fd5b6000612310868287016121f5565b9350506020612321868287016121f5565b925050604061233286828701612273565b9150509250925092565b6000806040838503121561234f57600080fd5b600061235d858286016121f5565b925050602061236e85828601612273565b9150509250929050565b6000806000806080858703121561238e57600080fd5b600061239c878288016121f5565b94505060206123ad87828801612273565b935050604085013567ffffffffffffffff8111156123ca57600080fd5b6123d68782880161221f565b925050606085013567ffffffffffffffff8111156123f357600080fd5b6123ff8782880161221f565b91505092959194509250565b60006020828403121561241d57600080fd5b600061242b8482850161220a565b91505092915050565b6000806040838503121561244757600080fd5b60006124558582860161220a565b9250506020612466858286016121f5565b9150509250929050565b6000806040838503121561248357600080fd5b60006124918582860161220a565b92505060206124a285828601612273565b9150509250929050565b6000602082840312156124be57600080fd5b60006124cc84828501612273565b91505092915050565b600080604083850312156124e857600080fd5b60006124f685828601612273565b925050602083013567ffffffffffffffff81111561251357600080fd5b61251f8582860161221f565b9150509250929050565b6000806040838503121561253c57600080fd5b600061254a85828601612273565b925050602061255b85828601612273565b9150509250929050565b60006125718383612694565b905092915050565b61258281613558565b82525050565b612591816134f9565b82525050565b60006125a282613493565b6125ac81856134c1565b9350836020820285016125be85613474565b8060005b858110156125fa57848403895281516125db8582612565565b94506125e6836134b4565b925060208a019950506001810190506125c2565b50829750879550505050505092915050565b6126158161350b565b82525050565b61262481613517565b82525050565b6000612635826134a9565b61263f81856134dd565b935061264f81856020860161359d565b612658816135d0565b840191505092915050565b600061266e826134a9565b61267881856134ee565b935061268881856020860161359d565b80840191505092915050565b600061269f8261349e565b6126a981856134cc565b93506126b981856020860161359d565b6126c2816135d0565b840191505092915050565b6000815460018116600081146126ea576001811461270f57612753565b607f60028304166126fb81876134ee565b955060ff1983168652808601935050612753565b6002820461271d81876134ee565b95506127288561347e565b60005b8281101561274a5781548189015260018201915060208101905061272b565b82880195505050505b505092915050565b60006127686022836134dd565b91507f456e756d657261626c655365743a20696e646578206f7574206f6620626f756e60008301527f64730000000000000000000000000000000000000000000000000000000000006020830152604082019050919050565b60006127ce6023836134dd565b91507f45524332303a207472616e7366657220746f20746865207a65726f206164647260008301527f65737300000000000000000000000000000000000000000000000000000000006020830152604082019050919050565b6000612834602f836134dd565b91507f416363657373436f6e74726f6c3a2073656e646572206d75737420626520616e60008301527f2061646d696e20746f206772616e7400000000000000000000000000000000006020830152604082019050919050565b600061289a6014836134dd565b91507f5061757361626c653a206e6f74207061757365640000000000000000000000006000830152602082019050919050565b60006128da6039836134dd565b91507f45524332305072657365744d696e7465725061757365723a206d75737420686160008301527f76652070617573657220726f6c6520746f20756e7061757365000000000000006020830152604082019050919050565b60006129406014836134dd565b91507f54686520747869642068617320657869737465640000000000000000000000006000830152602082019050919050565b60006129806022836134dd565b91507f45524332303a20617070726f766520746f20746865207a65726f20616464726560008301527f73730000000000000000000000000000000000000000000000000000000000006020830152604082019050919050565b60006129e6601b836134dd565b91507f536166654d6174683a206164646974696f6e206f766572666c6f7700000000006000830152602082019050919050565b6000612a266014836134dd565b91507f41646a75737420726f6c652072657175697265640000000000000000000000006000830152602082019050919050565b6000612a66602e836134dd565b91507f546865206d696e696d756d2076616c7565206d7573742062652067726561746560008301527f72207468616e206d696e4275726e0000000000000000000000000000000000006020830152604082019050919050565b6000612acc6030836134dd565b91507f416363657373436f6e74726f6c3a2073656e646572206d75737420626520616e60008301527f2061646d696e20746f207265766f6b65000000000000000000000000000000006020830152604082019050919050565b6000612b32600b836134ee565b91507f5041555345525f524f4c450000000000000000000000000000000000000000006000830152600b82019050919050565b6000612b726010836134dd565b91507f5061757361626c653a20706175736564000000000000000000000000000000006000830152602082019050919050565b6000612bb26036836134dd565b91507f45524332305072657365744d696e7465725061757365723a206d75737420686160008301527f7665206d696e74657220726f6c6520746f206d696e74000000000000000000006020830152604082019050919050565b6000612c18600b836134ee565b91507f4d494e5445525f524f4c450000000000000000000000000000000000000000006000830152600b82019050919050565b6000612c586021836134dd565b91507f45524332303a206275726e2066726f6d20746865207a65726f2061646472657360008301527f73000000000000000000000000000000000000000000000000000000000000006020830152604082019050919050565b6000612cbe6025836134dd565b91507f45524332303a207472616e736665722066726f6d20746865207a65726f20616460008301527f64726573730000000000000000000000000000000000000000000000000000006020830152604082019050919050565b6000612d24602e836134dd565b91507f546865206d696e696d756d2076616c7565206d7573742062652067726561746560008301527f72207468616e206d696e4d696e740000000000000000000000000000000000006020830152604082019050919050565b6000612d8a6024836134dd565b91507f45524332303a20617070726f76652066726f6d20746865207a65726f2061646460008301527f72657373000000000000000000000000000000000000000000000000000000006020830152604082019050919050565b6000612df06037836134dd565b91507f45524332305072657365744d696e7465725061757365723a206d75737420686160008301527f76652070617573657220726f6c6520746f2070617573650000000000000000006020830152604082019050919050565b6000612e56600b836134ee565b91507f41444a5553545f524f4c450000000000000000000000000000000000000000006000830152600b82019050919050565b6000612e96602f836134dd565b91507f416363657373436f6e74726f6c3a2063616e206f6e6c792072656e6f756e636560008301527f20726f6c657320666f722073656c6600000000000000000000000000000000006020830152604082019050919050565b6000612efc601f836134dd565b91507f45524332303a206d696e7420746f20746865207a65726f2061646472657373006000830152602082019050919050565b6000612f3c602a836134dd565b91507f45524332305061757361626c653a20746f6b656e207472616e7366657220776860008301527f696c6520706175736564000000000000000000000000000000000000000000006020830152604082019050919050565b612f9e81613541565b82525050565b612fad8161354b565b82525050565b6000612fbf8284612663565b915081905092915050565b6000612fd682846126cd565b915081905092915050565b6000612fec82612b25565b9150819050919050565b600061300182612c0b565b9150819050919050565b600061301682612e49565b9150819050919050565b60006020820190506130356000830184612588565b92915050565b60006020820190506130506000830184612579565b92915050565b600060208201905081810360008301526130708184612597565b905092915050565b600060208201905061308d600083018461260c565b92915050565b60006020820190506130a8600083018461261b565b92915050565b600060208201905081810360008301526130c8818461262a565b905092915050565b600060208201905081810360008301526130e98161275b565b9050919050565b60006020820190508181036000830152613109816127c1565b9050919050565b6000602082019050818103600083015261312981612827565b9050919050565b600060208201905081810360008301526131498161288d565b9050919050565b60006020820190508181036000830152613169816128cd565b9050919050565b6000602082019050818103600083015261318981612933565b9050919050565b600060208201905081810360008301526131a981612973565b9050919050565b600060208201905081810360008301526131c9816129d9565b9050919050565b600060208201905081810360008301526131e981612a19565b9050919050565b6000602082019050818103600083015261320981612a59565b9050919050565b6000602082019050818103600083015261322981612abf565b9050919050565b6000602082019050818103600083015261324981612b65565b9050919050565b6000602082019050818103600083015261326981612ba5565b9050919050565b6000602082019050818103600083015261328981612c4b565b9050919050565b600060208201905081810360008301526132a981612cb1565b9050919050565b600060208201905081810360008301526132c981612d17565b9050919050565b600060208201905081810360008301526132e981612d7d565b9050919050565b6000602082019050818103600083015261330981612de3565b9050919050565b6000602082019050818103600083015261332981612e89565b9050919050565b6000602082019050818103600083015261334981612eef565b9050919050565b6000602082019050818103600083015261336981612f2f565b9050919050565b60006020820190506133856000830184612f95565b92915050565b60006040820190506133a06000830185612f95565b81810360208301526133b2818461262a565b90509392505050565b60006060820190506133d06000830186612f95565b81810360208301526133e2818561262a565b905081810360408301526133f6818461262a565b9050949350505050565b60006020820190506134156000830184612fa4565b92915050565b6000604051905081810181811067ffffffffffffffff8211171561343e57600080fd5b8060405250919050565b600067ffffffffffffffff82111561345f57600080fd5b601f19601f8301169050602081019050919050565b6000819050919050565b60008190508160005260206000209050919050565b6000600a9050919050565b600081519050919050565b600081519050919050565b6000602082019050919050565b600081905092915050565b600082825260208201905092915050565b600082825260208201905092915050565b600081905092915050565b600061350482613521565b9050919050565b60008115159050919050565b6000819050919050565b600073ffffffffffffffffffffffffffffffffffffffff82169050919050565b6000819050919050565b600060ff82169050919050565b60006135638261356a565b9050919050565b60006135758261357c565b9050919050565b600061358782613521565b9050919050565b82818337600083830152505050565b60005b838110156135bb5780820151818401526020810190506135a0565b838111156135ca576000848401525b50505050565b6000601f19601f8301169050919050565b6135ea816134f9565b81146135f557600080fd5b50565b61360181613517565b811461360c57600080fd5b50565b61361881613541565b811461362357600080fd5b50565b80600660006101000a81548160ff021916908360ff1602179055505056fe45524332303a206275726e20616d6f756e7420657863656564732062616c616e636545524332303a207472616e7366657220616d6f756e7420657863656564732062616c616e636545524332303a207472616e7366657220616d6f756e74206578636565647320616c6c6f77616e636545524332303a206275726e20616d6f756e74206578636565647320616c6c6f77616e636545524332303a2064656372656173656420616c6c6f77616e63652062656c6f77207a65726fa264697066735822122078d529c74aad8155fb809629ab473a403e909adacd1c0b64166de4f7d3808dd164736f6c63430006020033",
  "source": "// SPDX-License-Identifier: MIT\n\npragma solidity >=0.4.21 <0.8.0;\npragma experimental ABIEncoderV2;\n\nimport \"@openzeppelin/contracts/presets/ERC20PresetMinterPauser.sol\";\n\ncontract GXC is ERC20PresetMinterPauser {\n    bytes32 public constant ADJUST_ROLE = keccak256(\"ADJUST_ROLE\");\n\n    string[10] private txidArray;\n    uint256 arrayLength = 10;\n    uint256 private id;\n\n    uint256 minMint = 50000;\n    uint256 minBurn = 50000;\n\n    uint8 decimals_ = 5;\n\n    event Mint(address indexed to, uint256 amount, string from, string txid);\n\n    event Burn(address indexed from, uint256 amount, string to);\n\n    constructor(string memory name, string memory symbol)\n        public\n        ERC20PresetMinterPauser(name, symbol)\n    {\n        super._setupDecimals(decimals_);\n        _setupRole(ADJUST_ROLE, _msgSender());\n    }\n\n    function mint(\n        address to,\n        uint256 amount,\n        string memory from,\n        string memory txid\n    ) public virtual {\n        require(\n            amount >= minMint,\n            \"The minimum value must be greater than minMint\"\n        );\n        for (uint256 i = 0; i < arrayLength; i++) {\n            require(\n                keccak256(abi.encodePacked(txidArray[i])) !=\n                    keccak256(abi.encodePacked(txid)),\n                \"The txid has existed\"\n            );\n        }\n        uint256 id_number = id % arrayLength;\n        txidArray[id_number] = txid;\n        id++;\n        super.mint(to, amount);\n        emit Mint(to, amount, from, txid);\n    }\n\n    function burn(uint256 amount, string memory to) public virtual {\n        require(\n            amount >= minBurn,\n            \"The minimum value must be greater than minBurn\"\n        );\n        super.burn(amount);\n        emit Burn(msg.sender, amount, to);\n    }\n\n    function adjustMinNumber(uint256 _burnMin, uint256 _mintMin)\n        public\n        virtual\n    {\n        require(hasRole(ADJUST_ROLE, _msgSender()), \"Adjust role required\");\n        minMint = _mintMin;\n        minBurn = _burnMin;\n    }\n\n    function getTxidArray() public returns (string[10] memory) {\n        return txidArray;\n    }\n}\n",
  "sourcePath": "/Users/bijianing/gxc-solidity/contracts/GXC.sol",
  "compiler": {
    "name": "solc",
    "version": "0.6.2+commit.bacdbe57.Emscripten.clang"
  },
  "schemaVersion": "3.2.3",
  "updatedAt": "2020-08-21T03:25:00.205Z",
  "networkType": "ethereum",
  "devdoc": {
    "methods": {
      "allowance(address,address)": {
        "details": "See {IERC20-allowance}."
      },
      "approve(address,uint256)": {
        "details": "See {IERC20-approve}.     * Requirements:     * - `spender` cannot be the zero address."
      },
      "balanceOf(address)": {
        "details": "See {IERC20-balanceOf}."
      },
      "burn(uint256)": {
        "details": "Destroys `amount` tokens from the caller.     * See {ERC20-_burn}."
      },
      "burnFrom(address,uint256)": {
        "details": "Destroys `amount` tokens from `account`, deducting from the caller's allowance.     * See {ERC20-_burn} and {ERC20-allowance}.     * Requirements:     * - the caller must have allowance for ``accounts``'s tokens of at least `amount`."
      },
      "decimals()": {
        "details": "Returns the number of decimals used to get its user representation. For example, if `decimals` equals `2`, a balance of `505` tokens should be displayed to a user as `5,05` (`505 / 10 ** 2`).     * Tokens usually opt for a value of 18, imitating the relationship between Ether and Wei. This is the value {ERC20} uses, unless {_setupDecimals} is called.     * NOTE: This information is only used for _display_ purposes: it in no way affects any of the arithmetic of the contract, including {IERC20-balanceOf} and {IERC20-transfer}."
      },
      "decreaseAllowance(address,uint256)": {
        "details": "Atomically decreases the allowance granted to `spender` by the caller.     * This is an alternative to {approve} that can be used as a mitigation for problems described in {IERC20-approve}.     * Emits an {Approval} event indicating the updated allowance.     * Requirements:     * - `spender` cannot be the zero address. - `spender` must have allowance for the caller of at least `subtractedValue`."
      },
      "getRoleAdmin(bytes32)": {
        "details": "Returns the admin role that controls `role`. See {grantRole} and {revokeRole}.     * To change a role's admin, use {_setRoleAdmin}."
      },
      "getRoleMember(bytes32,uint256)": {
        "details": "Returns one of the accounts that have `role`. `index` must be a value between 0 and {getRoleMemberCount}, non-inclusive.     * Role bearers are not sorted in any particular way, and their ordering may change at any point.     * WARNING: When using {getRoleMember} and {getRoleMemberCount}, make sure you perform all queries on the same block. See the following https://forum.openzeppelin.com/t/iterating-over-elements-on-enumerableset-in-openzeppelin-contracts/2296[forum post] for more information."
      },
      "getRoleMemberCount(bytes32)": {
        "details": "Returns the number of accounts that have `role`. Can be used together with {getRoleMember} to enumerate all bearers of a role."
      },
      "grantRole(bytes32,address)": {
        "details": "Grants `role` to `account`.     * If `account` had not been already granted `role`, emits a {RoleGranted} event.     * Requirements:     * - the caller must have ``role``'s admin role."
      },
      "hasRole(bytes32,address)": {
        "details": "Returns `true` if `account` has been granted `role`."
      },
      "increaseAllowance(address,uint256)": {
        "details": "Atomically increases the allowance granted to `spender` by the caller.     * This is an alternative to {approve} that can be used as a mitigation for problems described in {IERC20-approve}.     * Emits an {Approval} event indicating the updated allowance.     * Requirements:     * - `spender` cannot be the zero address."
      },
      "mint(address,uint256)": {
        "details": "Creates `amount` new tokens for `to`.     * See {ERC20-_mint}.     * Requirements:     * - the caller must have the `MINTER_ROLE`."
      },
      "name()": {
        "details": "Returns the name of the token."
      },
      "pause()": {
        "details": "Pauses all token transfers.     * See {ERC20Pausable} and {Pausable-_pause}.     * Requirements:     * - the caller must have the `PAUSER_ROLE`."
      },
      "paused()": {
        "details": "Returns true if the contract is paused, and false otherwise."
      },
      "renounceRole(bytes32,address)": {
        "details": "Revokes `role` from the calling account.     * Roles are often managed via {grantRole} and {revokeRole}: this function's purpose is to provide a mechanism for accounts to lose their privileges if they are compromised (such as when a trusted device is misplaced).     * If the calling account had been granted `role`, emits a {RoleRevoked} event.     * Requirements:     * - the caller must be `account`."
      },
      "revokeRole(bytes32,address)": {
        "details": "Revokes `role` from `account`.     * If `account` had been granted `role`, emits a {RoleRevoked} event.     * Requirements:     * - the caller must have ``role``'s admin role."
      },
      "symbol()": {
        "details": "Returns the symbol of the token, usually a shorter version of the name."
      },
      "totalSupply()": {
        "details": "See {IERC20-totalSupply}."
      },
      "transfer(address,uint256)": {
        "details": "See {IERC20-transfer}.     * Requirements:     * - `recipient` cannot be the zero address. - the caller must have a balance of at least `amount`."
      },
      "transferFrom(address,address,uint256)": {
        "details": "See {IERC20-transferFrom}.     * Emits an {Approval} event indicating the updated allowance. This is not required by the EIP. See the note at the beginning of {ERC20};     * Requirements: - `sender` and `recipient` cannot be the zero address. - `sender` must have a balance of at least `amount`. - the caller must have allowance for ``sender``'s tokens of at least `amount`."
      },
      "unpause()": {
        "details": "Unpauses all token transfers.     * See {ERC20Pausable} and {Pausable-_unpause}.     * Requirements:     * - the caller must have the `PAUSER_ROLE`."
      }
    }
  },
  "userdoc": {
    "methods": {}
  }
}