{
  "contractName": "GXC",
  "abi": [
    {
      "inputs": [
        {
          "internalType": "string",
          "name": "name",
          "type": "string"
        },
        {
          "internalType": "string",
          "name": "symbol",
          "type": "string"
        }
      ],
      "stateMutability": "nonpayable",
      "type": "constructor"
    },
    {
      "anonymous": false,
      "inputs": [
        {
          "indexed": true,
          "internalType": "address",
          "name": "owner",
          "type": "address"
        },
        {
          "indexed": true,
          "internalType": "address",
          "name": "spender",
          "type": "address"
        },
        {
          "indexed": false,
          "internalType": "uint256",
          "name": "value",
          "type": "uint256"
        }
      ],
      "name": "Approval",
      "type": "event"
    },
    {
      "anonymous": false,
      "inputs": [
        {
          "indexed": true,
          "internalType": "address",
          "name": "sender",
          "type": "address"
        },
        {
          "indexed": false,
          "internalType": "uint256",
          "name": "amount",
          "type": "uint256"
        },
        {
          "indexed": false,
          "internalType": "string",
          "name": "gxcAccount",
          "type": "string"
        }
      ],
      "name": "Burn",
      "type": "event"
    },
    {
      "anonymous": false,
      "inputs": [
        {
          "indexed": true,
          "internalType": "address",
          "name": "to",
          "type": "address"
        },
        {
          "indexed": false,
          "internalType": "uint256",
          "name": "amount",
          "type": "uint256"
        },
        {
          "indexed": false,
          "internalType": "string",
          "name": "txid",
          "type": "string"
        },
        {
          "indexed": false,
          "internalType": "string",
          "name": "from_account",
          "type": "string"
        }
      ],
      "name": "Mint",
      "type": "event"
    },
    {
      "anonymous": false,
      "inputs": [
        {
          "indexed": false,
          "internalType": "address",
          "name": "account",
          "type": "address"
        }
      ],
      "name": "Paused",
      "type": "event"
    },
    {
      "anonymous": false,
      "inputs": [
        {
          "indexed": true,
          "internalType": "bytes32",
          "name": "role",
          "type": "bytes32"
        },
        {
          "indexed": true,
          "internalType": "bytes32",
          "name": "previousAdminRole",
          "type": "bytes32"
        },
        {
          "indexed": true,
          "internalType": "bytes32",
          "name": "newAdminRole",
          "type": "bytes32"
        }
      ],
      "name": "RoleAdminChanged",
      "type": "event"
    },
    {
      "anonymous": false,
      "inputs": [
        {
          "indexed": true,
          "internalType": "bytes32",
          "name": "role",
          "type": "bytes32"
        },
        {
          "indexed": true,
          "internalType": "address",
          "name": "account",
          "type": "address"
        },
        {
          "indexed": true,
          "internalType": "address",
          "name": "sender",
          "type": "address"
        }
      ],
      "name": "RoleGranted",
      "type": "event"
    },
    {
      "anonymous": false,
      "inputs": [
        {
          "indexed": true,
          "internalType": "bytes32",
          "name": "role",
          "type": "bytes32"
        },
        {
          "indexed": true,
          "internalType": "address",
          "name": "account",
          "type": "address"
        },
        {
          "indexed": true,
          "internalType": "address",
          "name": "sender",
          "type": "address"
        }
      ],
      "name": "RoleRevoked",
      "type": "event"
    },
    {
      "anonymous": false,
      "inputs": [
        {
          "indexed": true,
          "internalType": "address",
          "name": "from",
          "type": "address"
        },
        {
          "indexed": true,
          "internalType": "address",
          "name": "to",
          "type": "address"
        },
        {
          "indexed": false,
          "internalType": "uint256",
          "name": "value",
          "type": "uint256"
        }
      ],
      "name": "Transfer",
      "type": "event"
    },
    {
      "anonymous": false,
      "inputs": [
        {
          "indexed": false,
          "internalType": "address",
          "name": "account",
          "type": "address"
        }
      ],
      "name": "Unpaused",
      "type": "event"
    },
    {
      "inputs": [],
      "name": "ADJUST_ROLE",
      "outputs": [
        {
          "internalType": "bytes32",
          "name": "",
          "type": "bytes32"
        }
      ],
      "stateMutability": "view",
      "type": "function"
    },
    {
      "inputs": [],
      "name": "DEFAULT_ADMIN_ROLE",
      "outputs": [
        {
          "internalType": "bytes32",
          "name": "",
          "type": "bytes32"
        }
      ],
      "stateMutability": "view",
      "type": "function"
    },
    {
      "inputs": [],
      "name": "MINTER_ROLE",
      "outputs": [
        {
          "internalType": "bytes32",
          "name": "",
          "type": "bytes32"
        }
      ],
      "stateMutability": "view",
      "type": "function"
    },
    {
      "inputs": [],
      "name": "PAUSER_ROLE",
      "outputs": [
        {
          "internalType": "bytes32",
          "name": "",
          "type": "bytes32"
        }
      ],
      "stateMutability": "view",
      "type": "function"
    },
    {
      "inputs": [
        {
          "internalType": "address",
          "name": "owner",
          "type": "address"
        },
        {
          "internalType": "address",
          "name": "spender",
          "type": "address"
        }
      ],
      "name": "allowance",
      "outputs": [
        {
          "internalType": "uint256",
          "name": "",
          "type": "uint256"
        }
      ],
      "stateMutability": "view",
      "type": "function"
    },
    {
      "inputs": [
        {
          "internalType": "address",
          "name": "spender",
          "type": "address"
        },
        {
          "internalType": "uint256",
          "name": "amount",
          "type": "uint256"
        }
      ],
      "name": "approve",
      "outputs": [
        {
          "internalType": "bool",
          "name": "",
          "type": "bool"
        }
      ],
      "stateMutability": "nonpayable",
      "type": "function"
    },
    {
      "inputs": [
        {
          "internalType": "address",
          "name": "account",
          "type": "address"
        }
      ],
      "name": "balanceOf",
      "outputs": [
        {
          "internalType": "uint256",
          "name": "",
          "type": "uint256"
        }
      ],
      "stateMutability": "view",
      "type": "function"
    },
    {
      "inputs": [
        {
          "internalType": "address",
          "name": "account",
          "type": "address"
        },
        {
          "internalType": "uint256",
          "name": "amount",
          "type": "uint256"
        }
      ],
      "name": "burnFrom",
      "outputs": [],
      "stateMutability": "nonpayable",
      "type": "function"
    },
    {
      "inputs": [],
      "name": "decimals",
      "outputs": [
        {
          "internalType": "uint8",
          "name": "",
          "type": "uint8"
        }
      ],
      "stateMutability": "view",
      "type": "function"
    },
    {
      "inputs": [
        {
          "internalType": "address",
          "name": "spender",
          "type": "address"
        },
        {
          "internalType": "uint256",
          "name": "subtractedValue",
          "type": "uint256"
        }
      ],
      "name": "decreaseAllowance",
      "outputs": [
        {
          "internalType": "bool",
          "name": "",
          "type": "bool"
        }
      ],
      "stateMutability": "nonpayable",
      "type": "function"
    },
    {
      "inputs": [
        {
          "internalType": "bytes32",
          "name": "role",
          "type": "bytes32"
        }
      ],
      "name": "getRoleAdmin",
      "outputs": [
        {
          "internalType": "bytes32",
          "name": "",
          "type": "bytes32"
        }
      ],
      "stateMutability": "view",
      "type": "function"
    },
    {
      "inputs": [
        {
          "internalType": "bytes32",
          "name": "role",
          "type": "bytes32"
        },
        {
          "internalType": "uint256",
          "name": "index",
          "type": "uint256"
        }
      ],
      "name": "getRoleMember",
      "outputs": [
        {
          "internalType": "address",
          "name": "",
          "type": "address"
        }
      ],
      "stateMutability": "view",
      "type": "function"
    },
    {
      "inputs": [
        {
          "internalType": "bytes32",
          "name": "role",
          "type": "bytes32"
        }
      ],
      "name": "getRoleMemberCount",
      "outputs": [
        {
          "internalType": "uint256",
          "name": "",
          "type": "uint256"
        }
      ],
      "stateMutability": "view",
      "type": "function"
    },
    {
      "inputs": [
        {
          "internalType": "bytes32",
          "name": "role",
          "type": "bytes32"
        },
        {
          "internalType": "address",
          "name": "account",
          "type": "address"
        }
      ],
      "name": "grantRole",
      "outputs": [],
      "stateMutability": "nonpayable",
      "type": "function"
    },
    {
      "inputs": [
        {
          "internalType": "bytes32",
          "name": "role",
          "type": "bytes32"
        },
        {
          "internalType": "address",
          "name": "account",
          "type": "address"
        }
      ],
      "name": "hasRole",
      "outputs": [
        {
          "internalType": "bool",
          "name": "",
          "type": "bool"
        }
      ],
      "stateMutability": "view",
      "type": "function"
    },
    {
      "inputs": [
        {
          "internalType": "address",
          "name": "spender",
          "type": "address"
        },
        {
          "internalType": "uint256",
          "name": "addedValue",
          "type": "uint256"
        }
      ],
      "name": "increaseAllowance",
      "outputs": [
        {
          "internalType": "bool",
          "name": "",
          "type": "bool"
        }
      ],
      "stateMutability": "nonpayable",
      "type": "function"
    },
    {
      "inputs": [],
      "name": "name",
      "outputs": [
        {
          "internalType": "string",
          "name": "",
          "type": "string"
        }
      ],
      "stateMutability": "view",
      "type": "function"
    },
    {
      "inputs": [],
      "name": "pause",
      "outputs": [],
      "stateMutability": "nonpayable",
      "type": "function"
    },
    {
      "inputs": [],
      "name": "paused",
      "outputs": [
        {
          "internalType": "bool",
          "name": "",
          "type": "bool"
        }
      ],
      "stateMutability": "view",
      "type": "function"
    },
    {
      "inputs": [
        {
          "internalType": "bytes32",
          "name": "role",
          "type": "bytes32"
        },
        {
          "internalType": "address",
          "name": "account",
          "type": "address"
        }
      ],
      "name": "renounceRole",
      "outputs": [],
      "stateMutability": "nonpayable",
      "type": "function"
    },
    {
      "inputs": [
        {
          "internalType": "bytes32",
          "name": "role",
          "type": "bytes32"
        },
        {
          "internalType": "address",
          "name": "account",
          "type": "address"
        }
      ],
      "name": "revokeRole",
      "outputs": [],
      "stateMutability": "nonpayable",
      "type": "function"
    },
    {
      "inputs": [],
      "name": "symbol",
      "outputs": [
        {
          "internalType": "string",
          "name": "",
          "type": "string"
        }
      ],
      "stateMutability": "view",
      "type": "function"
    },
    {
      "inputs": [],
      "name": "totalSupply",
      "outputs": [
        {
          "internalType": "uint256",
          "name": "",
          "type": "uint256"
        }
      ],
      "stateMutability": "view",
      "type": "function"
    },
    {
      "inputs": [
        {
          "internalType": "address",
          "name": "recipient",
          "type": "address"
        },
        {
          "internalType": "uint256",
          "name": "amount",
          "type": "uint256"
        }
      ],
      "name": "transfer",
      "outputs": [
        {
          "internalType": "bool",
          "name": "",
          "type": "bool"
        }
      ],
      "stateMutability": "nonpayable",
      "type": "function"
    },
    {
      "inputs": [
        {
          "internalType": "address",
          "name": "sender",
          "type": "address"
        },
        {
          "internalType": "address",
          "name": "recipient",
          "type": "address"
        },
        {
          "internalType": "uint256",
          "name": "amount",
          "type": "uint256"
        }
      ],
      "name": "transferFrom",
      "outputs": [
        {
          "internalType": "bool",
          "name": "",
          "type": "bool"
        }
      ],
      "stateMutability": "nonpayable",
      "type": "function"
    },
    {
      "inputs": [],
      "name": "unpause",
      "outputs": [],
      "stateMutability": "nonpayable",
      "type": "function"
    },
    {
      "inputs": [
        {
          "internalType": "address",
          "name": "to",
          "type": "address"
        },
        {
          "internalType": "uint256",
          "name": "amount",
          "type": "uint256"
        },
        {
          "internalType": "string",
          "name": "txid",
          "type": "string"
        },
        {
          "internalType": "string",
          "name": "from_account",
          "type": "string"
        }
      ],
      "name": "mint",
      "outputs": [],
      "stateMutability": "nonpayable",
      "type": "function"
    },
    {
      "inputs": [
        {
          "internalType": "address",
          "name": "to",
          "type": "address"
        },
        {
          "internalType": "uint256",
          "name": "amount",
          "type": "uint256"
        }
      ],
      "name": "mint",
      "outputs": [],
      "stateMutability": "nonpayable",
      "type": "function"
    },
    {
      "inputs": [
        {
          "internalType": "uint256",
          "name": "amount",
          "type": "uint256"
        }
      ],
      "name": "burn",
      "outputs": [],
      "stateMutability": "nonpayable",
      "type": "function"
    },
    {
      "inputs": [
        {
          "internalType": "uint256",
          "name": "amount",
          "type": "uint256"
        },
        {
          "internalType": "string",
          "name": "gxcAccount",
          "type": "string"
        }
      ],
      "name": "burn",
      "outputs": [],
      "stateMutability": "nonpayable",
      "type": "function"
    },
    {
      "inputs": [
        {
          "internalType": "uint256",
          "name": "_burnMin",
          "type": "uint256"
        },
        {
          "internalType": "uint256",
          "name": "_mintMin",
          "type": "uint256"
        }
      ],
      "name": "adjustMinnumber",
      "outputs": [],
      "stateMutability": "nonpayable",
      "type": "function"
    },
    {
      "inputs": [],
      "name": "get_txid_array",
      "outputs": [
        {
          "internalType": "string[10]",
          "name": "",
          "type": "string[10]"
        }
      ],
      "stateMutability": "nonpayable",
      "type": "function"
    }
  ],
  "bytecode": "0x6080604052600a60115561c35060135561c3506014556005601560006101000a81548160ff021916908360ff1602179055503480156200003e57600080fd5b5060405162003d7a38038062003d7a833981810160405262000064919081019062000487565b818181818160049080519060200190620000809291906200037c565b508060059080519060200190620000999291906200037c565b506012600660006101000a81548160ff021916908360ff16021790555050506000600660016101000a81548160ff021916908315150217905550620000f76000801b620000eb620001c860201b60201c565b620001d060201b60201c565b6200012d6040516200010990620005d7565b604051809103902062000121620001c860201b60201c565b620001d060201b60201c565b620001636040516200013f90620005c0565b604051809103902062000157620001c860201b60201c565b620001d060201b60201c565b50506200018a601560009054906101000a900460ff16620001e660201b620035bc1760201c565b620001c06040516200019c90620005ee565b6040518091039020620001b4620001c860201b60201c565b620001d060201b60201c565b5050620006a1565b600033905090565b620001e282826200020460201b60201c565b5050565b80600660006101000a81548160ff021916908360ff16021790555050565b6200023281600080858152602001908152602001600020600001620002a760201b62001e1e1790919060201c565b15620002a35762000248620001c860201b60201c565b73ffffffffffffffffffffffffffffffffffffffff168173ffffffffffffffffffffffffffffffffffffffff16837f2f8788117e7eff1d82e926ec794901d17c78024a50270940304540a733656f0d60405160405180910390a45b5050565b6000620002d7836000018373ffffffffffffffffffffffffffffffffffffffff1660001b620002df60201b60201c565b905092915050565b6000620002f383836200035960201b60201c565b6200034e57826000018290806001815401808255809150506001900390600052602060002001600090919091909150558260000180549050836001016000848152602001908152602001600020819055506001905062000353565b600090505b92915050565b600080836001016000848152602001908152602001600020541415905092915050565b828054600181600116156101000203166002900490600052602060002090601f016020900481019282601f10620003bf57805160ff1916838001178555620003f0565b82800160010185558215620003f0579182015b82811115620003ef578251825591602001919060010190620003d2565b5b509050620003ff919062000403565b5090565b6200042891905b80821115620004245760008160009055506001016200040a565b5090565b90565b600082601f8301126200043d57600080fd5b8151620004546200044e8262000633565b62000605565b915080825260208301602083018583830111156200047157600080fd5b6200047e8382846200066b565b50505092915050565b600080604083850312156200049b57600080fd5b600083015167ffffffffffffffff811115620004b657600080fd5b620004c4858286016200042b565b925050602083015167ffffffffffffffff811115620004e257600080fd5b620004f0858286016200042b565b9150509250929050565b600062000509600b8362000660565b91507f5041555345525f524f4c450000000000000000000000000000000000000000006000830152600b82019050919050565b60006200054b600b8362000660565b91507f4d494e5445525f524f4c450000000000000000000000000000000000000000006000830152600b82019050919050565b60006200058d600b8362000660565b91507f41444a5553545f524f4c450000000000000000000000000000000000000000006000830152600b82019050919050565b6000620005cd82620004fa565b9150819050919050565b6000620005e4826200053c565b9150819050919050565b6000620005fb826200057e565b9150819050919050565b6000604051905081810181811067ffffffffffffffff821117156200062957600080fd5b8060405250919050565b600067ffffffffffffffff8211156200064b57600080fd5b601f19601f8301169050602081019050919050565b600081905092915050565b60005b838110156200068b5780820151818401526020810190506200066e565b838111156200069b576000848401525b50505050565b6136c980620006b16000396000f3fe608060405234801561001057600080fd5b50600436106101f05760003560e01c806379cc67901161010f578063a9059cbb116100a2578063d539139311610071578063d5391393146105b9578063d547741f146105d7578063dd62ed3e146105f3578063e63ab1e914610623576101f0565b8063a9059cbb1461051f578063b0ab39681461054f578063b6060aa01461056d578063ca15c87314610589576101f0565b806395d89b41116100de57806395d89b41146104955780639f065509146104b3578063a217fddf146104d1578063a457c2d7146104ef576101f0565b806379cc67901461040f5780638456cb591461042b5780639010d07c1461043557806391d1485414610465576101f0565b806336568abe1161018757806342966c681161015657806342966c68146103895780635c975abb146103a557806370a08231146103c35780637641e6f3146103f3576101f0565b806336568abe1461031757806339509351146103335780633f4ba83a1461036357806340c10f191461036d576101f0565b8063248a9ca3116101c3578063248a9ca3146102915780632f2ff15d146102c15780632fb102cf146102dd578063313ce567146102f9576101f0565b806306fdde03146101f5578063095ea7b31461021357806318160ddd1461024357806323b872dd14610261575b600080fd5b6101fd610641565b60405161020a9190613064565b60405180910390f35b61022d60048036036102289190810190612332565b6106e3565b60405161023a919061302e565b60405180910390f35b61024b610701565b6040516102589190613306565b60405180910390f35b61027b600480360361027691908101906122e3565b61070b565b604051610288919061302e565b60405180910390f35b6102ab60048036036102a69190810190612401565b6107e4565b6040516102b89190613049565b60405180910390f35b6102db60048036036102d6919081019061242a565b610803565b005b6102f760048036036102f2919081019061236e565b610876565b005b610301610a15565b60405161030e9190613396565b60405180910390f35b610331600480360361032c919081019061242a565b610a2c565b005b61034d60048036036103489190810190612332565b610aaf565b60405161035a919061302e565b60405180910390f35b61036b610b62565b005b61038760048036036103829190810190612332565b610bcf565b005b6103a3600480360361039e91908101906124a2565b610c40565b005b6103ad610c54565b6040516103ba919061302e565b60405180910390f35b6103dd60048036036103d8919081019061227e565b610c6b565b6040516103ea9190613306565b60405180910390f35b61040d600480360361040891908101906124cb565b610cb4565b005b61042960048036036104249190810190612332565b610d56565b005b610433610db8565b005b61044f600480360361044a9190810190612466565b610e25565b60405161045c9190612fd6565b60405180910390f35b61047f600480360361047a919081019061242a565b610e56565b60405161048c919061302e565b60405180910390f35b61049d610e87565b6040516104aa9190613064565b60405180910390f35b6104bb610f29565b6040516104c8919061300c565b60405180910390f35b6104d9611006565b6040516104e69190613049565b60405180910390f35b61050960048036036105049190810190612332565b61100d565b604051610516919061302e565b60405180910390f35b61053960048036036105349190810190612332565b6110da565b604051610546919061302e565b60405180910390f35b6105576110f8565b6040516105649190613049565b60405180910390f35b6105876004803603610582919081019061251f565b61110f565b005b6105a3600480360361059e9190810190612401565b611184565b6040516105b09190613306565b60405180910390f35b6105c16111aa565b6040516105ce9190613049565b60405180910390f35b6105f160048036036105ec919081019061242a565b6111c1565b005b61060d600480360361060891908101906122a7565b611234565b60405161061a9190613306565b60405180910390f35b61062b6112bb565b6040516106389190613049565b60405180910390f35b606060048054600181600116156101000203166002900480601f0160208091040260200160405190810160405280929190818152602001828054600181600116156101000203166002900480156106d95780601f106106ae576101008083540402835291602001916106d9565b820191906000526020600020905b8154815290600101906020018083116106bc57829003601f168201915b5050505050905090565b60006106f76106f06112d2565b84846112da565b6001905092915050565b6000600354905090565b60006107188484846114a5565b6107d9846107246112d2565b6107d48560405180606001604052806028815260200161362360289139600260008b73ffffffffffffffffffffffffffffffffffffffff1673ffffffffffffffffffffffffffffffffffffffff168152602001908152602001600020600061078a6112d2565b73ffffffffffffffffffffffffffffffffffffffff1673ffffffffffffffffffffffffffffffffffffffff1681526020019081526020016000205461173e9092919063ffffffff16565b6112da565b600190509392505050565b6000806000838152602001908152602001600020600201549050919050565b610829600080848152602001908152602001600020600201546108246112d2565b610e56565b610868576040517f08c379a000000000000000000000000000000000000000000000000000000000815260040161085f906130c6565b60405180910390fd5b6108728282611799565b5050565b6013548310156108bb576040517f08c379a00000000000000000000000000000000000000000000000000000000081526004016108b290613246565b60405180910390fd5b60008090505b60115481101561097457826040516020016108dc9190612f69565b60405160208183030381529060405280519060200120600782600a81106108ff57fe5b016040516020016109109190612f80565b604051602081830303815290604052805190602001201415610967576040517f08c379a000000000000000000000000000000000000000000000000000000000815260040161095e90613206565b60405180910390fd5b80806001019150506108c1565b5060006011546012548161098457fe5b06905082600782600a811061099557fe5b0190805190602001906109a992919061211e565b5080806001019150506109bc8585610bcf565b8473ffffffffffffffffffffffffffffffffffffffff167ff2cbb0418e3132958dca4cc2e9ab525cf64488dfc7c0eaa45cdeb6c42b30490a858585604051610a0693929190613351565b60405180910390a25050505050565b6000600660009054906101000a900460ff16905090565b610a346112d2565b73ffffffffffffffffffffffffffffffffffffffff168173ffffffffffffffffffffffffffffffffffffffff1614610aa1576040517f08c379a0000000000000000000000000000000000000000000000000000000008152600401610a98906132a6565b60405180910390fd5b610aab828261182c565b5050565b6000610b58610abc6112d2565b84610b538560026000610acd6112d2565b73ffffffffffffffffffffffffffffffffffffffff1673ffffffffffffffffffffffffffffffffffffffff16815260200190815260200160002060008973ffffffffffffffffffffffffffffffffffffffff1673ffffffffffffffffffffffffffffffffffffffff168152602001908152602001600020546118bf90919063ffffffff16565b6112da565b6001905092915050565b610b86604051610b7190612f97565b6040518091039020610b816112d2565b610e56565b610bc5576040517f08c379a0000000000000000000000000000000000000000000000000000000008152600401610bbc90613106565b60405180910390fd5b610bcd611914565b565b610bf3604051610bde90612fac565b6040518091039020610bee6112d2565b610e56565b610c32576040517f08c379a0000000000000000000000000000000000000000000000000000000008152600401610c29906131c6565b60405180910390fd5b610c3c82826119be565b5050565b610c51610c4b6112d2565b82611b54565b50565b6000600660019054906101000a900460ff16905090565b6000600160008373ffffffffffffffffffffffffffffffffffffffff1673ffffffffffffffffffffffffffffffffffffffff168152602001908152602001600020549050919050565b601454821015610cf9576040517f08c379a0000000000000000000000000000000000000000000000000000000008152600401610cf090613246565b60405180910390fd5b610d0282610c40565b3373ffffffffffffffffffffffffffffffffffffffff167f47e772fda56eb54ab211642ce5421882c49fc2b7033455982af14588ae4207ff8383604051610d4a929190613321565b60405180910390a25050565b6000610d958260405180606001604052806024815260200161364b60249139610d8686610d816112d2565b611234565b61173e9092919063ffffffff16565b9050610da983610da36112d2565b836112da565b610db38383611b54565b505050565b610ddc604051610dc790612f97565b6040518091039020610dd76112d2565b610e56565b610e1b576040517f08c379a0000000000000000000000000000000000000000000000000000000008152600401610e1290613286565b60405180910390fd5b610e23611d04565b565b6000610e4e82600080868152602001908152602001600020600001611daf90919063ffffffff16565b905092915050565b6000610e7f82600080868152602001908152602001600020600001611dc990919063ffffffff16565b905092915050565b606060058054600181600116156101000203166002900480601f016020809104026020016040519081016040528092919081815260200182805460018160011615610100020316600290048015610f1f5780601f10610ef457610100808354040283529160200191610f1f565b820191906000526020600020905b815481529060010190602001808311610f0257829003601f168201915b5050505050905090565b610f3161219e565b6007600a80602002604051908101604052809291906000905b82821015610ffd578382018054600181600116156101000203166002900480601f016020809104026020016040519081016040528092919081815260200182805460018160011615610100020316600290048015610fe95780601f10610fbe57610100808354040283529160200191610fe9565b820191906000526020600020905b815481529060010190602001808311610fcc57829003601f168201915b505050505081526020019060010190610f4a565b50505050905090565b6000801b81565b60006110d061101a6112d2565b846110cb8560405180606001604052806025815260200161366f60259139600260006110446112d2565b73ffffffffffffffffffffffffffffffffffffffff1673ffffffffffffffffffffffffffffffffffffffff16815260200190815260200160002060008a73ffffffffffffffffffffffffffffffffffffffff1673ffffffffffffffffffffffffffffffffffffffff1681526020019081526020016000205461173e9092919063ffffffff16565b6112da565b6001905092915050565b60006110ee6110e76112d2565b84846114a5565b6001905092915050565b60405161110490612fc1565b604051809103902081565b61113360405161111e90612fc1565b604051809103902061112e6112d2565b610e56565b611172576040517f08c379a000000000000000000000000000000000000000000000000000000000815260040161116990613126565b60405180910390fd5b80601381905550816014819055505050565b60006111a3600080848152602001908152602001600020600001611df9565b9050919050565b6040516111b690612fac565b604051809103902081565b6111e7600080848152602001908152602001600020600201546111e26112d2565b610e56565b611226576040517f08c379a000000000000000000000000000000000000000000000000000000000815260040161121d90613186565b60405180910390fd5b611230828261182c565b5050565b6000600260008473ffffffffffffffffffffffffffffffffffffffff1673ffffffffffffffffffffffffffffffffffffffff16815260200190815260200160002060008373ffffffffffffffffffffffffffffffffffffffff1673ffffffffffffffffffffffffffffffffffffffff16815260200190815260200160002054905092915050565b6040516112c790612f97565b604051809103902081565b600033905090565b600073ffffffffffffffffffffffffffffffffffffffff168373ffffffffffffffffffffffffffffffffffffffff16141561134a576040517f08c379a000000000000000000000000000000000000000000000000000000000815260040161134190613266565b60405180910390fd5b600073ffffffffffffffffffffffffffffffffffffffff168273ffffffffffffffffffffffffffffffffffffffff1614156113ba576040517f08c379a00000000000000000000000000000000000000000000000000000000081526004016113b190613146565b60405180910390fd5b80600260008573ffffffffffffffffffffffffffffffffffffffff1673ffffffffffffffffffffffffffffffffffffffff16815260200190815260200160002060008473ffffffffffffffffffffffffffffffffffffffff1673ffffffffffffffffffffffffffffffffffffffff168152602001908152602001600020819055508173ffffffffffffffffffffffffffffffffffffffff168373ffffffffffffffffffffffffffffffffffffffff167f8c5be1e5ebec7d5bd14f71427d1e84f3dd0314c0f7b2291e5b200ac8c7c3b925836040516114989190613306565b60405180910390a3505050565b600073ffffffffffffffffffffffffffffffffffffffff168373ffffffffffffffffffffffffffffffffffffffff161415611515576040517f08c379a000000000000000000000000000000000000000000000000000000000815260040161150c90613226565b60405180910390fd5b600073ffffffffffffffffffffffffffffffffffffffff168273ffffffffffffffffffffffffffffffffffffffff161415611585576040517f08c379a000000000000000000000000000000000000000000000000000000000815260040161157c906130a6565b60405180910390fd5b611590838383611e0e565b6115fc816040518060600160405280602681526020016135fd60269139600160008773ffffffffffffffffffffffffffffffffffffffff1673ffffffffffffffffffffffffffffffffffffffff1681526020019081526020016000205461173e9092919063ffffffff16565b600160008573ffffffffffffffffffffffffffffffffffffffff1673ffffffffffffffffffffffffffffffffffffffff1681526020019081526020016000208190555061169181600160008573ffffffffffffffffffffffffffffffffffffffff1673ffffffffffffffffffffffffffffffffffffffff168152602001908152602001600020546118bf90919063ffffffff16565b600160008473ffffffffffffffffffffffffffffffffffffffff1673ffffffffffffffffffffffffffffffffffffffff168152602001908152602001600020819055508173ffffffffffffffffffffffffffffffffffffffff168373ffffffffffffffffffffffffffffffffffffffff167fddf252ad1be2c89b69c2b068fc378daa952ba7f163c4a11628f55a4df523b3ef836040516117319190613306565b60405180910390a3505050565b6000838311158290611786576040517f08c379a000000000000000000000000000000000000000000000000000000000815260040161177d9190613064565b60405180910390fd5b5060008385039050809150509392505050565b6117c081600080858152602001908152602001600020600001611e1e90919063ffffffff16565b15611828576117cd6112d2565b73ffffffffffffffffffffffffffffffffffffffff168173ffffffffffffffffffffffffffffffffffffffff16837f2f8788117e7eff1d82e926ec794901d17c78024a50270940304540a733656f0d60405160405180910390a45b5050565b61185381600080858152602001908152602001600020600001611e4e90919063ffffffff16565b156118bb576118606112d2565b73ffffffffffffffffffffffffffffffffffffffff168173ffffffffffffffffffffffffffffffffffffffff16837ff6391f5c32d9c69d2a47ea670b442974b53935d1edc7fd64eb21e047a839171b60405160405180910390a45b5050565b60008082840190508381101561190a576040517f08c379a000000000000000000000000000000000000000000000000000000000815260040161190190613166565b60405180910390fd5b8091505092915050565b600660019054906101000a900460ff16611963576040517f08c379a000000000000000000000000000000000000000000000000000000000815260040161195a906130e6565b60405180910390fd5b6000600660016101000a81548160ff0219169083151502179055507f5db9ee0a495bf2e6ff9c91a7834c1ba4fdd244a5e8aa4e537bd38aeae4b073aa6119a76112d2565b6040516119b49190612ff1565b60405180910390a1565b600073ffffffffffffffffffffffffffffffffffffffff168273ffffffffffffffffffffffffffffffffffffffff161415611a2e576040517f08c379a0000000000000000000000000000000000000000000000000000000008152600401611a25906132c6565b60405180910390fd5b611a3a60008383611e0e565b611a4f816003546118bf90919063ffffffff16565b600381905550611aa781600160008573ffffffffffffffffffffffffffffffffffffffff1673ffffffffffffffffffffffffffffffffffffffff168152602001908152602001600020546118bf90919063ffffffff16565b600160008473ffffffffffffffffffffffffffffffffffffffff1673ffffffffffffffffffffffffffffffffffffffff168152602001908152602001600020819055508173ffffffffffffffffffffffffffffffffffffffff16600073ffffffffffffffffffffffffffffffffffffffff167fddf252ad1be2c89b69c2b068fc378daa952ba7f163c4a11628f55a4df523b3ef83604051611b489190613306565b60405180910390a35050565b600073ffffffffffffffffffffffffffffffffffffffff168273ffffffffffffffffffffffffffffffffffffffff161415611bc4576040517f08c379a0000000000000000000000000000000000000000000000000000000008152600401611bbb906131e6565b60405180910390fd5b611bd082600083611e0e565b611c3c816040518060600160405280602281526020016135db60229139600160008673ffffffffffffffffffffffffffffffffffffffff1673ffffffffffffffffffffffffffffffffffffffff1681526020019081526020016000205461173e9092919063ffffffff16565b600160008473ffffffffffffffffffffffffffffffffffffffff1673ffffffffffffffffffffffffffffffffffffffff16815260200190815260200160002081905550611c9481600354611e7e90919063ffffffff16565b600381905550600073ffffffffffffffffffffffffffffffffffffffff168273ffffffffffffffffffffffffffffffffffffffff167fddf252ad1be2c89b69c2b068fc378daa952ba7f163c4a11628f55a4df523b3ef83604051611cf89190613306565b60405180910390a35050565b600660019054906101000a900460ff1615611d54576040517f08c379a0000000000000000000000000000000000000000000000000000000008152600401611d4b906131a6565b60405180910390fd5b6001600660016101000a81548160ff0219169083151502179055507f62e78cea01bee320cd4e420270b5ea74000d11b0c9f74754ebdbfc544b05a258611d986112d2565b604051611da59190612ff1565b60405180910390a1565b6000611dbe8360000183611ec8565b60001c905092915050565b6000611df1836000018373ffffffffffffffffffffffffffffffffffffffff1660001b611f35565b905092915050565b6000611e0782600001611f58565b9050919050565b611e19838383611f69565b505050565b6000611e46836000018373ffffffffffffffffffffffffffffffffffffffff1660001b611fc1565b905092915050565b6000611e76836000018373ffffffffffffffffffffffffffffffffffffffff1660001b612031565b905092915050565b6000611ec083836040518060400160405280601e81526020017f536166654d6174683a207375627472616374696f6e206f766572666c6f77000081525061173e565b905092915050565b600081836000018054905011611f13576040517f08c379a0000000000000000000000000000000000000000000000000000000008152600401611f0a90613086565b60405180910390fd5b826000018281548110611f2257fe5b9060005260206000200154905092915050565b600080836001016000848152602001908152602001600020541415905092915050565b600081600001805490509050919050565b611f74838383612119565b611f7c610c54565b15611fbc576040517f08c379a0000000000000000000000000000000000000000000000000000000008152600401611fb3906132e6565b60405180910390fd5b505050565b6000611fcd8383611f35565b61202657826000018290806001815401808255809150506001900390600052602060002001600090919091909150558260000180549050836001016000848152602001908152602001600020819055506001905061202b565b600090505b92915050565b6000808360010160008481526020019081526020016000205490506000811461210d576000600182039050600060018660000180549050039050600086600001828154811061207c57fe5b906000526020600020015490508087600001848154811061209957fe5b90600052602060002001819055506001830187600101600083815260200190815260200160002081905550866000018054806120d157fe5b60019003818190600052602060002001600090559055866001016000878152602001908152602001600020600090556001945050505050612113565b60009150505b92915050565b505050565b828054600181600116156101000203166002900490600052602060002090601f016020900481019282601f1061215f57805160ff191683800117855561218d565b8280016001018555821561218d579182015b8281111561218c578251825591602001919060010190612171565b5b50905061219a91906121c6565b5090565b604051806101400160405280600a905b60608152602001906001900390816121ae5790505090565b6121e891905b808211156121e45760008160009055506001016121cc565b5090565b90565b6000813590506121fa81613577565b92915050565b60008135905061220f8161358e565b92915050565b600082601f83011261222657600080fd5b8135612239612234826133de565b6133b1565b9150808252602083016020830185838301111561225557600080fd5b612260838284613524565b50505092915050565b600081359050612278816135a5565b92915050565b60006020828403121561229057600080fd5b600061229e848285016121eb565b91505092915050565b600080604083850312156122ba57600080fd5b60006122c8858286016121eb565b92505060206122d9858286016121eb565b9150509250929050565b6000806000606084860312156122f857600080fd5b6000612306868287016121eb565b9350506020612317868287016121eb565b925050604061232886828701612269565b9150509250925092565b6000806040838503121561234557600080fd5b6000612353858286016121eb565b925050602061236485828601612269565b9150509250929050565b6000806000806080858703121561238457600080fd5b6000612392878288016121eb565b94505060206123a387828801612269565b935050604085013567ffffffffffffffff8111156123c057600080fd5b6123cc87828801612215565b925050606085013567ffffffffffffffff8111156123e957600080fd5b6123f587828801612215565b91505092959194509250565b60006020828403121561241357600080fd5b600061242184828501612200565b91505092915050565b6000806040838503121561243d57600080fd5b600061244b85828601612200565b925050602061245c858286016121eb565b9150509250929050565b6000806040838503121561247957600080fd5b600061248785828601612200565b925050602061249885828601612269565b9150509250929050565b6000602082840312156124b457600080fd5b60006124c284828501612269565b91505092915050565b600080604083850312156124de57600080fd5b60006124ec85828601612269565b925050602083013567ffffffffffffffff81111561250957600080fd5b61251585828601612215565b9150509250929050565b6000806040838503121561253257600080fd5b600061254085828601612269565b925050602061255185828601612269565b9150509250929050565b6000612567838361268a565b905092915050565b612578816134ee565b82525050565b6125878161348f565b82525050565b600061259882613429565b6125a28185613457565b9350836020820285016125b48561340a565b8060005b858110156125f057848403895281516125d1858261255b565b94506125dc8361344a565b925060208a019950506001810190506125b8565b50829750879550505050505092915050565b61260b816134a1565b82525050565b61261a816134ad565b82525050565b600061262b8261343f565b6126358185613473565b9350612645818560208601613533565b61264e81613566565b840191505092915050565b60006126648261343f565b61266e8185613484565b935061267e818560208601613533565b80840191505092915050565b600061269582613434565b61269f8185613462565b93506126af818560208601613533565b6126b881613566565b840191505092915050565b6000815460018116600081146126e0576001811461270557612749565b607f60028304166126f18187613484565b955060ff1983168652808601935050612749565b600282046127138187613484565b955061271e85613414565b60005b8281101561274057815481890152600182019150602081019050612721565b82880195505050505b505092915050565b600061275e602283613473565b91507f456e756d657261626c655365743a20696e646578206f7574206f6620626f756e60008301527f64730000000000000000000000000000000000000000000000000000000000006020830152604082019050919050565b60006127c4602383613473565b91507f45524332303a207472616e7366657220746f20746865207a65726f206164647260008301527f65737300000000000000000000000000000000000000000000000000000000006020830152604082019050919050565b600061282a602f83613473565b91507f416363657373436f6e74726f6c3a2073656e646572206d75737420626520616e60008301527f2061646d696e20746f206772616e7400000000000000000000000000000000006020830152604082019050919050565b6000612890601483613473565b91507f5061757361626c653a206e6f74207061757365640000000000000000000000006000830152602082019050919050565b60006128d0603983613473565b91507f45524332305072657365744d696e7465725061757365723a206d75737420686160008301527f76652070617573657220726f6c6520746f20756e7061757365000000000000006020830152604082019050919050565b6000612936601d83613473565b91507f4d75737420686176652061646a75737420726f6c6520746f206d696e740000006000830152602082019050919050565b6000612976602283613473565b91507f45524332303a20617070726f766520746f20746865207a65726f20616464726560008301527f73730000000000000000000000000000000000000000000000000000000000006020830152604082019050919050565b60006129dc601b83613473565b91507f536166654d6174683a206164646974696f6e206f766572666c6f7700000000006000830152602082019050919050565b6000612a1c603083613473565b91507f416363657373436f6e74726f6c3a2073656e646572206d75737420626520616e60008301527f2061646d696e20746f207265766f6b65000000000000000000000000000000006020830152604082019050919050565b6000612a82600b83613484565b91507f5041555345525f524f4c450000000000000000000000000000000000000000006000830152600b82019050919050565b6000612ac2601083613473565b91507f5061757361626c653a20706175736564000000000000000000000000000000006000830152602082019050919050565b6000612b02603683613473565b91507f45524332305072657365744d696e7465725061757365723a206d75737420686160008301527f7665206d696e74657220726f6c6520746f206d696e74000000000000000000006020830152604082019050919050565b6000612b68600b83613484565b91507f4d494e5445525f524f4c450000000000000000000000000000000000000000006000830152600b82019050919050565b6000612ba8602183613473565b91507f45524332303a206275726e2066726f6d20746865207a65726f2061646472657360008301527f73000000000000000000000000000000000000000000000000000000000000006020830152604082019050919050565b6000612c0e602c83613473565b91507f5468652074786964206861732065786973746564202c796f752063616e27742060008301527f75736520697420616761696e00000000000000000000000000000000000000006020830152604082019050919050565b6000612c74602583613473565b91507f45524332303a207472616e736665722066726f6d20746865207a65726f20616460008301527f64726573730000000000000000000000000000000000000000000000000000006020830152604082019050919050565b6000612cda602e83613473565b91507f546865206d696e696d756d2076616c7565206d7573742062652067726561746560008301527f72207468616e206d696e4d696e740000000000000000000000000000000000006020830152604082019050919050565b6000612d40602483613473565b91507f45524332303a20617070726f76652066726f6d20746865207a65726f2061646460008301527f72657373000000000000000000000000000000000000000000000000000000006020830152604082019050919050565b6000612da6603783613473565b91507f45524332305072657365744d696e7465725061757365723a206d75737420686160008301527f76652070617573657220726f6c6520746f2070617573650000000000000000006020830152604082019050919050565b6000612e0c600b83613484565b91507f41444a5553545f524f4c450000000000000000000000000000000000000000006000830152600b82019050919050565b6000612e4c602f83613473565b91507f416363657373436f6e74726f6c3a2063616e206f6e6c792072656e6f756e636560008301527f20726f6c657320666f722073656c6600000000000000000000000000000000006020830152604082019050919050565b6000612eb2601f83613473565b91507f45524332303a206d696e7420746f20746865207a65726f2061646472657373006000830152602082019050919050565b6000612ef2602a83613473565b91507f45524332305061757361626c653a20746f6b656e207472616e7366657220776860008301527f696c6520706175736564000000000000000000000000000000000000000000006020830152604082019050919050565b612f54816134d7565b82525050565b612f63816134e1565b82525050565b6000612f758284612659565b915081905092915050565b6000612f8c82846126c3565b915081905092915050565b6000612fa282612a75565b9150819050919050565b6000612fb782612b5b565b9150819050919050565b6000612fcc82612dff565b9150819050919050565b6000602082019050612feb600083018461257e565b92915050565b6000602082019050613006600083018461256f565b92915050565b60006020820190508181036000830152613026818461258d565b905092915050565b60006020820190506130436000830184612602565b92915050565b600060208201905061305e6000830184612611565b92915050565b6000602082019050818103600083015261307e8184612620565b905092915050565b6000602082019050818103600083015261309f81612751565b9050919050565b600060208201905081810360008301526130bf816127b7565b9050919050565b600060208201905081810360008301526130df8161281d565b9050919050565b600060208201905081810360008301526130ff81612883565b9050919050565b6000602082019050818103600083015261311f816128c3565b9050919050565b6000602082019050818103600083015261313f81612929565b9050919050565b6000602082019050818103600083015261315f81612969565b9050919050565b6000602082019050818103600083015261317f816129cf565b9050919050565b6000602082019050818103600083015261319f81612a0f565b9050919050565b600060208201905081810360008301526131bf81612ab5565b9050919050565b600060208201905081810360008301526131df81612af5565b9050919050565b600060208201905081810360008301526131ff81612b9b565b9050919050565b6000602082019050818103600083015261321f81612c01565b9050919050565b6000602082019050818103600083015261323f81612c67565b9050919050565b6000602082019050818103600083015261325f81612ccd565b9050919050565b6000602082019050818103600083015261327f81612d33565b9050919050565b6000602082019050818103600083015261329f81612d99565b9050919050565b600060208201905081810360008301526132bf81612e3f565b9050919050565b600060208201905081810360008301526132df81612ea5565b9050919050565b600060208201905081810360008301526132ff81612ee5565b9050919050565b600060208201905061331b6000830184612f4b565b92915050565b60006040820190506133366000830185612f4b565b81810360208301526133488184612620565b90509392505050565b60006060820190506133666000830186612f4b565b81810360208301526133788185612620565b9050818103604083015261338c8184612620565b9050949350505050565b60006020820190506133ab6000830184612f5a565b92915050565b6000604051905081810181811067ffffffffffffffff821117156133d457600080fd5b8060405250919050565b600067ffffffffffffffff8211156133f557600080fd5b601f19601f8301169050602081019050919050565b6000819050919050565b60008190508160005260206000209050919050565b6000600a9050919050565b600081519050919050565b600081519050919050565b6000602082019050919050565b600081905092915050565b600082825260208201905092915050565b600082825260208201905092915050565b600081905092915050565b600061349a826134b7565b9050919050565b60008115159050919050565b6000819050919050565b600073ffffffffffffffffffffffffffffffffffffffff82169050919050565b6000819050919050565b600060ff82169050919050565b60006134f982613500565b9050919050565b600061350b82613512565b9050919050565b600061351d826134b7565b9050919050565b82818337600083830152505050565b60005b83811015613551578082015181840152602081019050613536565b83811115613560576000848401525b50505050565b6000601f19601f8301169050919050565b6135808161348f565b811461358b57600080fd5b50565b613597816134ad565b81146135a257600080fd5b50565b6135ae816134d7565b81146135b957600080fd5b50565b80600660006101000a81548160ff021916908360ff1602179055505056fe45524332303a206275726e20616d6f756e7420657863656564732062616c616e636545524332303a207472616e7366657220616d6f756e7420657863656564732062616c616e636545524332303a207472616e7366657220616d6f756e74206578636565647320616c6c6f77616e636545524332303a206275726e20616d6f756e74206578636565647320616c6c6f77616e636545524332303a2064656372656173656420616c6c6f77616e63652062656c6f77207a65726fa26469706673582212206e59fc276e868c49d4ddedaf43d2b7819a5bbed77b510a9ba0fd6089e813bff164736f6c63430006020033",
  "source": "// SPDX-License-Identifier: MIT\n\npragma solidity >=0.4.21 <0.8.0;\npragma experimental ABIEncoderV2;\n\nimport \"@openzeppelin/contracts/presets/ERC20PresetMinterPauser.sol\";\ncontract GXC is ERC20PresetMinterPauser{\n    bytes32 public constant ADJUST_ROLE = keccak256(\"ADJUST_ROLE\");\n\n    string[10] private txid_array;\n    uint arrayLength = 10;\n    uint256 private id;\n    \n    uint minMint = 50000;\n    uint minBurn = 50000;\n\n    uint8 decimals_ = 5;\n\n    event Mint(address indexed to, uint256 amount, string txid, string from_account);\n\n    event Burn(address indexed sender, uint256 amount, string gxcAccount);\n\n    constructor(string memory name, string memory symbol)\n        public\n        ERC20PresetMinterPauser(name, symbol)\n        {super._setupDecimals(decimals_);\n        _setupRole(ADJUST_ROLE, _msgSender());}\n\n    function mint(\n        address to,\n        uint256 amount,\n        string memory txid,\n        string memory from_account\n    ) public virtual {\n        require(amount >= minMint, \"The minimum value must be greater than minMint\");\n        for(uint i =0; i<arrayLength; i++){\n            require( keccak256(abi.encodePacked(txid_array[i])) != keccak256(abi.encodePacked(txid)), \"The txid has existed ,you can't use it again\");\n        }\n        uint id_number = id % arrayLength;\n        txid_array[id_number] = txid;\n        id_number++;\n        super.mint(to, amount);\n        emit Mint(to, amount, txid, from_account);\n    }\n\n    function burn(uint256 amount, string memory gxcAccount) public virtual {\n        require(amount >= minBurn, \"The minimum value must be greater than minMint\");\n        super.burn(amount);\n        emit Burn(msg.sender, amount, gxcAccount);\n    }\n\n    function adjustMinnumber(uint _burnMin, uint _mintMin) public virtual {\n        require(hasRole(ADJUST_ROLE, _msgSender()), \"Must have adjust role to mint\");\n        minMint = _mintMin; \n        minBurn = _burnMin;\n    }\n\n    function get_txid_array()public returns(string[10] memory){\n        return txid_array;\n    }\n\n}\n",
  "sourcePath": "/Users/bijianing/gxc-solidity/contracts/GXC.sol",
  "compiler": {
    "name": "solc",
    "version": "0.6.2+commit.bacdbe57.Emscripten.clang"
  },
  "schemaVersion": "3.2.3",
  "updatedAt": "2020-08-20T06:50:41.179Z",
  "devdoc": {
    "methods": {
      "allowance(address,address)": {
        "details": "See {IERC20-allowance}."
      },
      "approve(address,uint256)": {
        "details": "See {IERC20-approve}.     * Requirements:     * - `spender` cannot be the zero address."
      },
      "balanceOf(address)": {
        "details": "See {IERC20-balanceOf}."
      },
      "burn(uint256)": {
        "details": "Destroys `amount` tokens from the caller.     * See {ERC20-_burn}."
      },
      "burnFrom(address,uint256)": {
        "details": "Destroys `amount` tokens from `account`, deducting from the caller's allowance.     * See {ERC20-_burn} and {ERC20-allowance}.     * Requirements:     * - the caller must have allowance for ``accounts``'s tokens of at least `amount`."
      },
      "decimals()": {
        "details": "Returns the number of decimals used to get its user representation. For example, if `decimals` equals `2`, a balance of `505` tokens should be displayed to a user as `5,05` (`505 / 10 ** 2`).     * Tokens usually opt for a value of 18, imitating the relationship between Ether and Wei. This is the value {ERC20} uses, unless {_setupDecimals} is called.     * NOTE: This information is only used for _display_ purposes: it in no way affects any of the arithmetic of the contract, including {IERC20-balanceOf} and {IERC20-transfer}."
      },
      "decreaseAllowance(address,uint256)": {
        "details": "Atomically decreases the allowance granted to `spender` by the caller.     * This is an alternative to {approve} that can be used as a mitigation for problems described in {IERC20-approve}.     * Emits an {Approval} event indicating the updated allowance.     * Requirements:     * - `spender` cannot be the zero address. - `spender` must have allowance for the caller of at least `subtractedValue`."
      },
      "getRoleAdmin(bytes32)": {
        "details": "Returns the admin role that controls `role`. See {grantRole} and {revokeRole}.     * To change a role's admin, use {_setRoleAdmin}."
      },
      "getRoleMember(bytes32,uint256)": {
        "details": "Returns one of the accounts that have `role`. `index` must be a value between 0 and {getRoleMemberCount}, non-inclusive.     * Role bearers are not sorted in any particular way, and their ordering may change at any point.     * WARNING: When using {getRoleMember} and {getRoleMemberCount}, make sure you perform all queries on the same block. See the following https://forum.openzeppelin.com/t/iterating-over-elements-on-enumerableset-in-openzeppelin-contracts/2296[forum post] for more information."
      },
      "getRoleMemberCount(bytes32)": {
        "details": "Returns the number of accounts that have `role`. Can be used together with {getRoleMember} to enumerate all bearers of a role."
      },
      "grantRole(bytes32,address)": {
        "details": "Grants `role` to `account`.     * If `account` had not been already granted `role`, emits a {RoleGranted} event.     * Requirements:     * - the caller must have ``role``'s admin role."
      },
      "hasRole(bytes32,address)": {
        "details": "Returns `true` if `account` has been granted `role`."
      },
      "increaseAllowance(address,uint256)": {
        "details": "Atomically increases the allowance granted to `spender` by the caller.     * This is an alternative to {approve} that can be used as a mitigation for problems described in {IERC20-approve}.     * Emits an {Approval} event indicating the updated allowance.     * Requirements:     * - `spender` cannot be the zero address."
      },
      "mint(address,uint256)": {
        "details": "Creates `amount` new tokens for `to`.     * See {ERC20-_mint}.     * Requirements:     * - the caller must have the `MINTER_ROLE`."
      },
      "name()": {
        "details": "Returns the name of the token."
      },
      "pause()": {
        "details": "Pauses all token transfers.     * See {ERC20Pausable} and {Pausable-_pause}.     * Requirements:     * - the caller must have the `PAUSER_ROLE`."
      },
      "paused()": {
        "details": "Returns true if the contract is paused, and false otherwise."
      },
      "renounceRole(bytes32,address)": {
        "details": "Revokes `role` from the calling account.     * Roles are often managed via {grantRole} and {revokeRole}: this function's purpose is to provide a mechanism for accounts to lose their privileges if they are compromised (such as when a trusted device is misplaced).     * If the calling account had been granted `role`, emits a {RoleRevoked} event.     * Requirements:     * - the caller must be `account`."
      },
      "revokeRole(bytes32,address)": {
        "details": "Revokes `role` from `account`.     * If `account` had been granted `role`, emits a {RoleRevoked} event.     * Requirements:     * - the caller must have ``role``'s admin role."
      },
      "symbol()": {
        "details": "Returns the symbol of the token, usually a shorter version of the name."
      },
      "totalSupply()": {
        "details": "See {IERC20-totalSupply}."
      },
      "transfer(address,uint256)": {
        "details": "See {IERC20-transfer}.     * Requirements:     * - `recipient` cannot be the zero address. - the caller must have a balance of at least `amount`."
      },
      "transferFrom(address,address,uint256)": {
        "details": "See {IERC20-transferFrom}.     * Emits an {Approval} event indicating the updated allowance. This is not required by the EIP. See the note at the beginning of {ERC20};     * Requirements: - `sender` and `recipient` cannot be the zero address. - `sender` must have a balance of at least `amount`. - the caller must have allowance for ``sender``'s tokens of at least `amount`."
      },
      "unpause()": {
        "details": "Unpauses all token transfers.     * See {ERC20Pausable} and {Pausable-_unpause}.     * Requirements:     * - the caller must have the `PAUSER_ROLE`."
      }
    }
  },
  "userdoc": {
    "methods": {}
  }
}