{
  "contractName": "GXC",
  "abi": [
    {
      "inputs": [
        {
          "internalType": "string",
          "name": "name",
          "type": "string"
        },
        {
          "internalType": "string",
          "name": "symbol",
          "type": "string"
        }
      ],
      "stateMutability": "nonpayable",
      "type": "constructor"
    },
    {
      "anonymous": false,
      "inputs": [
        {
          "indexed": true,
          "internalType": "address",
          "name": "owner",
          "type": "address"
        },
        {
          "indexed": true,
          "internalType": "address",
          "name": "spender",
          "type": "address"
        },
        {
          "indexed": false,
          "internalType": "uint256",
          "name": "value",
          "type": "uint256"
        }
      ],
      "name": "Approval",
      "type": "event"
    },
    {
      "anonymous": false,
      "inputs": [
        {
          "indexed": true,
          "internalType": "address",
          "name": "from",
          "type": "address"
        },
        {
          "indexed": false,
          "internalType": "uint256",
          "name": "amount",
          "type": "uint256"
        },
        {
          "indexed": false,
          "internalType": "string",
          "name": "to",
          "type": "string"
        }
      ],
      "name": "Burn",
      "type": "event"
    },
    {
      "anonymous": false,
      "inputs": [
        {
          "indexed": true,
          "internalType": "address",
          "name": "to",
          "type": "address"
        },
        {
          "indexed": false,
          "internalType": "uint256",
          "name": "amount",
          "type": "uint256"
        },
        {
          "indexed": false,
          "internalType": "string",
          "name": "from",
          "type": "string"
        },
        {
          "indexed": false,
          "internalType": "string",
          "name": "txid",
          "type": "string"
        }
      ],
      "name": "Deliver",
      "type": "event"
    },
    {
      "anonymous": false,
      "inputs": [
        {
          "indexed": false,
          "internalType": "address",
          "name": "account",
          "type": "address"
        }
      ],
      "name": "Paused",
      "type": "event"
    },
    {
      "anonymous": false,
      "inputs": [
        {
          "indexed": true,
          "internalType": "bytes32",
          "name": "role",
          "type": "bytes32"
        },
        {
          "indexed": true,
          "internalType": "bytes32",
          "name": "previousAdminRole",
          "type": "bytes32"
        },
        {
          "indexed": true,
          "internalType": "bytes32",
          "name": "newAdminRole",
          "type": "bytes32"
        }
      ],
      "name": "RoleAdminChanged",
      "type": "event"
    },
    {
      "anonymous": false,
      "inputs": [
        {
          "indexed": true,
          "internalType": "bytes32",
          "name": "role",
          "type": "bytes32"
        },
        {
          "indexed": true,
          "internalType": "address",
          "name": "account",
          "type": "address"
        },
        {
          "indexed": true,
          "internalType": "address",
          "name": "sender",
          "type": "address"
        }
      ],
      "name": "RoleGranted",
      "type": "event"
    },
    {
      "anonymous": false,
      "inputs": [
        {
          "indexed": true,
          "internalType": "bytes32",
          "name": "role",
          "type": "bytes32"
        },
        {
          "indexed": true,
          "internalType": "address",
          "name": "account",
          "type": "address"
        },
        {
          "indexed": true,
          "internalType": "address",
          "name": "sender",
          "type": "address"
        }
      ],
      "name": "RoleRevoked",
      "type": "event"
    },
    {
      "anonymous": false,
      "inputs": [
        {
          "indexed": true,
          "internalType": "address",
          "name": "from",
          "type": "address"
        },
        {
          "indexed": true,
          "internalType": "address",
          "name": "to",
          "type": "address"
        },
        {
          "indexed": false,
          "internalType": "uint256",
          "name": "value",
          "type": "uint256"
        }
      ],
      "name": "Transfer",
      "type": "event"
    },
    {
      "anonymous": false,
      "inputs": [
        {
          "indexed": false,
          "internalType": "address",
          "name": "account",
          "type": "address"
        }
      ],
      "name": "Unpaused",
      "type": "event"
    },
    {
      "inputs": [],
      "name": "ADJUST_ROLE",
      "outputs": [
        {
          "internalType": "bytes32",
          "name": "",
          "type": "bytes32"
        }
      ],
      "stateMutability": "view",
      "type": "function",
      "constant": true
    },
    {
      "inputs": [],
      "name": "DEFAULT_ADMIN_ROLE",
      "outputs": [
        {
          "internalType": "bytes32",
          "name": "",
          "type": "bytes32"
        }
      ],
      "stateMutability": "view",
      "type": "function",
      "constant": true
    },
    {
      "inputs": [],
      "name": "DELIVER_ROLE",
      "outputs": [
        {
          "internalType": "bytes32",
          "name": "",
          "type": "bytes32"
        }
      ],
      "stateMutability": "view",
      "type": "function",
      "constant": true
    },
    {
      "inputs": [],
      "name": "MINTER_ROLE",
      "outputs": [
        {
          "internalType": "bytes32",
          "name": "",
          "type": "bytes32"
        }
      ],
      "stateMutability": "view",
      "type": "function",
      "constant": true
    },
    {
      "inputs": [],
      "name": "PAUSER_ROLE",
      "outputs": [
        {
          "internalType": "bytes32",
          "name": "",
          "type": "bytes32"
        }
      ],
      "stateMutability": "view",
      "type": "function",
      "constant": true
    },
    {
      "inputs": [
        {
          "internalType": "address",
          "name": "owner",
          "type": "address"
        },
        {
          "internalType": "address",
          "name": "spender",
          "type": "address"
        }
      ],
      "name": "allowance",
      "outputs": [
        {
          "internalType": "uint256",
          "name": "",
          "type": "uint256"
        }
      ],
      "stateMutability": "view",
      "type": "function",
      "constant": true
    },
    {
      "inputs": [
        {
          "internalType": "address",
          "name": "spender",
          "type": "address"
        },
        {
          "internalType": "uint256",
          "name": "amount",
          "type": "uint256"
        }
      ],
      "name": "approve",
      "outputs": [
        {
          "internalType": "bool",
          "name": "",
          "type": "bool"
        }
      ],
      "stateMutability": "nonpayable",
      "type": "function"
    },
    {
      "inputs": [
        {
          "internalType": "address",
          "name": "account",
          "type": "address"
        }
      ],
      "name": "balanceOf",
      "outputs": [
        {
          "internalType": "uint256",
          "name": "",
          "type": "uint256"
        }
      ],
      "stateMutability": "view",
      "type": "function",
      "constant": true
    },
    {
      "inputs": [
        {
          "internalType": "address",
          "name": "account",
          "type": "address"
        },
        {
          "internalType": "uint256",
          "name": "amount",
          "type": "uint256"
        }
      ],
      "name": "burnFrom",
      "outputs": [],
      "stateMutability": "nonpayable",
      "type": "function"
    },
    {
      "inputs": [],
      "name": "decimals",
      "outputs": [
        {
          "internalType": "uint8",
          "name": "",
          "type": "uint8"
        }
      ],
      "stateMutability": "view",
      "type": "function",
      "constant": true
    },
    {
      "inputs": [
        {
          "internalType": "address",
          "name": "spender",
          "type": "address"
        },
        {
          "internalType": "uint256",
          "name": "subtractedValue",
          "type": "uint256"
        }
      ],
      "name": "decreaseAllowance",
      "outputs": [
        {
          "internalType": "bool",
          "name": "",
          "type": "bool"
        }
      ],
      "stateMutability": "nonpayable",
      "type": "function"
    },
    {
      "inputs": [
        {
          "internalType": "bytes32",
          "name": "role",
          "type": "bytes32"
        }
      ],
      "name": "getRoleAdmin",
      "outputs": [
        {
          "internalType": "bytes32",
          "name": "",
          "type": "bytes32"
        }
      ],
      "stateMutability": "view",
      "type": "function",
      "constant": true
    },
    {
      "inputs": [
        {
          "internalType": "bytes32",
          "name": "role",
          "type": "bytes32"
        },
        {
          "internalType": "uint256",
          "name": "index",
          "type": "uint256"
        }
      ],
      "name": "getRoleMember",
      "outputs": [
        {
          "internalType": "address",
          "name": "",
          "type": "address"
        }
      ],
      "stateMutability": "view",
      "type": "function",
      "constant": true
    },
    {
      "inputs": [
        {
          "internalType": "bytes32",
          "name": "role",
          "type": "bytes32"
        }
      ],
      "name": "getRoleMemberCount",
      "outputs": [
        {
          "internalType": "uint256",
          "name": "",
          "type": "uint256"
        }
      ],
      "stateMutability": "view",
      "type": "function",
      "constant": true
    },
    {
      "inputs": [
        {
          "internalType": "bytes32",
          "name": "role",
          "type": "bytes32"
        },
        {
          "internalType": "address",
          "name": "account",
          "type": "address"
        }
      ],
      "name": "grantRole",
      "outputs": [],
      "stateMutability": "nonpayable",
      "type": "function"
    },
    {
      "inputs": [
        {
          "internalType": "bytes32",
          "name": "role",
          "type": "bytes32"
        },
        {
          "internalType": "address",
          "name": "account",
          "type": "address"
        }
      ],
      "name": "hasRole",
      "outputs": [
        {
          "internalType": "bool",
          "name": "",
          "type": "bool"
        }
      ],
      "stateMutability": "view",
      "type": "function",
      "constant": true
    },
    {
      "inputs": [
        {
          "internalType": "address",
          "name": "spender",
          "type": "address"
        },
        {
          "internalType": "uint256",
          "name": "addedValue",
          "type": "uint256"
        }
      ],
      "name": "increaseAllowance",
      "outputs": [
        {
          "internalType": "bool",
          "name": "",
          "type": "bool"
        }
      ],
      "stateMutability": "nonpayable",
      "type": "function"
    },
    {
      "inputs": [
        {
          "internalType": "address",
          "name": "to",
          "type": "address"
        },
        {
          "internalType": "uint256",
          "name": "amount",
          "type": "uint256"
        }
      ],
      "name": "mint",
      "outputs": [],
      "stateMutability": "nonpayable",
      "type": "function"
    },
    {
      "inputs": [],
      "name": "name",
      "outputs": [
        {
          "internalType": "string",
          "name": "",
          "type": "string"
        }
      ],
      "stateMutability": "view",
      "type": "function",
      "constant": true
    },
    {
      "inputs": [],
      "name": "pause",
      "outputs": [],
      "stateMutability": "nonpayable",
      "type": "function"
    },
    {
      "inputs": [],
      "name": "paused",
      "outputs": [
        {
          "internalType": "bool",
          "name": "",
          "type": "bool"
        }
      ],
      "stateMutability": "view",
      "type": "function",
      "constant": true
    },
    {
      "inputs": [
        {
          "internalType": "bytes32",
          "name": "role",
          "type": "bytes32"
        },
        {
          "internalType": "address",
          "name": "account",
          "type": "address"
        }
      ],
      "name": "renounceRole",
      "outputs": [],
      "stateMutability": "nonpayable",
      "type": "function"
    },
    {
      "inputs": [
        {
          "internalType": "bytes32",
          "name": "role",
          "type": "bytes32"
        },
        {
          "internalType": "address",
          "name": "account",
          "type": "address"
        }
      ],
      "name": "revokeRole",
      "outputs": [],
      "stateMutability": "nonpayable",
      "type": "function"
    },
    {
      "inputs": [],
      "name": "symbol",
      "outputs": [
        {
          "internalType": "string",
          "name": "",
          "type": "string"
        }
      ],
      "stateMutability": "view",
      "type": "function",
      "constant": true
    },
    {
      "inputs": [],
      "name": "totalSupply",
      "outputs": [
        {
          "internalType": "uint256",
          "name": "",
          "type": "uint256"
        }
      ],
      "stateMutability": "view",
      "type": "function",
      "constant": true
    },
    {
      "inputs": [
        {
          "internalType": "address",
          "name": "recipient",
          "type": "address"
        },
        {
          "internalType": "uint256",
          "name": "amount",
          "type": "uint256"
        }
      ],
      "name": "transfer",
      "outputs": [
        {
          "internalType": "bool",
          "name": "",
          "type": "bool"
        }
      ],
      "stateMutability": "nonpayable",
      "type": "function"
    },
    {
      "inputs": [
        {
          "internalType": "address",
          "name": "sender",
          "type": "address"
        },
        {
          "internalType": "address",
          "name": "recipient",
          "type": "address"
        },
        {
          "internalType": "uint256",
          "name": "amount",
          "type": "uint256"
        }
      ],
      "name": "transferFrom",
      "outputs": [
        {
          "internalType": "bool",
          "name": "",
          "type": "bool"
        }
      ],
      "stateMutability": "nonpayable",
      "type": "function"
    },
    {
      "inputs": [],
      "name": "unpause",
      "outputs": [],
      "stateMutability": "nonpayable",
      "type": "function"
    },
    {
      "inputs": [
        {
          "internalType": "address",
          "name": "to",
          "type": "address"
        },
        {
          "internalType": "uint256",
          "name": "amount",
          "type": "uint256"
        },
        {
          "internalType": "string",
          "name": "from",
          "type": "string"
        },
        {
          "internalType": "string",
          "name": "txid",
          "type": "string"
        }
      ],
      "name": "deliver",
      "outputs": [],
      "stateMutability": "nonpayable",
      "type": "function"
    },
    {
      "inputs": [
        {
          "internalType": "uint256",
          "name": "amount",
          "type": "uint256"
        }
      ],
      "name": "burn",
      "outputs": [],
      "stateMutability": "nonpayable",
      "type": "function"
    },
    {
      "inputs": [
        {
          "internalType": "uint256",
          "name": "amount",
          "type": "uint256"
        },
        {
          "internalType": "string",
          "name": "to",
          "type": "string"
        }
      ],
      "name": "burn",
      "outputs": [],
      "stateMutability": "nonpayable",
      "type": "function"
    },
    {
      "inputs": [
        {
          "internalType": "uint256",
          "name": "minDeliver",
          "type": "uint256"
        },
        {
          "internalType": "uint256",
          "name": "minBurn",
          "type": "uint256"
        }
      ],
      "name": "adjustParams",
      "outputs": [],
      "stateMutability": "nonpayable",
      "type": "function"
    },
    {
      "inputs": [],
      "name": "getParams",
      "outputs": [
        {
          "internalType": "uint256",
          "name": "",
          "type": "uint256"
        },
        {
          "internalType": "uint256",
          "name": "",
          "type": "uint256"
        }
      ],
      "stateMutability": "view",
      "type": "function",
      "constant": true
    },
    {
      "inputs": [],
      "name": "getTxids",
      "outputs": [
        {
          "internalType": "string[1000]",
          "name": "",
          "type": "string[1000]"
        }
      ],
      "stateMutability": "view",
      "type": "function",
      "constant": true
    }
  ],
  "bytecode": "0x60806040526103e86103ef5561c3506103f15561c3506103f25560056103f360006101000a81548160ff021916908360ff1602179055503480156200004357600080fd5b5060405162003fdc38038062003fdc83398181016040526200006991908101906200048d565b8181818181600490805190602001906200008592919062000382565b5080600590805190602001906200009e92919062000382565b506012600660006101000a81548160ff021916908360ff16021790555050506000600660016101000a81548160ff021916908315150217905550620000fc6000801b620000f0620001ce60201b60201c565b620001d660201b60201c565b620001326040516200010e90620005dd565b604051809103902062000126620001ce60201b60201c565b620001d660201b60201c565b620001686040516200014490620005c6565b60405180910390206200015c620001ce60201b60201c565b620001d660201b60201c565b5050620001906103f360009054906101000a900460ff16620001ec60201b620038181760201c565b620001c6604051620001a290620005f4565b6040518091039020620001ba620001ce60201b60201c565b620001d660201b60201c565b5050620006a7565b600033905090565b620001e882826200020a60201b60201c565b5050565b80600660006101000a81548160ff021916908360ff16021790555050565b6200023881600080858152602001908152602001600020600001620002ad60201b62001f141790919060201c565b15620002a9576200024e620001ce60201b60201c565b73ffffffffffffffffffffffffffffffffffffffff168173ffffffffffffffffffffffffffffffffffffffff16837f2f8788117e7eff1d82e926ec794901d17c78024a50270940304540a733656f0d60405160405180910390a45b5050565b6000620002dd836000018373ffffffffffffffffffffffffffffffffffffffff1660001b620002e560201b60201c565b905092915050565b6000620002f983836200035f60201b60201c565b6200035457826000018290806001815401808255809150506001900390600052602060002001600090919091909150558260000180549050836001016000848152602001908152602001600020819055506001905062000359565b600090505b92915050565b600080836001016000848152602001908152602001600020541415905092915050565b828054600181600116156101000203166002900490600052602060002090601f016020900481019282601f10620003c557805160ff1916838001178555620003f6565b82800160010185558215620003f6579182015b82811115620003f5578251825591602001919060010190620003d8565b5b50905062000405919062000409565b5090565b6200042e91905b808211156200042a57600081600090555060010162000410565b5090565b90565b600082601f8301126200044357600080fd5b81516200045a620004548262000639565b6200060b565b915080825260208301602083018583830111156200047757600080fd5b6200048483828462000671565b50505092915050565b60008060408385031215620004a157600080fd5b600083015167ffffffffffffffff811115620004bc57600080fd5b620004ca8582860162000431565b925050602083015167ffffffffffffffff811115620004e857600080fd5b620004f68582860162000431565b9150509250929050565b60006200050f600b8362000666565b91507f5041555345525f524f4c450000000000000000000000000000000000000000006000830152600b82019050919050565b600062000551600b8362000666565b91507f4d494e5445525f524f4c450000000000000000000000000000000000000000006000830152600b82019050919050565b600062000593600b8362000666565b91507f41444a5553545f524f4c450000000000000000000000000000000000000000006000830152600b82019050919050565b6000620005d38262000500565b9150819050919050565b6000620005ea8262000542565b9150819050919050565b6000620006018262000584565b9150819050919050565b6000604051905081810181811067ffffffffffffffff821117156200062f57600080fd5b8060405250919050565b600067ffffffffffffffff8211156200065157600080fd5b601f19601f8301169050602081019050919050565b600081905092915050565b60005b838110156200069157808201518184015260208101905062000674565b83811115620006a1576000848401525b50505050565b61392580620006b76000396000f3fe608060405234801561001057600080fd5b50600436106102065760003560e01c80637641e6f31161011a578063a9059cbb116100ad578063d336abab1161007c578063d336abab146105ee578063d53913931461060c578063d547741f1461062a578063dd62ed3e14610646578063e63ab1e91461067657610206565b8063a9059cbb14610552578063b0ab396814610582578063b10fe704146105a0578063ca15c873146105be57610206565b806391d14854116100e957806391d14854146104b657806395d89b41146104e6578063a217fddf14610504578063a457c2d71461052257610206565b80637641e6f31461044457806379cc6790146104605780638456cb591461047c5780639010d07c1461048657610206565b806336568abe1161019d57806342966c681161016c57806342966c681461039f5780635c975abb146103bb5780635e615a6b146103d95780637013cc56146103f857806370a082311461041457610206565b806336568abe1461032d57806339509351146103495780633f4ba83a1461037957806340c10f191461038357610206565b8063248a9ca3116101d9578063248a9ca3146102a75780632f2ff15d146102d7578063313ce567146102f357806334d4d1ac1461031157610206565b806306fdde031461020b578063095ea7b31461022957806318160ddd1461025957806323b872dd14610277575b600080fd5b610213610694565b6040516102209190613256565b60405180910390f35b610243600480360361023e9190810190612429565b610736565b6040516102509190613220565b60405180910390f35b610261610754565b60405161026e9190613538565b60405180910390f35b610291600480360361028c91908101906123da565b61075e565b60405161029e9190613220565b60405180910390f35b6102c160048036036102bc91908101906124f8565b610837565b6040516102ce919061323b565b60405180910390f35b6102f160048036036102ec9190810190612521565b610856565b005b6102fb6108c9565b60405161030891906135f1565b60405180910390f35b61032b60048036036103269190810190612465565b6108e0565b005b61034760048036036103429190810190612521565b610af4565b005b610363600480360361035e9190810190612429565b610b77565b6040516103709190613220565b60405180910390f35b610381610c2a565b005b61039d60048036036103989190810190612429565b610c97565b005b6103b960048036036103b49190810190612599565b610d08565b005b6103c3610d1c565b6040516103d09190613220565b60405180910390f35b6103e1610d33565b6040516103ef9291906135c8565b60405180910390f35b610412600480360361040d9190810190612616565b610d46565b005b61042e60048036036104299190810190612375565b610dbd565b60405161043b9190613538565b60405180910390f35b61045e600480360361045991908101906125c2565b610e06565b005b61047a60048036036104759190810190612429565b610ea9565b005b610484610f0b565b005b6104a0600480360361049b919081019061255d565b610f78565b6040516104ad91906131c8565b60405180910390f35b6104d060048036036104cb9190810190612521565b610fa9565b6040516104dd9190613220565b60405180910390f35b6104ee610fda565b6040516104fb9190613256565b60405180910390f35b61050c61107c565b604051610519919061323b565b60405180910390f35b61053c60048036036105379190810190612429565b611083565b6040516105499190613220565b60405180910390f35b61056c60048036036105679190810190612429565b611150565b6040516105799190613220565b60405180910390f35b61058a61116e565b604051610597919061323b565b60405180910390f35b6105a8611185565b6040516105b5919061323b565b60405180910390f35b6105d860048036036105d391908101906124f8565b61119c565b6040516105e59190613538565b60405180910390f35b6105f66111c2565b60405161060391906131fe565b60405180910390f35b6106146112a0565b604051610621919061323b565b60405180910390f35b610644600480360361063f9190810190612521565b6112b7565b005b610660600480360361065b919081019061239e565b61132a565b60405161066d9190613538565b60405180910390f35b61067e6113b1565b60405161068b919061323b565b60405180910390f35b606060048054600181600116156101000203166002900480601f01602080910402602001604051908101604052809291908181526020018280546001816001161561010002031660029004801561072c5780601f106107015761010080835404028352916020019161072c565b820191906000526020600020905b81548152906001019060200180831161070f57829003601f168201915b5050505050905090565b600061074a6107436113c8565b84846113d0565b6001905092915050565b6000600354905090565b600061076b84848461159b565b61082c846107776113c8565b6108278560405180606001604052806028815260200161387f60289139600260008b73ffffffffffffffffffffffffffffffffffffffff1673ffffffffffffffffffffffffffffffffffffffff16815260200190815260200160002060006107dd6113c8565b73ffffffffffffffffffffffffffffffffffffffff1673ffffffffffffffffffffffffffffffffffffffff168152602001908152602001600020546118349092919063ffffffff16565b6113d0565b600190509392505050565b6000806000838152602001908152602001600020600201549050919050565b61087c600080848152602001908152602001600020600201546108776113c8565b610fa9565b6108bb576040517f08c379a00000000000000000000000000000000000000000000000000000000081526004016108b2906132f8565b60405180910390fd5b6108c5828261188f565b5050565b6000600660009054906101000a900460ff16905090565b6103f154831015610926576040517f08c379a000000000000000000000000000000000000000000000000000000000815260040161091d906132d8565b60405180910390fd5b61094a604051610935906131b3565b60405180910390206109456113c8565b610fa9565b610989576040517f08c379a000000000000000000000000000000000000000000000000000000000815260040161098090613278565b60405180910390fd5b60008090505b6103ef54811015610a4457816040516020016109ab9190613146565b604051602081830303815290604052805190602001206007826103e881106109cf57fe5b016040516020016109e0919061315d565b604051602081830303815290604052805190602001201415610a37576040517f08c379a0000000000000000000000000000000000000000000000000000000008152600401610a2e90613358565b60405180910390fd5b808060010191505061098f565b5060006103ef546103f05481610a5657fe5b069050816007826103e88110610a6857fe5b019080519060200190610a7c929190612214565b506103f060008154809291906001019190505550610a9a8585611150565b508473ffffffffffffffffffffffffffffffffffffffff167f2eaa57a9d56759e13e05e8f969287ff64974682a9553833ff7de893eb5d490e7858585604051610ae593929190613583565b60405180910390a25050505050565b610afc6113c8565b73ffffffffffffffffffffffffffffffffffffffff168173ffffffffffffffffffffffffffffffffffffffff1614610b69576040517f08c379a0000000000000000000000000000000000000000000000000000000008152600401610b60906134d8565b60405180910390fd5b610b738282611922565b5050565b6000610c20610b846113c8565b84610c1b8560026000610b956113c8565b73ffffffffffffffffffffffffffffffffffffffff1673ffffffffffffffffffffffffffffffffffffffff16815260200190815260200160002060008973ffffffffffffffffffffffffffffffffffffffff1673ffffffffffffffffffffffffffffffffffffffff168152602001908152602001600020546119b590919063ffffffff16565b6113d0565b6001905092915050565b610c4e604051610c3990613174565b6040518091039020610c496113c8565b610fa9565b610c8d576040517f08c379a0000000000000000000000000000000000000000000000000000000008152600401610c8490613338565b60405180910390fd5b610c95611a0a565b565b610cbb604051610ca690613189565b6040518091039020610cb66113c8565b610fa9565b610cfa576040517f08c379a0000000000000000000000000000000000000000000000000000000008152600401610cf190613438565b60405180910390fd5b610d048282611ab4565b5050565b610d19610d136113c8565b82611c4a565b50565b6000600660019054906101000a900460ff16905090565b6000806103f1546103f254915091509091565b610d6a604051610d559061319e565b6040518091039020610d656113c8565b610fa9565b610da9576040517f08c379a0000000000000000000000000000000000000000000000000000000008152600401610da0906133b8565b60405180910390fd5b816103f181905550806103f2819055505050565b6000600160008373ffffffffffffffffffffffffffffffffffffffff1673ffffffffffffffffffffffffffffffffffffffff168152602001908152602001600020549050919050565b6103f254821015610e4c576040517f08c379a0000000000000000000000000000000000000000000000000000000008152600401610e43906133d8565b60405180910390fd5b610e5582610d08565b3373ffffffffffffffffffffffffffffffffffffffff167f47e772fda56eb54ab211642ce5421882c49fc2b7033455982af14588ae4207ff8383604051610e9d929190613553565b60405180910390a25050565b6000610ee8826040518060600160405280602481526020016138a760249139610ed986610ed46113c8565b61132a565b6118349092919063ffffffff16565b9050610efc83610ef66113c8565b836113d0565b610f068383611c4a565b505050565b610f2f604051610f1a90613174565b6040518091039020610f2a6113c8565b610fa9565b610f6e576040517f08c379a0000000000000000000000000000000000000000000000000000000008152600401610f65906134b8565b60405180910390fd5b610f76611dfa565b565b6000610fa182600080868152602001908152602001600020600001611ea590919063ffffffff16565b905092915050565b6000610fd282600080868152602001908152602001600020600001611ebf90919063ffffffff16565b905092915050565b606060058054600181600116156101000203166002900480601f0160208091040260200160405190810160405280929190818152602001828054600181600116156101000203166002900480156110725780601f1061104757610100808354040283529160200191611072565b820191906000526020600020905b81548152906001019060200180831161105557829003601f168201915b5050505050905090565b6000801b81565b60006111466110906113c8565b84611141856040518060600160405280602581526020016138cb60259139600260006110ba6113c8565b73ffffffffffffffffffffffffffffffffffffffff1673ffffffffffffffffffffffffffffffffffffffff16815260200190815260200160002060008a73ffffffffffffffffffffffffffffffffffffffff1673ffffffffffffffffffffffffffffffffffffffff168152602001908152602001600020546118349092919063ffffffff16565b6113d0565b6001905092915050565b600061116461115d6113c8565b848461159b565b6001905092915050565b60405161117a9061319e565b604051809103902081565b604051611191906131b3565b604051809103902081565b60006111bb600080848152602001908152602001600020600001611eef565b9050919050565b6111ca612294565b60076103e880602002604051908101604052809291906000905b82821015611297578382018054600181600116156101000203166002900480601f0160208091040260200160405190810160405280929190818152602001828054600181600116156101000203166002900480156112835780601f1061125857610100808354040283529160200191611283565b820191906000526020600020905b81548152906001019060200180831161126657829003601f168201915b5050505050815260200190600101906111e4565b50505050905090565b6040516112ac90613189565b604051809103902081565b6112dd600080848152602001908152602001600020600201546112d86113c8565b610fa9565b61131c576040517f08c379a0000000000000000000000000000000000000000000000000000000008152600401611313906133f8565b60405180910390fd5b6113268282611922565b5050565b6000600260008473ffffffffffffffffffffffffffffffffffffffff1673ffffffffffffffffffffffffffffffffffffffff16815260200190815260200160002060008373ffffffffffffffffffffffffffffffffffffffff1673ffffffffffffffffffffffffffffffffffffffff16815260200190815260200160002054905092915050565b6040516113bd90613174565b604051809103902081565b600033905090565b600073ffffffffffffffffffffffffffffffffffffffff168373ffffffffffffffffffffffffffffffffffffffff161415611440576040517f08c379a000000000000000000000000000000000000000000000000000000000815260040161143790613498565b60405180910390fd5b600073ffffffffffffffffffffffffffffffffffffffff168273ffffffffffffffffffffffffffffffffffffffff1614156114b0576040517f08c379a00000000000000000000000000000000000000000000000000000000081526004016114a790613378565b60405180910390fd5b80600260008573ffffffffffffffffffffffffffffffffffffffff1673ffffffffffffffffffffffffffffffffffffffff16815260200190815260200160002060008473ffffffffffffffffffffffffffffffffffffffff1673ffffffffffffffffffffffffffffffffffffffff168152602001908152602001600020819055508173ffffffffffffffffffffffffffffffffffffffff168373ffffffffffffffffffffffffffffffffffffffff167f8c5be1e5ebec7d5bd14f71427d1e84f3dd0314c0f7b2291e5b200ac8c7c3b9258360405161158e9190613538565b60405180910390a3505050565b600073ffffffffffffffffffffffffffffffffffffffff168373ffffffffffffffffffffffffffffffffffffffff16141561160b576040517f08c379a000000000000000000000000000000000000000000000000000000000815260040161160290613478565b60405180910390fd5b600073ffffffffffffffffffffffffffffffffffffffff168273ffffffffffffffffffffffffffffffffffffffff16141561167b576040517f08c379a0000000000000000000000000000000000000000000000000000000008152600401611672906132b8565b60405180910390fd5b611686838383611f04565b6116f28160405180606001604052806026815260200161385960269139600160008773ffffffffffffffffffffffffffffffffffffffff1673ffffffffffffffffffffffffffffffffffffffff168152602001908152602001600020546118349092919063ffffffff16565b600160008573ffffffffffffffffffffffffffffffffffffffff1673ffffffffffffffffffffffffffffffffffffffff1681526020019081526020016000208190555061178781600160008573ffffffffffffffffffffffffffffffffffffffff1673ffffffffffffffffffffffffffffffffffffffff168152602001908152602001600020546119b590919063ffffffff16565b600160008473ffffffffffffffffffffffffffffffffffffffff1673ffffffffffffffffffffffffffffffffffffffff168152602001908152602001600020819055508173ffffffffffffffffffffffffffffffffffffffff168373ffffffffffffffffffffffffffffffffffffffff167fddf252ad1be2c89b69c2b068fc378daa952ba7f163c4a11628f55a4df523b3ef836040516118279190613538565b60405180910390a3505050565b600083831115829061187c576040517f08c379a00000000000000000000000000000000000000000000000000000000081526004016118739190613256565b60405180910390fd5b5060008385039050809150509392505050565b6118b681600080858152602001908152602001600020600001611f1490919063ffffffff16565b1561191e576118c36113c8565b73ffffffffffffffffffffffffffffffffffffffff168173ffffffffffffffffffffffffffffffffffffffff16837f2f8788117e7eff1d82e926ec794901d17c78024a50270940304540a733656f0d60405160405180910390a45b5050565b61194981600080858152602001908152602001600020600001611f4490919063ffffffff16565b156119b1576119566113c8565b73ffffffffffffffffffffffffffffffffffffffff168173ffffffffffffffffffffffffffffffffffffffff16837ff6391f5c32d9c69d2a47ea670b442974b53935d1edc7fd64eb21e047a839171b60405160405180910390a45b5050565b600080828401905083811015611a00576040517f08c379a00000000000000000000000000000000000000000000000000000000081526004016119f790613398565b60405180910390fd5b8091505092915050565b600660019054906101000a900460ff16611a59576040517f08c379a0000000000000000000000000000000000000000000000000000000008152600401611a5090613318565b60405180910390fd5b6000600660016101000a81548160ff0219169083151502179055507f5db9ee0a495bf2e6ff9c91a7834c1ba4fdd244a5e8aa4e537bd38aeae4b073aa611a9d6113c8565b604051611aaa91906131e3565b60405180910390a1565b600073ffffffffffffffffffffffffffffffffffffffff168273ffffffffffffffffffffffffffffffffffffffff161415611b24576040517f08c379a0000000000000000000000000000000000000000000000000000000008152600401611b1b906134f8565b60405180910390fd5b611b3060008383611f04565b611b45816003546119b590919063ffffffff16565b600381905550611b9d81600160008573ffffffffffffffffffffffffffffffffffffffff1673ffffffffffffffffffffffffffffffffffffffff168152602001908152602001600020546119b590919063ffffffff16565b600160008473ffffffffffffffffffffffffffffffffffffffff1673ffffffffffffffffffffffffffffffffffffffff168152602001908152602001600020819055508173ffffffffffffffffffffffffffffffffffffffff16600073ffffffffffffffffffffffffffffffffffffffff167fddf252ad1be2c89b69c2b068fc378daa952ba7f163c4a11628f55a4df523b3ef83604051611c3e9190613538565b60405180910390a35050565b600073ffffffffffffffffffffffffffffffffffffffff168273ffffffffffffffffffffffffffffffffffffffff161415611cba576040517f08c379a0000000000000000000000000000000000000000000000000000000008152600401611cb190613458565b60405180910390fd5b611cc682600083611f04565b611d328160405180606001604052806022815260200161383760229139600160008673ffffffffffffffffffffffffffffffffffffffff1673ffffffffffffffffffffffffffffffffffffffff168152602001908152602001600020546118349092919063ffffffff16565b600160008473ffffffffffffffffffffffffffffffffffffffff1673ffffffffffffffffffffffffffffffffffffffff16815260200190815260200160002081905550611d8a81600354611f7490919063ffffffff16565b600381905550600073ffffffffffffffffffffffffffffffffffffffff168273ffffffffffffffffffffffffffffffffffffffff167fddf252ad1be2c89b69c2b068fc378daa952ba7f163c4a11628f55a4df523b3ef83604051611dee9190613538565b60405180910390a35050565b600660019054906101000a900460ff1615611e4a576040517f08c379a0000000000000000000000000000000000000000000000000000000008152600401611e4190613418565b60405180910390fd5b6001600660016101000a81548160ff0219169083151502179055507f62e78cea01bee320cd4e420270b5ea74000d11b0c9f74754ebdbfc544b05a258611e8e6113c8565b604051611e9b91906131e3565b60405180910390a1565b6000611eb48360000183611fbe565b60001c905092915050565b6000611ee7836000018373ffffffffffffffffffffffffffffffffffffffff1660001b61202b565b905092915050565b6000611efd8260000161204e565b9050919050565b611f0f83838361205f565b505050565b6000611f3c836000018373ffffffffffffffffffffffffffffffffffffffff1660001b6120b7565b905092915050565b6000611f6c836000018373ffffffffffffffffffffffffffffffffffffffff1660001b612127565b905092915050565b6000611fb683836040518060400160405280601e81526020017f536166654d6174683a207375627472616374696f6e206f766572666c6f770000815250611834565b905092915050565b600081836000018054905011612009576040517f08c379a000000000000000000000000000000000000000000000000000000000815260040161200090613298565b60405180910390fd5b82600001828154811061201857fe5b9060005260206000200154905092915050565b600080836001016000848152602001908152602001600020541415905092915050565b600081600001805490509050919050565b61206a83838361220f565b612072610d1c565b156120b2576040517f08c379a00000000000000000000000000000000000000000000000000000000081526004016120a990613518565b60405180910390fd5b505050565b60006120c3838361202b565b61211c578260000182908060018154018082558091505060019003906000526020600020016000909190919091505582600001805490508360010160008481526020019081526020016000208190555060019050612121565b600090505b92915050565b60008083600101600084815260200190815260200160002054905060008114612203576000600182039050600060018660000180549050039050600086600001828154811061217257fe5b906000526020600020015490508087600001848154811061218f57fe5b90600052602060002001819055506001830187600101600083815260200190815260200160002081905550866000018054806121c757fe5b60019003818190600052602060002001600090559055866001016000878152602001908152602001600020600090556001945050505050612209565b60009150505b92915050565b505050565b828054600181600116156101000203166002900490600052602060002090601f016020900481019282601f1061225557805160ff1916838001178555612283565b82800160010185558215612283579182015b82811115612282578251825591602001919060010190612267565b5b50905061229091906122bd565b5090565b60405180617d0001604052806103e8905b60608152602001906001900390816122a55790505090565b6122df91905b808211156122db5760008160009055506001016122c3565b5090565b90565b6000813590506122f1816137d3565b92915050565b600081359050612306816137ea565b92915050565b600082601f83011261231d57600080fd5b813561233061232b82613639565b61360c565b9150808252602083016020830185838301111561234c57600080fd5b612357838284613780565b50505092915050565b60008135905061236f81613801565b92915050565b60006020828403121561238757600080fd5b6000612395848285016122e2565b91505092915050565b600080604083850312156123b157600080fd5b60006123bf858286016122e2565b92505060206123d0858286016122e2565b9150509250929050565b6000806000606084860312156123ef57600080fd5b60006123fd868287016122e2565b935050602061240e868287016122e2565b925050604061241f86828701612360565b9150509250925092565b6000806040838503121561243c57600080fd5b600061244a858286016122e2565b925050602061245b85828601612360565b9150509250929050565b6000806000806080858703121561247b57600080fd5b6000612489878288016122e2565b945050602061249a87828801612360565b935050604085013567ffffffffffffffff8111156124b757600080fd5b6124c38782880161230c565b925050606085013567ffffffffffffffff8111156124e057600080fd5b6124ec8782880161230c565b91505092959194509250565b60006020828403121561250a57600080fd5b6000612518848285016122f7565b91505092915050565b6000806040838503121561253457600080fd5b6000612542858286016122f7565b9250506020612553858286016122e2565b9150509250929050565b6000806040838503121561257057600080fd5b600061257e858286016122f7565b925050602061258f85828601612360565b9150509250929050565b6000602082840312156125ab57600080fd5b60006125b984828501612360565b91505092915050565b600080604083850312156125d557600080fd5b60006125e385828601612360565b925050602083013567ffffffffffffffff81111561260057600080fd5b61260c8582860161230c565b9150509250929050565b6000806040838503121561262957600080fd5b600061263785828601612360565b925050602061264885828601612360565b9150509250929050565b600061265e8383612781565b905092915050565b61266f8161374a565b82525050565b61267e816136eb565b82525050565b600061268f82613684565b61269981856136b3565b9350836020820285016126ab85613665565b8060005b858110156126e757848403895281516126c88582612652565b94506126d3836136a6565b925060208a019950506001810190506126af565b50829750879550505050505092915050565b612702816136fd565b82525050565b61271181613709565b82525050565b60006127228261369b565b61272c81856136cf565b935061273c81856020860161378f565b612745816137c2565b840191505092915050565b600061275b8261369b565b61276581856136e0565b935061277581856020860161378f565b80840191505092915050565b600061278c82613690565b61279681856136be565b93506127a681856020860161378f565b6127af816137c2565b840191505092915050565b6000815460018116600081146127d757600181146127fc57612840565b607f60028304166127e881876136e0565b955060ff1983168652808601935050612840565b6002820461280a81876136e0565b95506128158561366f565b60005b8281101561283757815481890152600182019150602081019050612818565b82880195505050505b505092915050565b60006128556021836136cf565b91507f4d75737420686176652064656c6976657220726f6c6520746f2064656c69766560008301527f72000000000000000000000000000000000000000000000000000000000000006020830152604082019050919050565b60006128bb6022836136cf565b91507f456e756d657261626c655365743a20696e646578206f7574206f6620626f756e60008301527f64730000000000000000000000000000000000000000000000000000000000006020830152604082019050919050565b60006129216023836136cf565b91507f45524332303a207472616e7366657220746f20746865207a65726f206164647260008301527f65737300000000000000000000000000000000000000000000000000000000006020830152604082019050919050565b60006129876031836136cf565b91507f546865206d696e696d756d2076616c7565206d7573742062652067726561746560008301527f72207468616e206d696e44656c697665720000000000000000000000000000006020830152604082019050919050565b60006129ed602f836136cf565b91507f416363657373436f6e74726f6c3a2073656e646572206d75737420626520616e60008301527f2061646d696e20746f206772616e7400000000000000000000000000000000006020830152604082019050919050565b6000612a536014836136cf565b91507f5061757361626c653a206e6f74207061757365640000000000000000000000006000830152602082019050919050565b6000612a936039836136cf565b91507f45524332305072657365744d696e7465725061757365723a206d75737420686160008301527f76652070617573657220726f6c6520746f20756e7061757365000000000000006020830152604082019050919050565b6000612af96014836136cf565b91507f54686520747869642068617320657869737465640000000000000000000000006000830152602082019050919050565b6000612b396022836136cf565b91507f45524332303a20617070726f766520746f20746865207a65726f20616464726560008301527f73730000000000000000000000000000000000000000000000000000000000006020830152604082019050919050565b6000612b9f601b836136cf565b91507f536166654d6174683a206164646974696f6e206f766572666c6f7700000000006000830152602082019050919050565b6000612bdf6014836136cf565b91507f41646a75737420726f6c652072657175697265640000000000000000000000006000830152602082019050919050565b6000612c1f602e836136cf565b91507f546865206d696e696d756d2076616c7565206d7573742062652067726561746560008301527f72207468616e206d696e4275726e0000000000000000000000000000000000006020830152604082019050919050565b6000612c856030836136cf565b91507f416363657373436f6e74726f6c3a2073656e646572206d75737420626520616e60008301527f2061646d696e20746f207265766f6b65000000000000000000000000000000006020830152604082019050919050565b6000612ceb600b836136e0565b91507f5041555345525f524f4c450000000000000000000000000000000000000000006000830152600b82019050919050565b6000612d2b6010836136cf565b91507f5061757361626c653a20706175736564000000000000000000000000000000006000830152602082019050919050565b6000612d6b6036836136cf565b91507f45524332305072657365744d696e7465725061757365723a206d75737420686160008301527f7665206d696e74657220726f6c6520746f206d696e74000000000000000000006020830152604082019050919050565b6000612dd1600b836136e0565b91507f4d494e5445525f524f4c450000000000000000000000000000000000000000006000830152600b82019050919050565b6000612e116021836136cf565b91507f45524332303a206275726e2066726f6d20746865207a65726f2061646472657360008301527f73000000000000000000000000000000000000000000000000000000000000006020830152604082019050919050565b6000612e776025836136cf565b91507f45524332303a207472616e736665722066726f6d20746865207a65726f20616460008301527f64726573730000000000000000000000000000000000000000000000000000006020830152604082019050919050565b6000612edd6024836136cf565b91507f45524332303a20617070726f76652066726f6d20746865207a65726f2061646460008301527f72657373000000000000000000000000000000000000000000000000000000006020830152604082019050919050565b6000612f436037836136cf565b91507f45524332305072657365744d696e7465725061757365723a206d75737420686160008301527f76652070617573657220726f6c6520746f2070617573650000000000000000006020830152604082019050919050565b6000612fa9600b836136e0565b91507f41444a5553545f524f4c450000000000000000000000000000000000000000006000830152600b82019050919050565b6000612fe9600c836136e0565b91507f44454c495645525f524f4c4500000000000000000000000000000000000000006000830152600c82019050919050565b6000613029602f836136cf565b91507f416363657373436f6e74726f6c3a2063616e206f6e6c792072656e6f756e636560008301527f20726f6c657320666f722073656c6600000000000000000000000000000000006020830152604082019050919050565b600061308f601f836136cf565b91507f45524332303a206d696e7420746f20746865207a65726f2061646472657373006000830152602082019050919050565b60006130cf602a836136cf565b91507f45524332305061757361626c653a20746f6b656e207472616e7366657220776860008301527f696c6520706175736564000000000000000000000000000000000000000000006020830152604082019050919050565b61313181613733565b82525050565b6131408161373d565b82525050565b60006131528284612750565b915081905092915050565b600061316982846127ba565b915081905092915050565b600061317f82612cde565b9150819050919050565b600061319482612dc4565b9150819050919050565b60006131a982612f9c565b9150819050919050565b60006131be82612fdc565b9150819050919050565b60006020820190506131dd6000830184612675565b92915050565b60006020820190506131f86000830184612666565b92915050565b600060208201905081810360008301526132188184612684565b905092915050565b600060208201905061323560008301846126f9565b92915050565b60006020820190506132506000830184612708565b92915050565b600060208201905081810360008301526132708184612717565b905092915050565b6000602082019050818103600083015261329181612848565b9050919050565b600060208201905081810360008301526132b1816128ae565b9050919050565b600060208201905081810360008301526132d181612914565b9050919050565b600060208201905081810360008301526132f18161297a565b9050919050565b60006020820190508181036000830152613311816129e0565b9050919050565b6000602082019050818103600083015261333181612a46565b9050919050565b6000602082019050818103600083015261335181612a86565b9050919050565b6000602082019050818103600083015261337181612aec565b9050919050565b6000602082019050818103600083015261339181612b2c565b9050919050565b600060208201905081810360008301526133b181612b92565b9050919050565b600060208201905081810360008301526133d181612bd2565b9050919050565b600060208201905081810360008301526133f181612c12565b9050919050565b6000602082019050818103600083015261341181612c78565b9050919050565b6000602082019050818103600083015261343181612d1e565b9050919050565b6000602082019050818103600083015261345181612d5e565b9050919050565b6000602082019050818103600083015261347181612e04565b9050919050565b6000602082019050818103600083015261349181612e6a565b9050919050565b600060208201905081810360008301526134b181612ed0565b9050919050565b600060208201905081810360008301526134d181612f36565b9050919050565b600060208201905081810360008301526134f18161301c565b9050919050565b6000602082019050818103600083015261351181613082565b9050919050565b60006020820190508181036000830152613531816130c2565b9050919050565b600060208201905061354d6000830184613128565b92915050565b60006040820190506135686000830185613128565b818103602083015261357a8184612717565b90509392505050565b60006060820190506135986000830186613128565b81810360208301526135aa8185612717565b905081810360408301526135be8184612717565b9050949350505050565b60006040820190506135dd6000830185613128565b6135ea6020830184613128565b9392505050565b60006020820190506136066000830184613137565b92915050565b6000604051905081810181811067ffffffffffffffff8211171561362f57600080fd5b8060405250919050565b600067ffffffffffffffff82111561365057600080fd5b601f19601f8301169050602081019050919050565b6000819050919050565b60008190508160005260206000209050919050565b60006103e89050919050565b600081519050919050565b600081519050919050565b6000602082019050919050565b600081905092915050565b600082825260208201905092915050565b600082825260208201905092915050565b600081905092915050565b60006136f682613713565b9050919050565b60008115159050919050565b6000819050919050565b600073ffffffffffffffffffffffffffffffffffffffff82169050919050565b6000819050919050565b600060ff82169050919050565b60006137558261375c565b9050919050565b60006137678261376e565b9050919050565b600061377982613713565b9050919050565b82818337600083830152505050565b60005b838110156137ad578082015181840152602081019050613792565b838111156137bc576000848401525b50505050565b6000601f19601f8301169050919050565b6137dc816136eb565b81146137e757600080fd5b50565b6137f381613709565b81146137fe57600080fd5b50565b61380a81613733565b811461381557600080fd5b50565b80600660006101000a81548160ff021916908360ff1602179055505056fe45524332303a206275726e20616d6f756e7420657863656564732062616c616e636545524332303a207472616e7366657220616d6f756e7420657863656564732062616c616e636545524332303a207472616e7366657220616d6f756e74206578636565647320616c6c6f77616e636545524332303a206275726e20616d6f756e74206578636565647320616c6c6f77616e636545524332303a2064656372656173656420616c6c6f77616e63652062656c6f77207a65726fa26469706673582212203ae66f8aa4507578f8814f2ebc33378e9a8397ccac3074b4351852291413d87b64736f6c63430006020033",
  "source": "// SPDX-License-Identifier: MIT\n\npragma solidity >=0.4.21 <0.8.0;\npragma experimental ABIEncoderV2;\n\nimport \"@openzeppelin/contracts/presets/ERC20PresetMinterPauser.sol\";\n\ncontract GXC is ERC20PresetMinterPauser {\n    bytes32 public constant ADJUST_ROLE = keccak256(\"ADJUST_ROLE\");\n    bytes32 public constant DELIVER_ROLE = keccak256(\"DELIVER_ROLE\");\n\n    string[1000] private txidArray;\n    uint256 arrayLength = 1000;\n    uint256 private id;\n\n    uint256 private _minDeliver = 50000;\n    uint256 private _minBurn = 50000;\n\n    uint8 private decimals_ = 5;\n\n    event Deliver(address indexed to, uint256 amount, string from, string txid);\n\n    event Burn(address indexed from, uint256 amount, string to);\n\n    constructor(string memory name, string memory symbol)\n        public\n        ERC20PresetMinterPauser(name, symbol)\n    {\n        super._setupDecimals(decimals_);\n        _setupRole(ADJUST_ROLE, _msgSender());\n    }\n\n\n    function deliver(\n        address to,\n        uint256 amount,\n        string memory from,\n        string memory txid\n    ) public {\n        require(\n            amount >= _minDeliver,\n            \"The minimum value must be greater than minDeliver\"\n        );\n        require(hasRole(DELIVER_ROLE, _msgSender()), \"Must have deliver role to deliver\");\n        for (uint256 i = 0; i < arrayLength; i++) {\n            require(\n                keccak256(abi.encodePacked(txidArray[i])) !=\n                    keccak256(abi.encodePacked(txid)),\n                \"The txid has existed\"\n            );\n        }\n        uint256 id_number = id % arrayLength;\n        txidArray[id_number] = txid;\n        id++;\n        transfer(to, amount);\n        emit Deliver(to, amount, from, txid);\n    }\n\n    function burn(uint256 amount, string memory to) public {\n        require(\n            amount >= _minBurn,\n            \"The minimum value must be greater than minBurn\"\n        );\n        super.burn(amount);\n        emit Burn(msg.sender, amount, to);\n    }\n\n    function adjustParams(uint256 minDeliver , uint256 minBurn)\n        public\n    {\n        require(hasRole(ADJUST_ROLE, _msgSender()), \"Adjust role required\");\n        _minDeliver = minDeliver;\n        _minBurn = minBurn;\n    }\n\n    function getParams() public view returns (uint256 ,uint256){\n        return (_minDeliver, _minBurn);\n    }\n\n    function getTxids() public view returns (string[1000] memory) {\n        return txidArray;\n    }\n}\n",
  "sourcePath": "/Users/bijianing/gxc-solidity/contracts/GXC.sol",
  "compiler": {
    "name": "solc",
    "version": "0.6.2+commit.bacdbe57.Emscripten.clang"
  },
  "schemaVersion": "3.2.3",
  "updatedAt": "2020-09-01T12:12:50.315Z",
  "networkType": "ethereum",
  "devdoc": {
    "methods": {
      "allowance(address,address)": {
        "details": "See {IERC20-allowance}."
      },
      "approve(address,uint256)": {
        "details": "See {IERC20-approve}.     * Requirements:     * - `spender` cannot be the zero address."
      },
      "balanceOf(address)": {
        "details": "See {IERC20-balanceOf}."
      },
      "burn(uint256)": {
        "details": "Destroys `amount` tokens from the caller.     * See {ERC20-_burn}."
      },
      "burnFrom(address,uint256)": {
        "details": "Destroys `amount` tokens from `account`, deducting from the caller's allowance.     * See {ERC20-_burn} and {ERC20-allowance}.     * Requirements:     * - the caller must have allowance for ``accounts``'s tokens of at least `amount`."
      },
      "decimals()": {
        "details": "Returns the number of decimals used to get its user representation. For example, if `decimals` equals `2`, a balance of `505` tokens should be displayed to a user as `5,05` (`505 / 10 ** 2`).     * Tokens usually opt for a value of 18, imitating the relationship between Ether and Wei. This is the value {ERC20} uses, unless {_setupDecimals} is called.     * NOTE: This information is only used for _display_ purposes: it in no way affects any of the arithmetic of the contract, including {IERC20-balanceOf} and {IERC20-transfer}."
      },
      "decreaseAllowance(address,uint256)": {
        "details": "Atomically decreases the allowance granted to `spender` by the caller.     * This is an alternative to {approve} that can be used as a mitigation for problems described in {IERC20-approve}.     * Emits an {Approval} event indicating the updated allowance.     * Requirements:     * - `spender` cannot be the zero address. - `spender` must have allowance for the caller of at least `subtractedValue`."
      },
      "getRoleAdmin(bytes32)": {
        "details": "Returns the admin role that controls `role`. See {grantRole} and {revokeRole}.     * To change a role's admin, use {_setRoleAdmin}."
      },
      "getRoleMember(bytes32,uint256)": {
        "details": "Returns one of the accounts that have `role`. `index` must be a value between 0 and {getRoleMemberCount}, non-inclusive.     * Role bearers are not sorted in any particular way, and their ordering may change at any point.     * WARNING: When using {getRoleMember} and {getRoleMemberCount}, make sure you perform all queries on the same block. See the following https://forum.openzeppelin.com/t/iterating-over-elements-on-enumerableset-in-openzeppelin-contracts/2296[forum post] for more information."
      },
      "getRoleMemberCount(bytes32)": {
        "details": "Returns the number of accounts that have `role`. Can be used together with {getRoleMember} to enumerate all bearers of a role."
      },
      "grantRole(bytes32,address)": {
        "details": "Grants `role` to `account`.     * If `account` had not been already granted `role`, emits a {RoleGranted} event.     * Requirements:     * - the caller must have ``role``'s admin role."
      },
      "hasRole(bytes32,address)": {
        "details": "Returns `true` if `account` has been granted `role`."
      },
      "increaseAllowance(address,uint256)": {
        "details": "Atomically increases the allowance granted to `spender` by the caller.     * This is an alternative to {approve} that can be used as a mitigation for problems described in {IERC20-approve}.     * Emits an {Approval} event indicating the updated allowance.     * Requirements:     * - `spender` cannot be the zero address."
      },
      "mint(address,uint256)": {
        "details": "Creates `amount` new tokens for `to`.     * See {ERC20-_mint}.     * Requirements:     * - the caller must have the `MINTER_ROLE`."
      },
      "name()": {
        "details": "Returns the name of the token."
      },
      "pause()": {
        "details": "Pauses all token transfers.     * See {ERC20Pausable} and {Pausable-_pause}.     * Requirements:     * - the caller must have the `PAUSER_ROLE`."
      },
      "paused()": {
        "details": "Returns true if the contract is paused, and false otherwise."
      },
      "renounceRole(bytes32,address)": {
        "details": "Revokes `role` from the calling account.     * Roles are often managed via {grantRole} and {revokeRole}: this function's purpose is to provide a mechanism for accounts to lose their privileges if they are compromised (such as when a trusted device is misplaced).     * If the calling account had been granted `role`, emits a {RoleRevoked} event.     * Requirements:     * - the caller must be `account`."
      },
      "revokeRole(bytes32,address)": {
        "details": "Revokes `role` from `account`.     * If `account` had been granted `role`, emits a {RoleRevoked} event.     * Requirements:     * - the caller must have ``role``'s admin role."
      },
      "symbol()": {
        "details": "Returns the symbol of the token, usually a shorter version of the name."
      },
      "totalSupply()": {
        "details": "See {IERC20-totalSupply}."
      },
      "transfer(address,uint256)": {
        "details": "See {IERC20-transfer}.     * Requirements:     * - `recipient` cannot be the zero address. - the caller must have a balance of at least `amount`."
      },
      "transferFrom(address,address,uint256)": {
        "details": "See {IERC20-transferFrom}.     * Emits an {Approval} event indicating the updated allowance. This is not required by the EIP. See the note at the beginning of {ERC20};     * Requirements: - `sender` and `recipient` cannot be the zero address. - `sender` must have a balance of at least `amount`. - the caller must have allowance for ``sender``'s tokens of at least `amount`."
      },
      "unpause()": {
        "details": "Unpauses all token transfers.     * See {ERC20Pausable} and {Pausable-_unpause}.     * Requirements:     * - the caller must have the `PAUSER_ROLE`."
      }
    }
  },
  "userdoc": {
    "methods": {}
  }
}