{
  "contractName": "GXCDeliver",
  "abi": [
    {
      "inputs": [
        {
          "internalType": "contract GXC",
          "name": "_gxc",
          "type": "address"
        },
        {
          "internalType": "address",
          "name": "_ADMINACCOUNT",
          "type": "address"
        }
      ],
      "stateMutability": "nonpayable",
      "type": "constructor"
    },
    {
      "anonymous": false,
      "inputs": [
        {
          "indexed": true,
          "internalType": "address",
          "name": "to",
          "type": "address"
        },
        {
          "indexed": false,
          "internalType": "uint256",
          "name": "amount",
          "type": "uint256"
        },
        {
          "indexed": false,
          "internalType": "string",
          "name": "from",
          "type": "string"
        },
        {
          "indexed": false,
          "internalType": "bytes32",
          "name": "txid",
          "type": "bytes32"
        }
      ],
      "name": "Deliver",
      "type": "event"
    },
    {
      "inputs": [
        {
          "internalType": "address",
          "name": "to",
          "type": "address"
        },
        {
          "internalType": "uint256",
          "name": "amount",
          "type": "uint256"
        },
        {
          "internalType": "string",
          "name": "from",
          "type": "string"
        },
        {
          "internalType": "bytes32",
          "name": "txid",
          "type": "bytes32"
        }
      ],
      "name": "deliver",
      "outputs": [],
      "stateMutability": "nonpayable",
      "type": "function"
    },
    {
      "inputs": [],
      "name": "getTxids",
      "outputs": [
        {
          "internalType": "bytes32[50]",
          "name": "",
          "type": "bytes32[50]"
        }
      ],
      "stateMutability": "view",
      "type": "function",
      "constant": true
    }
  ],
  "bytecode": "0x60806040526032805534801561001457600080fd5b506040516106443803806106448339818101604052604081101561003757600080fd5b81019080805190602001909291908051906020019092919050505081603460006101000a81548173ffffffffffffffffffffffffffffffffffffffff021916908373ffffffffffffffffffffffffffffffffffffffff16021790555080603560006101000a81548173ffffffffffffffffffffffffffffffffffffffff021916908373ffffffffffffffffffffffffffffffffffffffff160217905550505061055f806100e56000396000f3fe608060405234801561001057600080fd5b50600436106100365760003560e01c80636966aa4f1461003b578063d336abab1461012a575b600080fd5b6101286004803603608081101561005157600080fd5b81019080803573ffffffffffffffffffffffffffffffffffffffff169060200190929190803590602001909291908035906020019064010000000081111561009857600080fd5b8201836020820111156100aa57600080fd5b803590602001918460018302840111640100000000831117156100cc57600080fd5b91908080601f016020809104026020016040519081016040528093929190818152602001838380828437600081840152601f19601f82011690508083019250505050505050919291929080359060200190929190505050610170565b005b6101326104bb565b6040518082603260200280838360005b8381101561015d578082015181840152602081019050610142565b5050505090500191505060405180910390f35b603560009054906101000a900473ffffffffffffffffffffffffffffffffffffffff1673ffffffffffffffffffffffffffffffffffffffff163373ffffffffffffffffffffffffffffffffffffffff1614610233576040517f08c379a00000000000000000000000000000000000000000000000000000000081526004018080602001828103825260188152602001807f4d757374206265207468652061646d696e6163636f756e74000000000000000081525060200191505060405180910390fd5b60008090505b6032548110156102d457816000826032811061025157fe5b015414156102c7576040517f08c379a00000000000000000000000000000000000000000000000000000000081526004018080602001828103825260148152602001807f546865207478696420686173206578697374656400000000000000000000000081525060200191505060405180910390fd5b8080600101915050610239565b506000603254603354816102e457fe5b06905081600082603281106102f557fe5b0181905550603360008154809291906001019190505550603460009054906101000a900473ffffffffffffffffffffffffffffffffffffffff1673ffffffffffffffffffffffffffffffffffffffff1663a9059cbb86866040518363ffffffff1660e01b8152600401808373ffffffffffffffffffffffffffffffffffffffff1673ffffffffffffffffffffffffffffffffffffffff16815260200182815260200192505050602060405180830381600087803b1580156103b557600080fd5b505af11580156103c9573d6000803e3d6000fd5b505050506040513d60208110156103df57600080fd5b8101908080519060200190929190505050508473ffffffffffffffffffffffffffffffffffffffff167f37cbfdca273c39bca2e82959664a8299bdef02558c0f7bd7621337bf8be37b968585856040518084815260200180602001838152602001828103825284818151815260200191508051906020019080838360005b8381101561047857808201518184015260208101905061045d565b50505050905090810190601f1680156104a55780820380516001836020036101000a031916815260200191505b5094505050505060405180910390a25050505050565b6104c3610506565b60006032806020026040519081016040528092919082603280156104fc576020028201915b8154815260200190600101908083116104e8575b5050505050905090565b60405180610640016040528060329060208202803883398082019150509050509056fea2646970667358221220d1cc1ae032ebb1037a2ac3245000e147b2df65694dab26630b68447473fd989264736f6c63430006020033",
  "source": "pragma solidity 0.6.2;\n\nimport \"./GXC.sol\";\ncontract GXCDeliver{\n    bytes32[50] private txidArray;\n    uint256 arrayLength = 50;\n    uint256 private id;\n    GXC gxc;\n    address ADMINACCOUNT;\n    constructor(GXC _gxc, address _ADMINACCOUNT)public{\n        gxc = _gxc;\n        ADMINACCOUNT = _ADMINACCOUNT;\n    }\n    event Deliver(address indexed to, uint256 amount, string from, bytes32 txid);\n\n    \n    function deliver(\n        address to,\n        uint256 amount,\n        string memory from,\n        bytes32 txid\n    ) public {\n        require(\n            msg.sender == ADMINACCOUNT,\"Must be the adminaccount\"\n        );\n        for (uint256 i = 0; i < arrayLength; i++) {\n            require(\n                txidArray[i] !=txid,\"The txid has existed\"\n            );\n        }\n        uint256 id_number = id % arrayLength;\n        txidArray[id_number] = txid;\n        id++;\n        gxc.transfer(to,amount);\n        emit Deliver(to, amount, from, txid);\n    }\n\n    function getTxids() public view returns (bytes32[50] memory) {\n        return txidArray;\n    }\n}",
  "sourcePath": "/Users/bijianing/gxc-solidity/contracts/GXCDeliver.sol",
  "compiler": {
    "name": "solc",
    "version": "0.6.2+commit.bacdbe57.Emscripten.clang"
  },
  "schemaVersion": "3.2.3",
  "updatedAt": "2020-09-03T10:01:13.696Z",
  "networkType": "ethereum",
  "devdoc": {
    "methods": {}
  },
  "userdoc": {
    "methods": {}
  }
}